{
  "_format": "hh-sol-artifact-1",
  "contractName": "NpngGame",
  "sourceName": "contracts/NpngGame.sol",
  "abi": [
    {
      "inputs": [],
      "stateMutability": "nonpayable",
      "type": "constructor"
    },
    {
      "anonymous": false,
      "inputs": [
        {
          "indexed": true,
          "internalType": "address",
          "name": "previousOwner",
          "type": "address"
        },
        {
          "indexed": true,
          "internalType": "address",
          "name": "newOwner",
          "type": "address"
        }
      ],
      "name": "OwnershipTransferred",
      "type": "event"
    },
    {
      "anonymous": false,
      "inputs": [
        {
          "indexed": false,
          "internalType": "address",
          "name": "account",
          "type": "address"
        }
      ],
      "name": "Paused",
      "type": "event"
    },
    {
      "anonymous": false,
      "inputs": [
        {
          "indexed": false,
          "internalType": "address",
          "name": "account",
          "type": "address"
        }
      ],
      "name": "Unpaused",
      "type": "event"
    },
    {
      "inputs": [
        {
          "internalType": "uint256",
          "name": "_newFrequence",
          "type": "uint256"
        }
      ],
      "name": "changeGameFrequence",
      "outputs": [],
      "stateMutability": "nonpayable",
      "type": "function"
    },
    {
      "inputs": [
        {
          "internalType": "address",
          "name": "_newRecorderAddress",
          "type": "address"
        }
      ],
      "name": "changeRecorder",
      "outputs": [],
      "stateMutability": "nonpayable",
      "type": "function"
    },
    {
      "inputs": [
        {
          "internalType": "uint256",
          "name": "_idContest",
          "type": "uint256"
        },
        {
          "internalType": "address",
          "name": "_player",
          "type": "address"
        }
      ],
      "name": "getContestRank",
      "outputs": [
        {
          "internalType": "uint256",
          "name": "",
          "type": "uint256"
        }
      ],
      "stateMutability": "view",
      "type": "function"
    },
    {
      "inputs": [],
      "name": "getEndOfContest",
      "outputs": [
        {
          "internalType": "uint256",
          "name": "",
          "type": "uint256"
        }
      ],
      "stateMutability": "view",
      "type": "function"
    },
    {
      "inputs": [],
      "name": "getIdContest",
      "outputs": [
        {
          "internalType": "uint256",
          "name": "",
          "type": "uint256"
        }
      ],
      "stateMutability": "view",
      "type": "function"
    },
    {
      "inputs": [],
      "name": "owner",
      "outputs": [
        {
          "internalType": "address",
          "name": "",
          "type": "address"
        }
      ],
      "stateMutability": "view",
      "type": "function"
    },
    {
      "inputs": [],
      "name": "pause",
      "outputs": [],
      "stateMutability": "nonpayable",
      "type": "function"
    },
    {
      "inputs": [],
      "name": "paused",
      "outputs": [
        {
          "internalType": "bool",
          "name": "",
          "type": "bool"
        }
      ],
      "stateMutability": "view",
      "type": "function"
    },
    {
      "inputs": [],
      "name": "renounceOwnership",
      "outputs": [],
      "stateMutability": "nonpayable",
      "type": "function"
    },
    {
      "inputs": [
        {
          "internalType": "address",
          "name": "newOwner",
          "type": "address"
        }
      ],
      "name": "transferOwnership",
      "outputs": [],
      "stateMutability": "nonpayable",
      "type": "function"
    },
    {
      "inputs": [],
      "name": "unpause",
      "outputs": [],
      "stateMutability": "nonpayable",
      "type": "function"
    }
  ],
  "bytecode": "0x608060405234801561001057600080fd5b5060008060006101000a81548160ff02191690831515021790555061004761003c6100a860201b60201c565b6100b060201b60201c565b4260068190555060016005819055506201518060048190555061dead600760006101000a81548173ffffffffffffffffffffffffffffffffffffffff021916908373ffffffffffffffffffffffffffffffffffffffff160217905550610175565b600033905090565b60008060019054906101000a900473ffffffffffffffffffffffffffffffffffffffff16905081600060016101000a81548173ffffffffffffffffffffffffffffffffffffffff021916908373ffffffffffffffffffffffffffffffffffffffff1602179055508173ffffffffffffffffffffffffffffffffffffffff168173ffffffffffffffffffffffffffffffffffffffff167f8be0079c531659141344cd1fd0a4f28419497f9722a3daafe3b4186f6b6457e060405160405180910390a35050565b610c6a806101846000396000f3fe608060405234801561001057600080fd5b50600436106100a95760003560e01c80638da5cb5b116100715780638da5cb5b14610108578063c85785d614610126578063cad7ebce14610144578063e064613e14610174578063f2fbee3f14610190578063f2fde38b146101ac576100a9565b806312b946bc146100ae5780633f4ba83a146100cc5780635c975abb146100d6578063715018a6146100f45780638456cb59146100fe575b600080fd5b6100b66101c8565b6040516100c391906107cf565b60405180910390f35b6100d46101e4565b005b6100de6101f6565b6040516100eb9190610805565b60405180910390f35b6100fc61020c565b005b610106610220565b005b610110610232565b60405161011d9190610861565b60405180910390f35b61012e61025b565b60405161013b91906107cf565b60405180910390f35b61015e600480360381019061015991906108d9565b610265565b60405161016b91906107cf565b60405180910390f35b61018e60048036038101906101899190610919565b610433565b005b6101aa60048036038101906101a59190610946565b61047f565b005b6101c660048036038101906101c19190610919565b610491565b005b6000806004546006546101db91906109a2565b90508091505090565b6101ec610514565b6101f4610592565b565b60008060009054906101000a900460ff16905090565b610214610514565b61021e60006105f4565b565b610228610514565b6102306106b9565b565b60008060019054906101000a900473ffffffffffffffffffffffffffffffffffffffff16905090565b6000600554905090565b6000806000806001905060005b60016000888152602001908152602001600020805490508110156103a3576001600088815260200190815260200160002081815481106102b5576102b46109d6565b5b906000526020600020906003020160000160009054906101000a900473ffffffffffffffffffffffffffffffffffffffff1673ffffffffffffffffffffffffffffffffffffffff168673ffffffffffffffffffffffffffffffffffffffff160361035a57809350600160008881526020019081526020016000208181548110610341576103406109d6565b5b90600052602060002090600302016001015492506103a3565b600160008881526020019081526020016000208054905060018261037e91906109a2565b0361039057600094505050505061042d565b808061039b90610a05565b915050610272565b5060005b6001600088815260200190815260200160002080549050811015610425576001600088815260200190815260200160002081815481106103ea576103e96109d6565b5b90600052602060002090600302016001015483111561041257818061040e90610a05565b9250505b808061041d90610a05565b9150506103a7565b508093505050505b92915050565b61043b610514565b80600760006101000a81548173ffffffffffffffffffffffffffffffffffffffff021916908373ffffffffffffffffffffffffffffffffffffffff16021790555050565b610487610514565b8060048190555050565b610499610514565b600073ffffffffffffffffffffffffffffffffffffffff168173ffffffffffffffffffffffffffffffffffffffff1603610508576040517f08c379a00000000000000000000000000000000000000000000000000000000081526004016104ff90610ad0565b60405180910390fd5b610511816105f4565b50565b61051c61071b565b73ffffffffffffffffffffffffffffffffffffffff1661053a610232565b73ffffffffffffffffffffffffffffffffffffffff1614610590576040517f08c379a000000000000000000000000000000000000000000000000000000000815260040161058790610b3c565b60405180910390fd5b565b61059a610723565b60008060006101000a81548160ff0219169083151502179055507f5db9ee0a495bf2e6ff9c91a7834c1ba4fdd244a5e8aa4e537bd38aeae4b073aa6105dd61071b565b6040516105ea9190610861565b60405180910390a1565b60008060019054906101000a900473ffffffffffffffffffffffffffffffffffffffff16905081600060016101000a81548173ffffffffffffffffffffffffffffffffffffffff021916908373ffffffffffffffffffffffffffffffffffffffff1602179055508173ffffffffffffffffffffffffffffffffffffffff168173ffffffffffffffffffffffffffffffffffffffff167f8be0079c531659141344cd1fd0a4f28419497f9722a3daafe3b4186f6b6457e060405160405180910390a35050565b6106c161076c565b60016000806101000a81548160ff0219169083151502179055507f62e78cea01bee320cd4e420270b5ea74000d11b0c9f74754ebdbfc544b05a25861070461071b565b6040516107119190610861565b60405180910390a1565b600033905090565b61072b6101f6565b61076a576040517f08c379a000000000000000000000000000000000000000000000000000000000815260040161076190610ba8565b60405180910390fd5b565b6107746101f6565b156107b4576040517f08c379a00000000000000000000000000000000000000000000000000000000081526004016107ab90610c14565b60405180910390fd5b565b6000819050919050565b6107c9816107b6565b82525050565b60006020820190506107e460008301846107c0565b92915050565b60008115159050919050565b6107ff816107ea565b82525050565b600060208201905061081a60008301846107f6565b92915050565b600073ffffffffffffffffffffffffffffffffffffffff82169050919050565b600061084b82610820565b9050919050565b61085b81610840565b82525050565b60006020820190506108766000830184610852565b92915050565b600080fd5b61088a816107b6565b811461089557600080fd5b50565b6000813590506108a781610881565b92915050565b6108b681610840565b81146108c157600080fd5b50565b6000813590506108d3816108ad565b92915050565b600080604083850312156108f0576108ef61087c565b5b60006108fe85828601610898565b925050602061090f858286016108c4565b9150509250929050565b60006020828403121561092f5761092e61087c565b5b600061093d848285016108c4565b91505092915050565b60006020828403121561095c5761095b61087c565b5b600061096a84828501610898565b91505092915050565b7f4e487b7100000000000000000000000000000000000000000000000000000000600052601160045260246000fd5b60006109ad826107b6565b91506109b8836107b6565b92508282019050808211156109d0576109cf610973565b5b92915050565b7f4e487b7100000000000000000000000000000000000000000000000000000000600052603260045260246000fd5b6000610a10826107b6565b91507fffffffffffffffffffffffffffffffffffffffffffffffffffffffffffffffff8203610a4257610a41610973565b5b600182019050919050565b600082825260208201905092915050565b7f4f776e61626c653a206e6577206f776e657220697320746865207a65726f206160008201527f6464726573730000000000000000000000000000000000000000000000000000602082015250565b6000610aba602683610a4d565b9150610ac582610a5e565b604082019050919050565b60006020820190508181036000830152610ae981610aad565b9050919050565b7f4f776e61626c653a2063616c6c6572206973206e6f7420746865206f776e6572600082015250565b6000610b26602083610a4d565b9150610b3182610af0565b602082019050919050565b60006020820190508181036000830152610b5581610b19565b9050919050565b7f5061757361626c653a206e6f7420706175736564000000000000000000000000600082015250565b6000610b92601483610a4d565b9150610b9d82610b5c565b602082019050919050565b60006020820190508181036000830152610bc181610b85565b9050919050565b7f5061757361626c653a2070617573656400000000000000000000000000000000600082015250565b6000610bfe601083610a4d565b9150610c0982610bc8565b602082019050919050565b60006020820190508181036000830152610c2d81610bf1565b905091905056fea26469706673582212202a055630ce07f1021ecc176daf8b8e755b6eddece4e429466b4a336b6d7f8ca564736f6c63430008110033",
  "linkReferences": {},
  "deployedLinkReferences": {}
}