{"contracts/NpngPool.sol":{"NpngPool":{"abi":[{"inputs":[],"stateMutability":"nonpayable","type":"constructor"},{"anonymous":false,"inputs":[{"indexed":true,"internalType":"address","name":"previousOwner","type":"address"},{"indexed":true,"internalType":"address","name":"newOwner","type":"address"}],"name":"OwnershipTransferred","type":"event"},{"anonymous":false,"inputs":[{"indexed":false,"internalType":"address","name":"account","type":"address"}],"name":"Paused","type":"event"},{"anonymous":false,"inputs":[{"indexed":false,"internalType":"address","name":"account","type":"address"}],"name":"Unpaused","type":"event"},{"inputs":[{"internalType":"uint256","name":"_newFrequence","type":"uint256"}],"name":"changeGameFrequence","outputs":[],"stateMutability":"nonpayable","type":"function"},{"inputs":[{"internalType":"address","name":"_newAddress","type":"address"}],"name":"changeNpngTokenAddress","outputs":[],"stateMutability":"nonpayable","type":"function"},{"inputs":[{"internalType":"address","name":"_newRecorderAddress","type":"address"}],"name":"changeRecorder","outputs":[],"stateMutability":"nonpayable","type":"function"},{"inputs":[],"name":"claim","outputs":[],"stateMutability":"nonpayable","type":"function"},{"inputs":[{"internalType":"uint256","name":"_amount","type":"uint256"}],"name":"depositOnAave","outputs":[],"stateMutability":"nonpayable","type":"function"},{"inputs":[{"internalType":"address","name":"_player","type":"address"}],"name":"getAccountTable","outputs":[{"components":[{"internalType":"uint256","name":"idContest","type":"uint256"},{"internalType":"uint256","name":"rank","type":"uint256"},{"internalType":"uint256","name":"participant","type":"uint256"},{"internalType":"uint256","name":"prize","type":"uint256"}],"internalType":"struct NpngGame.AccountTable[10]","name":"","type":"tuple[10]"}],"stateMutability":"view","type":"function"},{"inputs":[{"internalType":"uint256","name":"_idContest","type":"uint256"},{"internalType":"address","name":"_player","type":"address"}],"name":"getContestRank","outputs":[{"internalType":"uint256","name":"","type":"uint256"}],"stateMutability":"view","type":"function"},{"inputs":[{"internalType":"uint256","name":"_idContest","type":"uint256"}],"name":"getContestTable","outputs":[{"components":[{"internalType":"uint256","name":"rank","type":"uint256"},{"internalType":"uint256","name":"score","type":"uint256"},{"internalType":"address","name":"player","type":"address"},{"internalType":"uint256","name":"prize","type":"uint256"}],"internalType":"struct NpngGame.ContestTable[10]","name":"","type":"tuple[10]"}],"stateMutability":"view","type":"function"},{"inputs":[],"name":"getEndOfContest","outputs":[{"internalType":"uint256","name":"","type":"uint256"}],"stateMutability":"view","type":"function"},{"inputs":[],"name":"getGlobalPrizePool","outputs":[{"internalType":"uint256","name":"","type":"uint256"}],"stateMutability":"view","type":"function"},{"inputs":[],"name":"getIdContest","outputs":[{"internalType":"uint256","name":"","type":"uint256"}],"stateMutability":"view","type":"function"},{"inputs":[{"internalType":"address","name":"_account","type":"address"}],"name":"getPendingRewards","outputs":[{"internalType":"uint256","name":"","type":"uint256"}],"stateMutability":"view","type":"function"},{"inputs":[],"name":"getPlay","outputs":[],"stateMutability":"nonpayable","type":"function"},{"inputs":[{"internalType":"address","name":"_player","type":"address"},{"internalType":"uint256","name":"_idContest","type":"uint256"}],"name":"getRewardPerPlayerPerContest","outputs":[{"internalType":"uint256","name":"","type":"uint256"}],"stateMutability":"view","type":"function"},{"inputs":[{"internalType":"uint256","name":"_idContest","type":"uint256"},{"internalType":"uint256","name":"_globalPrizePool","type":"uint256"}],"name":"getRewardsPerContest","outputs":[{"internalType":"uint256","name":"","type":"uint256"}],"stateMutability":"view","type":"function"},{"inputs":[{"internalType":"address","name":"_account","type":"address"}],"name":"getTotalClaimedRewards","outputs":[{"internalType":"uint256","name":"","type":"uint256"}],"stateMutability":"view","type":"function"},{"inputs":[{"internalType":"address","name":"_account","type":"address"}],"name":"getUserBalance","outputs":[{"internalType":"uint256","name":"","type":"uint256"}],"stateMutability":"view","type":"function"},{"inputs":[{"internalType":"uint256","name":"_idContest","type":"uint256"}],"name":"getWinnersInfo","outputs":[{"components":[{"internalType":"address","name":"player","type":"address"},{"internalType":"uint256","name":"score","type":"uint256"},{"internalType":"uint256","name":"balancePlayer","type":"uint256"}],"internalType":"struct NpngGame.ContestsResult[11]","name":"","type":"tuple[11]"}],"stateMutability":"view","type":"function"},{"inputs":[],"name":"owner","outputs":[{"internalType":"address","name":"","type":"address"}],"stateMutability":"view","type":"function"},{"inputs":[],"name":"pause","outputs":[],"stateMutability":"nonpayable","type":"function"},{"inputs":[],"name":"paused","outputs":[{"internalType":"bool","name":"","type":"bool"}],"stateMutability":"view","type":"function"},{"inputs":[],"name":"renounceOwnership","outputs":[],"stateMutability":"nonpayable","type":"function"},{"inputs":[{"internalType":"address","name":"_player","type":"address"},{"internalType":"uint256","name":"_score","type":"uint256"}],"name":"saveScore","outputs":[],"stateMutability":"nonpayable","type":"function"},{"inputs":[{"internalType":"address","name":"newOwner","type":"address"}],"name":"transferOwnership","outputs":[],"stateMutability":"nonpayable","type":"function"},{"inputs":[],"name":"unpause","outputs":[],"stateMutability":"nonpayable","type":"function"},{"inputs":[],"name":"updateContest","outputs":[],"stateMutability":"nonpayable","type":"function"},{"inputs":[{"internalType":"uint256","name":"_amount","type":"uint256"}],"name":"withdraw","outputs":[],"stateMutability":"nonpayable","type":"function"}],"evm":{"bytecode":{"linkReferences":{},"object":"60806040523480156200001157600080fd5b5060008060006101000a81548160ff0219169083151502179055506200004c620000406200025660201b60201c565b6200025e60201b60201c565b4260068190555060016005819055506201518060048190555061dead600760006101000a81548173ffffffffffffffffffffffffffffffffffffffff021916908373ffffffffffffffffffffffffffffffffffffffff16021790555073a2025b15a1757311bfd68cb14eaefcc237af5b43600f60006101000a81548173ffffffffffffffffffffffffffffffffffffffff021916908373ffffffffffffffffffffffffffffffffffffffff16021790555073368eedf3f56ad10b9bc57eed4dac65b26bb667f6601260006101000a81548173ffffffffffffffffffffffffffffffffffffffff021916908373ffffffffffffffffffffffffffffffffffffffff160217905550731ee669290939f8a8864497af3bc83728715265ff601060006101000a81548173ffffffffffffffffffffffffffffffffffffffff021916908373ffffffffffffffffffffffffffffffffffffffff160217905550738ad6d963600f5c45dabd5ff6faa04d51a6d549f0601160006101000a81548173ffffffffffffffffffffffffffffffffffffffff021916908373ffffffffffffffffffffffffffffffffffffffff1602179055506000600c6000808152602001908152602001600020600001819055506000600c6000808152602001908152602001600020600101819055506000600c60008081526020019081526020016000206002018190555062000323565b600033905090565b60008060019054906101000a900473ffffffffffffffffffffffffffffffffffffffff16905081600060016101000a81548173ffffffffffffffffffffffffffffffffffffffff021916908373ffffffffffffffffffffffffffffffffffffffff1602179055508173ffffffffffffffffffffffffffffffffffffffff168173ffffffffffffffffffffffffffffffffffffffff167f8be0079c531659141344cd1fd0a4f28419497f9722a3daafe3b4186f6b6457e060405160405180910390a35050565b613cc280620003336000396000f3fe608060405234801561001057600080fd5b50600436106101a95760003560e01c80638da5cb5b116100f9578063cad7ebce11610097578063f2fde38b11610071578063f2fde38b1461045c578063f6ed201714610478578063fd1df603146104a8578063fd8d1909146104d8576101a9565b8063cad7ebce146103f4578063e064613e14610424578063f2fbee3f14610440576101a9565b8063b4ace158116100d3578063b4ace15814610358578063b56bae1114610376578063bb2922e6146103a6578063c85785d6146103d6576101a9565b80638da5cb5b146102da57806395d7573c146102f85780639cfc8b8c14610328576101a9565b80634e499acd11610166578063695a651711610140578063695a65171461028e578063715018a6146102aa5780638347f536146102b45780638456cb59146102d0576101a9565b80634e499acd1461025c5780634e71d92d146102665780635c975abb14610270576101a9565b80630bd5d284146101ae57806312b946bc146101b85780632452a7e3146101d65780632e1a7d4d146102065780633f4ba83a14610222578063477348921461022c575b600080fd5b6101b66104f4565b005b6101c0610580565b6040516101cd9190612ae2565b60405180910390f35b6101f060048036038101906101eb9190612b2e565b61059c565b6040516101fd9190612c9c565b60405180910390f35b610220600480360381019061021b9190612b2e565b610789565b005b61022a610af0565b005b61024660048036038101906102419190612ce4565b610b02565b6040516102539190612ae2565b60405180910390f35b610264610b4b565b005b61026e610e05565b005b61027861109e565b6040516102859190612d2c565b60405180910390f35b6102a860048036038101906102a39190612d47565b6110b4565b005b6102b261143e565b005b6102ce60048036038101906102c99190612ce4565b611452565b005b6102d861149e565b005b6102e26114b0565b6040516102ef9190612d96565b60405180910390f35b610312600480360381019061030d9190612db1565b6114d9565b60405161031f9190612ae2565b60405180910390f35b610342600480360381019061033d9190612ce4565b6115bb565b60405161034f9190612ae2565b60405180910390f35b610360611604565b60405161036d9190612ae2565b60405180910390f35b610390600480360381019061038b9190612b2e565b61172a565b60405161039d9190612ecf565b60405180910390f35b6103c060048036038101906103bb9190612ce4565b611a06565b6040516103cd9190612fdc565b60405180910390f35b6103de611b5f565b6040516103eb9190612ae2565b60405180910390f35b61040e60048036038101906104099190612ff8565b611b69565b60405161041b9190612ae2565b60405180910390f35b61043e60048036038101906104399190612ce4565b611d37565b005b61045a60048036038101906104559190612b2e565b611d83565b005b61047660048036038101906104719190612ce4565b611d95565b005b610492600480360381019061048d9190612ce4565b611e18565b60405161049f9190612ae2565b60405180910390f35b6104c260048036038101906104bd9190612d47565b611edd565b6040516104cf9190612ae2565b60405180910390f35b6104f260048036038101906104ed9190612b2e565b61201d565b005b6000600860003373ffffffffffffffffffffffffffffffffffffffff1673ffffffffffffffffffffffffffffffffffffffff1681526020019081526020016000205411610576576040517f08c379a000000000000000000000000000000000000000000000000000000000815260040161056d90613095565b60405180910390fd5b61057e61253e565b565b60008060045460065461059391906130e4565b90508091505090565b6105a46129a2565b6105ac6129a2565b60006105b78461172a565b90506000816000600b81106105cf576105ce613118565b5b602002015160400151905060005b600a81101561077d5760006001826105f591906130e4565b9050808583600a811061060b5761060a613118565b5b602002015160000181815250508381600b811061062b5761062a613118565b5b6020020151602001518583600a811061064757610646613118565b5b602002015160200181815250508381600b811061066757610666613118565b5b6020020151600001518583600a811061068357610682613118565b5b60200201516040019073ffffffffffffffffffffffffffffffffffffffff16908173ffffffffffffffffffffffffffffffffffffffff1681525050662386f26fc1000060058260656106d59190613147565b6106df91906132bb565b84620f42408785600b81106106f7576106f6613118565b5b602002015160400151600c60008d8152602001908152602001600020600101546107219190613306565b61072b9190613306565b6107359190613377565b61073f9190613306565b6107499190613377565b8583600a811061075c5761075b613118565b5b60200201516060018181525050508080610775906133a8565b9150506105dd565b50829350505050919050565b80600860003373ffffffffffffffffffffffffffffffffffffffff1673ffffffffffffffffffffffffffffffffffffffff16815260200190815260200160002054101561080b576040517f08c379a00000000000000000000000000000000000000000000000000000000081526004016108029061343c565b60405180910390fd5b6005546002600b60003373ffffffffffffffffffffffffffffffffffffffff1673ffffffffffffffffffffffffffffffffffffffff1681526020019081526020016000205461085a91906130e4565b111561089b576040517f08c379a0000000000000000000000000000000000000000000000000000000008152600401610892906134ce565b60405180910390fd5b601260009054906101000a900473ffffffffffffffffffffffffffffffffffffffff1673ffffffffffffffffffffffffffffffffffffffff166369328dec600f60009054906101000a900473ffffffffffffffffffffffffffffffffffffffff1683306040518463ffffffff1660e01b815260040161091c939291906134ee565b600060405180830381600087803b15801561093657600080fd5b505af115801561094a573d6000803e3d6000fd5b50505050600f60009054906101000a900473ffffffffffffffffffffffffffffffffffffffff1673ffffffffffffffffffffffffffffffffffffffff1663a9059cbb33836040518363ffffffff1660e01b81526004016109ab929190613525565b6020604051808303816000875af11580156109ca573d6000803e3d6000fd5b505050506040513d601f19601f820116820180604052508101906109ee919061357a565b5080600860003373ffffffffffffffffffffffffffffffffffffffff1673ffffffffffffffffffffffffffffffffffffffff1681526020019081526020016000206000828254610a3e9190613147565b9250508190555080600a6000828254610a5791906130e4565b92505081905550601160009054906101000a900473ffffffffffffffffffffffffffffffffffffffff1673ffffffffffffffffffffffffffffffffffffffff16639dc29fac33836040518363ffffffff1660e01b8152600401610abb929190613525565b600060405180830381600087803b158015610ad557600080fd5b505af1158015610ae9573d6000803e3d6000fd5b5050505050565b610af8612700565b610b0061277e565b565b6000600860008373ffffffffffffffffffffffffffffffffffffffff1673ffffffffffffffffffffffffffffffffffffffff168152602001908152602001600020549050919050565b600760009054906101000a900473ffffffffffffffffffffffffffffffffffffffff1673ffffffffffffffffffffffffffffffffffffffff163373ffffffffffffffffffffffffffffffffffffffff1614610bdb576040517f08c379a0000000000000000000000000000000000000000000000000000000008152600401610bd290613619565b60405180910390fd5b600454600654610beb91906130e4565b421015610c2d576040517f08c379a0000000000000000000000000000000000000000000000000000000008152600401610c2490613685565b60405180910390fd5b426006819055506000600c60006001600554610c499190613147565b815260200190815260200160002060020154600a54600954600c60006001600554610c749190613147565b815260200190815260200160002060000154610c9091906130e4565b610c9a9190613147565b610ca491906130e4565b90506000601060009054906101000a900473ffffffffffffffffffffffffffffffffffffffff1673ffffffffffffffffffffffffffffffffffffffff166370a08231306040518263ffffffff1660e01b8152600401610d039190612d96565b602060405180830381865afa158015610d20573d6000803e3d6000fd5b505050506040513d601f19601f82011682018060405250810190610d4491906136ba565b905060008282610d549190613147565b90506000610d64600554836114d9565b905083600c600060055481526020019081526020016000206000018190555081600c600060055481526020019081526020016000206001018190555080600c600060055481526020019081526020016000206002018190555080600d600060055481526020019081526020016000208190555060006009819055506000600a8190555060056000815480929190610dfa906133a8565b919050555050505050565b600080806001600554610e189190613147565b90505b6000811115610f545760011515600360003373ffffffffffffffffffffffffffffffffffffffff1673ffffffffffffffffffffffffffffffffffffffff168152602001908152602001600020600083815260200190815260200160002060000160029054906101000a900460ff1615150315610f5457610e9b3382611edd565b91508183610ea991906130e4565b925081600d60008381526020019081526020016000206000828254610ece9190613147565b925050819055506001600360003373ffffffffffffffffffffffffffffffffffffffff1673ffffffffffffffffffffffffffffffffffffffff168152602001908152602001600020600083815260200190815260200160002060000160026101000a81548160ff0219169083151502179055508080610f4c906136e7565b915050610e1b565b50600082111561109a5781600860003373ffffffffffffffffffffffffffffffffffffffff1673ffffffffffffffffffffffffffffffffffffffff1681526020019081526020016000206000828254610fad91906130e4565b9250508190555081600e60003373ffffffffffffffffffffffffffffffffffffffff1673ffffffffffffffffffffffffffffffffffffffff168152602001908152602001600020600082825461100391906130e4565b92505081905550601160009054906101000a900473ffffffffffffffffffffffffffffffffffffffff1673ffffffffffffffffffffffffffffffffffffffff166340c10f1933846040518363ffffffff1660e01b8152600401611067929190613525565b600060405180830381600087803b15801561108157600080fd5b505af1158015611095573d6000803e3d6000fd5b505050505b5050565b60008060009054906101000a900460ff16905090565b600760009054906101000a900473ffffffffffffffffffffffffffffffffffffffff1673ffffffffffffffffffffffffffffffffffffffff163373ffffffffffffffffffffffffffffffffffffffff1614611144576040517f08c379a000000000000000000000000000000000000000000000000000000000815260040161113b90613782565b60405180910390fd5b60011515600360008473ffffffffffffffffffffffffffffffffffffffff1673ffffffffffffffffffffffffffffffffffffffff1681526020019081526020016000206000600554815260200190815260200160002060000160009054906101000a900460ff161515146111ed576040517f08c379a00000000000000000000000000000000000000000000000000000000081526004016111e4906137ee565b60405180910390fd5b60001515600360008473ffffffffffffffffffffffffffffffffffffffff1673ffffffffffffffffffffffffffffffffffffffff1681526020019081526020016000206000600554815260200190815260200160002060000160019054906101000a900460ff16151514611296576040517f08c379a000000000000000000000000000000000000000000000000000000000815260040161128d9061385a565b60405180910390fd5b60016000600554815260200190815260200160002060405180606001604052808473ffffffffffffffffffffffffffffffffffffffff168152602001838152602001600860008673ffffffffffffffffffffffffffffffffffffffff1673ffffffffffffffffffffffffffffffffffffffff16815260200190815260200160002054815250908060018154018082558091505060019003906000526020600020906003020160009091909190915060008201518160000160006101000a81548173ffffffffffffffffffffffffffffffffffffffff021916908373ffffffffffffffffffffffffffffffffffffffff160217905550602082015181600101556040820151816002015550506001600360008473ffffffffffffffffffffffffffffffffffffffff1673ffffffffffffffffffffffffffffffffffffffff1681526020019081526020016000206000600554815260200190815260200160002060000160016101000a81548160ff0219169083151502179055506002600060055481526020019081526020016000206000815480929190611435906133a8565b91905055505050565b611446612700565b61145060006127e0565b565b61145a612700565b80601160006101000a81548173ffffffffffffffffffffffffffffffffffffffff021916908373ffffffffffffffffffffffffffffffffffffffff16021790555050565b6114a6612700565b6114ae6128a5565b565b60008060019054906101000a900473ffffffffffffffffffffffffffffffffffffffff16905090565b6000806114e58461172a565b90506000816000600b81106114fd576114fc613118565b5b6020020151604001519050600080600190505b600b8110156115ae57662386f26fc1000060058260656115309190613147565b61153a91906132bb565b84620f42408785600b811061155257611551613118565b5b6020020151604001518a6115669190613306565b6115709190613306565b61157a9190613377565b6115849190613306565b61158e9190613377565b8261159991906130e4565b915080806115a6906133a8565b915050611510565b5080935050505092915050565b6000600e60008373ffffffffffffffffffffffffffffffffffffffff1673ffffffffffffffffffffffffffffffffffffffff168152602001908152602001600020549050919050565b600080600c6000600160055461161a9190613147565b815260200190815260200160002060020154600a54600954600c600060016005546116459190613147565b81526020019081526020016000206000015461166191906130e4565b61166b9190613147565b61167591906130e4565b90506000601060009054906101000a900473ffffffffffffffffffffffffffffffffffffffff1673ffffffffffffffffffffffffffffffffffffffff166370a08231306040518263ffffffff1660e01b81526004016116d49190612d96565b602060405180830381865afa1580156116f1573d6000803e3d6000fd5b505050506040513d601f19601f8201168201806040525081019061171591906136ba565b905081816117239190613147565b9250505090565b6117326129d0565b600080600090506117416129d0565b60005b60016000878152602001908152602001600020805490508110156119d85760016000878152602001908152602001600020818154811061178757611786613118565b5b906000526020600020906003020160010154935060006001905060005b6001600089815260200190815260200160002080549050811015611822576001600089815260200190815260200160002081815481106117e7576117e6613118565b5b90600052602060002090600302016001015486111561180f57818061180b906133a8565b9250505b808061181a906133a8565b9150506117a4565b50600b8110156119c45760016000888152602001908152602001600020828154811061185157611850613118565b5b9060005260206000209060030201600201548461186e91906130e4565b935060016000888152602001908152602001600020828154811061189557611894613118565b5b906000526020600020906003020160000160009054906101000a900473ffffffffffffffffffffffffffffffffffffffff168382600b81106118da576118d9613118565b5b60200201516000019073ffffffffffffffffffffffffffffffffffffffff16908173ffffffffffffffffffffffffffffffffffffffff168152505060016000888152602001908152602001600020828154811061193a57611939613118565b5b9060005260206000209060030201600101548382600b811061195f5761195e613118565b5b6020020151602001818152505060016000888152602001908152602001600020828154811061199157611990613118565b5b9060005260206000209060030201600201548382600b81106119b6576119b5613118565b5b602002015160400181815250505b5080806119d0906133a8565b915050611744565b5081816000600b81106119ee576119ed613118565b5b60200201516040018181525050809350505050919050565b611a0e6129fe565b611a166129fe565b6000806000905060006001600554611a2e9190613147565b90506000600a821015611a4357819350611a48565b600a93505b60008290505b8483611a5a9190613147565b811115611b5157611a6b8189611b69565b9150600082118015611a7d5750600b82105b15611adf57604051806080016040528082815260200183815260200160026000848152602001908152602001600020548152602001611abc8a84611edd565b8152508685600a8110611ad257611ad1613118565b5b6020020181905250611b30565b60405180608001604052808281526020018381526020016002600084815260200190815260200160002054815260200160008152508685600a8110611b2757611b26613118565b5b60200201819052505b8380611b3b906133a8565b9450508080611b49906136e7565b915050611a4e565b508495505050505050919050565b6000600554905090565b6000806000806001905060005b6001600088815260200190815260200160002080549050811015611ca757600160008881526020019081526020016000208181548110611bb957611bb8613118565b5b906000526020600020906003020160000160009054906101000a900473ffffffffffffffffffffffffffffffffffffffff1673ffffffffffffffffffffffffffffffffffffffff168673ffffffffffffffffffffffffffffffffffffffff1603611c5e57809350600160008881526020019081526020016000208181548110611c4557611c44613118565b5b9060005260206000209060030201600101549250611ca7565b6001600088815260200190815260200160002080549050600182611c8291906130e4565b03611c94576000945050505050611d31565b8080611c9f906133a8565b915050611b76565b5060005b6001600088815260200190815260200160002080549050811015611d2957600160008881526020019081526020016000208181548110611cee57611ced613118565b5b906000526020600020906003020160010154831115611d16578180611d12906133a8565b9250505b8080611d21906133a8565b915050611cab565b508093505050505b92915050565b611d3f612700565b80600760006101000a81548173ffffffffffffffffffffffffffffffffffffffff021916908373ffffffffffffffffffffffffffffffffffffffff16021790555050565b611d8b612700565b8060048190555050565b611d9d612700565b600073ffffffffffffffffffffffffffffffffffffffff168173ffffffffffffffffffffffffffffffffffffffff1603611e0c576040517f08c379a0000000000000000000000000000000000000000000000000000000008152600401611e03906138ec565b60405180910390fd5b611e15816127e0565b50565b6000806000905060006001600554611e309190613147565b90505b6000811115611ed35760011515600360008673ffffffffffffffffffffffffffffffffffffffff1673ffffffffffffffffffffffffffffffffffffffff168152602001908152602001600020600083815260200190815260200160002060000160029054906101000a900460ff1615150315611ed357611eb38482611edd565b82611ebe91906130e4565b91508080611ecb906136e7565b915050611e33565b5080915050919050565b600080611ee98361172a565b90506000816000600b8110611f0157611f00613118565b5b6020020151604001519050600080600190505b600b811015612010578381600b8110611f3057611f2f613118565b5b60200201516000015173ffffffffffffffffffffffffffffffffffffffff168773ffffffffffffffffffffffffffffffffffffffff1603611ffd57662386f26fc100006005826065611f829190613147565b611f8c91906132bb565b84620f42408785600b8110611fa457611fa3613118565b5b602002015160400151600c60008c815260200190815260200160002060010154611fce9190613306565b611fd89190613306565b611fe29190613377565b611fec9190613306565b611ff69190613377565b9150612010565b8080612008906133a8565b915050611f14565b5080935050505092915050565b600f60009054906101000a900473ffffffffffffffffffffffffffffffffffffffff1673ffffffffffffffffffffffffffffffffffffffff166370a08231336040518263ffffffff1660e01b81526004016120789190612d96565b602060405180830381865afa158015612095573d6000803e3d6000fd5b505050506040513d601f19601f820116820180604052508101906120b991906136ba565b8111156120fb576040517f08c379a00000000000000000000000000000000000000000000000000000000081526004016120f290613958565b60405180910390fd5b600f60009054906101000a900473ffffffffffffffffffffffffffffffffffffffff1673ffffffffffffffffffffffffffffffffffffffff1663dd62ed3e33306040518363ffffffff1660e01b8152600401612158929190613978565b602060405180830381865afa158015612175573d6000803e3d6000fd5b505050506040513d601f19601f8201168201806040525081019061219991906136ba565b8111156121db576040517f08c379a00000000000000000000000000000000000000000000000000000000081526004016121d2906139ed565b60405180910390fd5b600f60009054906101000a900473ffffffffffffffffffffffffffffffffffffffff1673ffffffffffffffffffffffffffffffffffffffff166323b872dd3330846040518463ffffffff1660e01b815260040161223a93929190613a0d565b6020604051808303816000875af1158015612259573d6000803e3d6000fd5b505050506040513d601f19601f8201168201806040525081019061227d919061357a565b50600f60009054906101000a900473ffffffffffffffffffffffffffffffffffffffff1673ffffffffffffffffffffffffffffffffffffffff1663095ea7b3601260009054906101000a900473ffffffffffffffffffffffffffffffffffffffff16836040518363ffffffff1660e01b81526004016122fd929190613525565b6020604051808303816000875af115801561231c573d6000803e3d6000fd5b505050506040513d601f19601f82011682018060405250810190612340919061357a565b50601260009054906101000a900473ffffffffffffffffffffffffffffffffffffffff1673ffffffffffffffffffffffffffffffffffffffff1663617ba037600f60009054906101000a900473ffffffffffffffffffffffffffffffffffffffff16833060006040518563ffffffff1660e01b81526004016123c59493929190613a97565b600060405180830381600087803b1580156123df57600080fd5b505af11580156123f3573d6000803e3d6000fd5b5050505080600860003373ffffffffffffffffffffffffffffffffffffffff1673ffffffffffffffffffffffffffffffffffffffff168152602001908152602001600020600082825461244691906130e4565b92505081905550806009600082825461245f91906130e4565b92505081905550601160009054906101000a900473ffffffffffffffffffffffffffffffffffffffff1673ffffffffffffffffffffffffffffffffffffffff166340c10f1933836040518363ffffffff1660e01b81526004016124c3929190613525565b600060405180830381600087803b1580156124dd57600080fd5b505af11580156124f1573d6000803e3d6000fd5b50505050600554600b60003373ffffffffffffffffffffffffffffffffffffffff1673ffffffffffffffffffffffffffffffffffffffff1681526020019081526020016000208190555050565b60001515600360003373ffffffffffffffffffffffffffffffffffffffff1673ffffffffffffffffffffffffffffffffffffffff1681526020019081526020016000206000600554815260200190815260200160002060000160009054906101000a900460ff161515146125e7576040517f08c379a00000000000000000000000000000000000000000000000000000000081526004016125de90613b28565b60405180910390fd5b60001515600360003373ffffffffffffffffffffffffffffffffffffffff1673ffffffffffffffffffffffffffffffffffffffff1681526020019081526020016000206000600554815260200190815260200160002060000160019054906101000a900460ff16151514612690576040517f08c379a00000000000000000000000000000000000000000000000000000000081526004016126879061385a565b60405180910390fd5b6001600360003373ffffffffffffffffffffffffffffffffffffffff1673ffffffffffffffffffffffffffffffffffffffff1681526020019081526020016000206000600554815260200190815260200160002060000160006101000a81548160ff021916908315150217905550565b612708612907565b73ffffffffffffffffffffffffffffffffffffffff166127266114b0565b73ffffffffffffffffffffffffffffffffffffffff161461277c576040517f08c379a000000000000000000000000000000000000000000000000000000000815260040161277390613b94565b60405180910390fd5b565b61278661290f565b60008060006101000a81548160ff0219169083151502179055507f5db9ee0a495bf2e6ff9c91a7834c1ba4fdd244a5e8aa4e537bd38aeae4b073aa6127c9612907565b6040516127d69190612d96565b60405180910390a1565b60008060019054906101000a900473ffffffffffffffffffffffffffffffffffffffff16905081600060016101000a81548173ffffffffffffffffffffffffffffffffffffffff021916908373ffffffffffffffffffffffffffffffffffffffff1602179055508173ffffffffffffffffffffffffffffffffffffffff168173ffffffffffffffffffffffffffffffffffffffff167f8be0079c531659141344cd1fd0a4f28419497f9722a3daafe3b4186f6b6457e060405160405180910390a35050565b6128ad612958565b60016000806101000a81548160ff0219169083151502179055507f62e78cea01bee320cd4e420270b5ea74000d11b0c9f74754ebdbfc544b05a2586128f0612907565b6040516128fd9190612d96565b60405180910390a1565b600033905090565b61291761109e565b612956576040517f08c379a000000000000000000000000000000000000000000000000000000000815260040161294d90613c00565b60405180910390fd5b565b61296061109e565b156129a0576040517f08c379a000000000000000000000000000000000000000000000000000000000815260040161299790613c6c565b60405180910390fd5b565b604051806101400160405280600a905b6129ba612a2c565b8152602001906001900390816129b25790505090565b604051806101600160405280600b905b6129e8612a6a565b8152602001906001900390816129e05790505090565b604051806101400160405280600a905b612a16612aa1565b815260200190600190039081612a0e5790505090565b60405180608001604052806000815260200160008152602001600073ffffffffffffffffffffffffffffffffffffffff168152602001600081525090565b6040518060600160405280600073ffffffffffffffffffffffffffffffffffffffff16815260200160008152602001600081525090565b6040518060800160405280600081526020016000815260200160008152602001600081525090565b6000819050919050565b612adc81612ac9565b82525050565b6000602082019050612af76000830184612ad3565b92915050565b600080fd5b612b0b81612ac9565b8114612b1657600080fd5b50565b600081359050612b2881612b02565b92915050565b600060208284031215612b4457612b43612afd565b5b6000612b5284828501612b19565b91505092915050565b6000600a9050919050565b600081905092915050565b6000819050919050565b612b8481612ac9565b82525050565b600073ffffffffffffffffffffffffffffffffffffffff82169050919050565b6000612bb582612b8a565b9050919050565b612bc581612baa565b82525050565b608082016000820151612be16000850182612b7b565b506020820151612bf46020850182612b7b565b506040820151612c076040850182612bbc565b506060820151612c1a6060850182612b7b565b50505050565b6000612c2c8383612bcb565b60808301905092915050565b6000602082019050919050565b612c4e81612b5b565b612c588184612b66565b9250612c6382612b71565b8060005b83811015612c94578151612c7b8782612c20565b9650612c8683612c38565b925050600181019050612c67565b505050505050565b600061050082019050612cb26000830184612c45565b92915050565b612cc181612baa565b8114612ccc57600080fd5b50565b600081359050612cde81612cb8565b92915050565b600060208284031215612cfa57612cf9612afd565b5b6000612d0884828501612ccf565b91505092915050565b60008115159050919050565b612d2681612d11565b82525050565b6000602082019050612d416000830184612d1d565b92915050565b60008060408385031215612d5e57612d5d612afd565b5b6000612d6c85828601612ccf565b9250506020612d7d85828601612b19565b9150509250929050565b612d9081612baa565b82525050565b6000602082019050612dab6000830184612d87565b92915050565b60008060408385031215612dc857612dc7612afd565b5b6000612dd685828601612b19565b9250506020612de785828601612b19565b9150509250929050565b6000600b9050919050565b600081905092915050565b6000819050919050565b606082016000820151612e276000850182612bbc565b506020820151612e3a6020850182612b7b565b506040820151612e4d6040850182612b7b565b50505050565b6000612e5f8383612e11565b60608301905092915050565b6000602082019050919050565b612e8181612df1565b612e8b8184612dfc565b9250612e9682612e07565b8060005b83811015612ec7578151612eae8782612e53565b9650612eb983612e6b565b925050600181019050612e9a565b505050505050565b600061042082019050612ee56000830184612e78565b92915050565b6000600a9050919050565b600081905092915050565b6000819050919050565b608082016000820151612f216000850182612b7b565b506020820151612f346020850182612b7b565b506040820151612f476040850182612b7b565b506060820151612f5a6060850182612b7b565b50505050565b6000612f6c8383612f0b565b60808301905092915050565b6000602082019050919050565b612f8e81612eeb565b612f988184612ef6565b9250612fa382612f01565b8060005b83811015612fd4578151612fbb8782612f60565b9650612fc683612f78565b925050600181019050612fa7565b505050505050565b600061050082019050612ff26000830184612f85565b92915050565b6000806040838503121561300f5761300e612afd565b5b600061301d85828601612b19565b925050602061302e85828601612ccf565b9150509250929050565b600082825260208201905092915050565b7f4e6f206465706f7369742c204e6f2047616d6521000000000000000000000000600082015250565b600061307f601483613038565b915061308a82613049565b602082019050919050565b600060208201905081810360008301526130ae81613072565b9050919050565b7f4e487b7100000000000000000000000000000000000000000000000000000000600052601160045260246000fd5b60006130ef82612ac9565b91506130fa83612ac9565b9250828201905080821115613112576131116130b5565b5b92915050565b7f4e487b7100000000000000000000000000000000000000000000000000000000600052603260045260246000fd5b600061315282612ac9565b915061315d83612ac9565b9250828203905081811115613175576131746130b5565b5b92915050565b60008160011c9050919050565b6000808291508390505b60018511156131d2578086048111156131ae576131ad6130b5565b5b60018516156131bd5780820291505b80810290506131cb8561317b565b9450613192565b94509492505050565b6000826131eb57600190506132a7565b816131f957600090506132a7565b816001811461320f576002811461321957613248565b60019150506132a7565b60ff84111561322b5761322a6130b5565b5b8360020a915084821115613242576132416130b5565b5b506132a7565b5060208310610133831016604e8410600b841016171561327d5782820a905083811115613278576132776130b5565b5b6132a7565b61328a8484846001613188565b925090508184048111156132a1576132a06130b5565b5b81810290505b9392505050565b600060ff82169050919050565b60006132c682612ac9565b91506132d1836132ae565b92506132fe7fffffffffffffffffffffffffffffffffffffffffffffffffffffffffffffffff84846131db565b905092915050565b600061331182612ac9565b915061331c83612ac9565b925082820261332a81612ac9565b91508282048414831517613341576133406130b5565b5b5092915050565b7f4e487b7100000000000000000000000000000000000000000000000000000000600052601260045260246000fd5b600061338282612ac9565b915061338d83612ac9565b92508261339d5761339c613348565b5b828204905092915050565b60006133b382612ac9565b91507fffffffffffffffffffffffffffffffffffffffffffffffffffffffffffffffff82036133e5576133e46130b5565b5b600182019050919050565b7f496e73756666696369656e742062616c616e6365000000000000000000000000600082015250565b6000613426601483613038565b9150613431826133f0565b602082019050919050565b6000602082019050818103600083015261345581613419565b9050919050565b7f506c656173652077616974203220636f6e746573747320616674657220796f7560008201527f72206465706f73697420746f2077697464726177000000000000000000000000602082015250565b60006134b8603483613038565b91506134c38261345c565b604082019050919050565b600060208201905081810360008301526134e7816134ab565b9050919050565b60006060820190506135036000830186612d87565b6135106020830185612ad3565b61351d6040830184612d87565b949350505050565b600060408201905061353a6000830185612d87565b6135476020830184612ad3565b9392505050565b61355781612d11565b811461356257600080fd5b50565b6000815190506135748161354e565b92915050565b6000602082840312156135905761358f612afd565b5b600061359e84828501613565565b91505092915050565b7f596f7520617265206e6f7420616c6c6f77656420746f2075706461746520636f60008201527f6e74657374210000000000000000000000000000000000000000000000000000602082015250565b6000613603602683613038565b915061360e826135a7565b604082019050919050565b60006020820190508181036000830152613632816135f6565b9050919050565b7f4e6f20636f6e7465737420757064617465210000000000000000000000000000600082015250565b600061366f601283613038565b915061367a82613639565b602082019050919050565b6000602082019050818103600083015261369e81613662565b9050919050565b6000815190506136b481612b02565b92915050565b6000602082840312156136d0576136cf612afd565b5b60006136de848285016136a5565b91505092915050565b60006136f282612ac9565b915060008203613705576137046130b5565b5b600182039050919050565b7f596f7520617265206e6f7420616c6c6f77656420746f2073617665206120736360008201527f6f72652100000000000000000000000000000000000000000000000000000000602082015250565b600061376c602483613038565b915061377782613710565b604082019050919050565b6000602082019050818103600083015261379b8161375f565b9050919050565b7f4e6f20726571756573742066726f6d20706c6179657200000000000000000000600082015250565b60006137d8601683613038565b91506137e3826137a2565b602082019050919050565b60006020820190508181036000830152613807816137cb565b9050919050565b7f506c6179657220616c726561647920706c617965640000000000000000000000600082015250565b6000613844601583613038565b915061384f8261380e565b602082019050919050565b6000602082019050818103600083015261387381613837565b9050919050565b7f4f776e61626c653a206e6577206f776e657220697320746865207a65726f206160008201527f6464726573730000000000000000000000000000000000000000000000000000602082015250565b60006138d6602683613038565b91506138e18261387a565b604082019050919050565b60006020820190508181036000830152613905816138c9565b9050919050565b7f496e737566666963656e7420616d6f756e74206f662055534443000000000000600082015250565b6000613942601a83613038565b915061394d8261390c565b602082019050919050565b6000602082019050818103600083015261397181613935565b9050919050565b600060408201905061398d6000830185612d87565b61399a6020830184612d87565b9392505050565b7f496e73756666696369656e7420616c6c6f776564205553444300000000000000600082015250565b60006139d7601983613038565b91506139e2826139a1565b602082019050919050565b60006020820190508181036000830152613a06816139ca565b9050919050565b6000606082019050613a226000830186612d87565b613a2f6020830185612d87565b613a3c6040830184612ad3565b949350505050565b6000819050919050565b600061ffff82169050919050565b6000819050919050565b6000613a81613a7c613a7784613a44565b613a5c565b613a4e565b9050919050565b613a9181613a66565b82525050565b6000608082019050613aac6000830187612d87565b613ab96020830186612ad3565b613ac66040830185612d87565b613ad36060830184613a88565b95945050505050565b7f596f7520616c7265616479207265717565737465640000000000000000000000600082015250565b6000613b12601583613038565b9150613b1d82613adc565b602082019050919050565b60006020820190508181036000830152613b4181613b05565b9050919050565b7f4f776e61626c653a2063616c6c6572206973206e6f7420746865206f776e6572600082015250565b6000613b7e602083613038565b9150613b8982613b48565b602082019050919050565b60006020820190508181036000830152613bad81613b71565b9050919050565b7f5061757361626c653a206e6f7420706175736564000000000000000000000000600082015250565b6000613bea601483613038565b9150613bf582613bb4565b602082019050919050565b60006020820190508181036000830152613c1981613bdd565b9050919050565b7f5061757361626c653a2070617573656400000000000000000000000000000000600082015250565b6000613c56601083613038565b9150613c6182613c20565b602082019050919050565b60006020820190508181036000830152613c8581613c49565b905091905056fea2646970667358221220240a0205e96c6d9588bde299e5f21d7ddcbc77e451c76055e04dcf531f5cf11d64736f6c63430008110033","opcodes":"PUSH1 0x80 PUSH1 0x40 MSTORE CALLVALUE DUP1 ISZERO PUSH3 0x11 JUMPI PUSH1 0x0 DUP1 REVERT JUMPDEST POP PUSH1 0x0 DUP1 PUSH1 0x0 PUSH2 0x100 EXP DUP2 SLOAD DUP2 PUSH1 0xFF MUL NOT AND SWAP1 DUP4 ISZERO ISZERO MUL OR SWAP1 SSTORE POP PUSH3 0x4C PUSH3 0x40 PUSH3 0x256 PUSH1 0x20 SHL PUSH1 0x20 SHR JUMP JUMPDEST PUSH3 0x25E PUSH1 0x20 SHL PUSH1 0x20 SHR JUMP JUMPDEST TIMESTAMP PUSH1 0x6 DUP2 SWAP1 SSTORE POP PUSH1 0x1 PUSH1 0x5 DUP2 SWAP1 SSTORE POP PUSH3 0x15180 PUSH1 0x4 DUP2 SWAP1 SSTORE POP PUSH2 0xDEAD PUSH1 0x7 PUSH1 0x0 PUSH2 0x100 EXP DUP2 SLOAD DUP2 PUSH20 0xFFFFFFFFFFFFFFFFFFFFFFFFFFFFFFFFFFFFFFFF MUL NOT AND SWAP1 DUP4 PUSH20 0xFFFFFFFFFFFFFFFFFFFFFFFFFFFFFFFFFFFFFFFF AND MUL OR SWAP1 SSTORE POP PUSH20 0xA2025B15A1757311BFD68CB14EAEFCC237AF5B43 PUSH1 0xF PUSH1 0x0 PUSH2 0x100 EXP DUP2 SLOAD DUP2 PUSH20 0xFFFFFFFFFFFFFFFFFFFFFFFFFFFFFFFFFFFFFFFF MUL NOT AND SWAP1 DUP4 PUSH20 0xFFFFFFFFFFFFFFFFFFFFFFFFFFFFFFFFFFFFFFFF AND MUL OR SWAP1 SSTORE POP PUSH20 0x368EEDF3F56AD10B9BC57EED4DAC65B26BB667F6 PUSH1 0x12 PUSH1 0x0 PUSH2 0x100 EXP DUP2 SLOAD DUP2 PUSH20 0xFFFFFFFFFFFFFFFFFFFFFFFFFFFFFFFFFFFFFFFF MUL NOT AND SWAP1 DUP4 PUSH20 0xFFFFFFFFFFFFFFFFFFFFFFFFFFFFFFFFFFFFFFFF AND MUL OR SWAP1 SSTORE POP PUSH20 0x1EE669290939F8A8864497AF3BC83728715265FF PUSH1 0x10 PUSH1 0x0 PUSH2 0x100 EXP DUP2 SLOAD DUP2 PUSH20 0xFFFFFFFFFFFFFFFFFFFFFFFFFFFFFFFFFFFFFFFF MUL NOT AND SWAP1 DUP4 PUSH20 0xFFFFFFFFFFFFFFFFFFFFFFFFFFFFFFFFFFFFFFFF AND MUL OR SWAP1 SSTORE POP PUSH20 0x8AD6D963600F5C45DABD5FF6FAA04D51A6D549F0 PUSH1 0x11 PUSH1 0x0 PUSH2 0x100 EXP DUP2 SLOAD DUP2 PUSH20 0xFFFFFFFFFFFFFFFFFFFFFFFFFFFFFFFFFFFFFFFF MUL NOT AND SWAP1 DUP4 PUSH20 0xFFFFFFFFFFFFFFFFFFFFFFFFFFFFFFFFFFFFFFFF AND MUL OR SWAP1 SSTORE POP PUSH1 0x0 PUSH1 0xC PUSH1 0x0 DUP1 DUP2 MSTORE PUSH1 0x20 ADD SWAP1 DUP2 MSTORE PUSH1 0x20 ADD PUSH1 0x0 KECCAK256 PUSH1 0x0 ADD DUP2 SWAP1 SSTORE POP PUSH1 0x0 PUSH1 0xC PUSH1 0x0 DUP1 DUP2 MSTORE PUSH1 0x20 ADD SWAP1 DUP2 MSTORE PUSH1 0x20 ADD PUSH1 0x0 KECCAK256 PUSH1 0x1 ADD DUP2 SWAP1 SSTORE POP PUSH1 0x0 PUSH1 0xC PUSH1 0x0 DUP1 DUP2 MSTORE PUSH1 0x20 ADD SWAP1 DUP2 MSTORE PUSH1 0x20 ADD PUSH1 0x0 KECCAK256 PUSH1 0x2 ADD DUP2 SWAP1 SSTORE POP PUSH3 0x323 JUMP JUMPDEST PUSH1 0x0 CALLER SWAP1 POP SWAP1 JUMP JUMPDEST PUSH1 0x0 DUP1 PUSH1 0x1 SWAP1 SLOAD SWAP1 PUSH2 0x100 EXP SWAP1 DIV PUSH20 0xFFFFFFFFFFFFFFFFFFFFFFFFFFFFFFFFFFFFFFFF AND SWAP1 POP DUP2 PUSH1 0x0 PUSH1 0x1 PUSH2 0x100 EXP DUP2 SLOAD DUP2 PUSH20 0xFFFFFFFFFFFFFFFFFFFFFFFFFFFFFFFFFFFFFFFF MUL NOT AND SWAP1 DUP4 PUSH20 0xFFFFFFFFFFFFFFFFFFFFFFFFFFFFFFFFFFFFFFFF AND MUL OR SWAP1 SSTORE POP DUP2 PUSH20 0xFFFFFFFFFFFFFFFFFFFFFFFFFFFFFFFFFFFFFFFF AND DUP2 PUSH20 0xFFFFFFFFFFFFFFFFFFFFFFFFFFFFFFFFFFFFFFFF AND PUSH32 0x8BE0079C531659141344CD1FD0A4F28419497F9722A3DAAFE3B4186F6B6457E0 PUSH1 0x40 MLOAD PUSH1 0x40 MLOAD DUP1 SWAP2 SUB SWAP1 LOG3 POP POP JUMP JUMPDEST PUSH2 0x3CC2 DUP1 PUSH3 0x333 PUSH1 0x0 CODECOPY PUSH1 0x0 RETURN INVALID PUSH1 0x80 PUSH1 0x40 MSTORE CALLVALUE DUP1 ISZERO PUSH2 0x10 JUMPI PUSH1 0x0 DUP1 REVERT JUMPDEST POP PUSH1 0x4 CALLDATASIZE LT PUSH2 0x1A9 JUMPI PUSH1 0x0 CALLDATALOAD PUSH1 0xE0 SHR DUP1 PUSH4 0x8DA5CB5B GT PUSH2 0xF9 JUMPI DUP1 PUSH4 0xCAD7EBCE GT PUSH2 0x97 JUMPI DUP1 PUSH4 0xF2FDE38B GT PUSH2 0x71 JUMPI DUP1 PUSH4 0xF2FDE38B EQ PUSH2 0x45C JUMPI DUP1 PUSH4 0xF6ED2017 EQ PUSH2 0x478 JUMPI DUP1 PUSH4 0xFD1DF603 EQ PUSH2 0x4A8 JUMPI DUP1 PUSH4 0xFD8D1909 EQ PUSH2 0x4D8 JUMPI PUSH2 0x1A9 JUMP JUMPDEST DUP1 PUSH4 0xCAD7EBCE EQ PUSH2 0x3F4 JUMPI DUP1 PUSH4 0xE064613E EQ PUSH2 0x424 JUMPI DUP1 PUSH4 0xF2FBEE3F EQ PUSH2 0x440 JUMPI PUSH2 0x1A9 JUMP JUMPDEST DUP1 PUSH4 0xB4ACE158 GT PUSH2 0xD3 JUMPI DUP1 PUSH4 0xB4ACE158 EQ PUSH2 0x358 JUMPI DUP1 PUSH4 0xB56BAE11 EQ PUSH2 0x376 JUMPI DUP1 PUSH4 0xBB2922E6 EQ PUSH2 0x3A6 JUMPI DUP1 PUSH4 0xC85785D6 EQ PUSH2 0x3D6 JUMPI PUSH2 0x1A9 JUMP JUMPDEST DUP1 PUSH4 0x8DA5CB5B EQ PUSH2 0x2DA JUMPI DUP1 PUSH4 0x95D7573C EQ PUSH2 0x2F8 JUMPI DUP1 PUSH4 0x9CFC8B8C EQ PUSH2 0x328 JUMPI PUSH2 0x1A9 JUMP JUMPDEST DUP1 PUSH4 0x4E499ACD GT PUSH2 0x166 JUMPI DUP1 PUSH4 0x695A6517 GT PUSH2 0x140 JUMPI DUP1 PUSH4 0x695A6517 EQ PUSH2 0x28E JUMPI DUP1 PUSH4 0x715018A6 EQ PUSH2 0x2AA JUMPI DUP1 PUSH4 0x8347F536 EQ PUSH2 0x2B4 JUMPI DUP1 PUSH4 0x8456CB59 EQ PUSH2 0x2D0 JUMPI PUSH2 0x1A9 JUMP JUMPDEST DUP1 PUSH4 0x4E499ACD EQ PUSH2 0x25C JUMPI DUP1 PUSH4 0x4E71D92D EQ PUSH2 0x266 JUMPI DUP1 PUSH4 0x5C975ABB EQ PUSH2 0x270 JUMPI PUSH2 0x1A9 JUMP JUMPDEST DUP1 PUSH4 0xBD5D284 EQ PUSH2 0x1AE JUMPI DUP1 PUSH4 0x12B946BC EQ PUSH2 0x1B8 JUMPI DUP1 PUSH4 0x2452A7E3 EQ PUSH2 0x1D6 JUMPI DUP1 PUSH4 0x2E1A7D4D EQ PUSH2 0x206 JUMPI DUP1 PUSH4 0x3F4BA83A EQ PUSH2 0x222 JUMPI DUP1 PUSH4 0x47734892 EQ PUSH2 0x22C JUMPI JUMPDEST PUSH1 0x0 DUP1 REVERT JUMPDEST PUSH2 0x1B6 PUSH2 0x4F4 JUMP JUMPDEST STOP JUMPDEST PUSH2 0x1C0 PUSH2 0x580 JUMP JUMPDEST PUSH1 0x40 MLOAD PUSH2 0x1CD SWAP2 SWAP1 PUSH2 0x2AE2 JUMP JUMPDEST PUSH1 0x40 MLOAD DUP1 SWAP2 SUB SWAP1 RETURN JUMPDEST PUSH2 0x1F0 PUSH1 0x4 DUP1 CALLDATASIZE SUB DUP2 ADD SWAP1 PUSH2 0x1EB SWAP2 SWAP1 PUSH2 0x2B2E JUMP JUMPDEST PUSH2 0x59C JUMP JUMPDEST PUSH1 0x40 MLOAD PUSH2 0x1FD SWAP2 SWAP1 PUSH2 0x2C9C JUMP JUMPDEST PUSH1 0x40 MLOAD DUP1 SWAP2 SUB SWAP1 RETURN JUMPDEST PUSH2 0x220 PUSH1 0x4 DUP1 CALLDATASIZE SUB DUP2 ADD SWAP1 PUSH2 0x21B SWAP2 SWAP1 PUSH2 0x2B2E JUMP JUMPDEST PUSH2 0x789 JUMP JUMPDEST STOP JUMPDEST PUSH2 0x22A PUSH2 0xAF0 JUMP JUMPDEST STOP JUMPDEST PUSH2 0x246 PUSH1 0x4 DUP1 CALLDATASIZE SUB DUP2 ADD SWAP1 PUSH2 0x241 SWAP2 SWAP1 PUSH2 0x2CE4 JUMP JUMPDEST PUSH2 0xB02 JUMP JUMPDEST PUSH1 0x40 MLOAD PUSH2 0x253 SWAP2 SWAP1 PUSH2 0x2AE2 JUMP JUMPDEST PUSH1 0x40 MLOAD DUP1 SWAP2 SUB SWAP1 RETURN JUMPDEST PUSH2 0x264 PUSH2 0xB4B JUMP JUMPDEST STOP JUMPDEST PUSH2 0x26E PUSH2 0xE05 JUMP JUMPDEST STOP JUMPDEST PUSH2 0x278 PUSH2 0x109E JUMP JUMPDEST PUSH1 0x40 MLOAD PUSH2 0x285 SWAP2 SWAP1 PUSH2 0x2D2C JUMP JUMPDEST PUSH1 0x40 MLOAD DUP1 SWAP2 SUB SWAP1 RETURN JUMPDEST PUSH2 0x2A8 PUSH1 0x4 DUP1 CALLDATASIZE SUB DUP2 ADD SWAP1 PUSH2 0x2A3 SWAP2 SWAP1 PUSH2 0x2D47 JUMP JUMPDEST PUSH2 0x10B4 JUMP JUMPDEST STOP JUMPDEST PUSH2 0x2B2 PUSH2 0x143E JUMP JUMPDEST STOP JUMPDEST PUSH2 0x2CE PUSH1 0x4 DUP1 CALLDATASIZE SUB DUP2 ADD SWAP1 PUSH2 0x2C9 SWAP2 SWAP1 PUSH2 0x2CE4 JUMP JUMPDEST PUSH2 0x1452 JUMP JUMPDEST STOP JUMPDEST PUSH2 0x2D8 PUSH2 0x149E JUMP JUMPDEST STOP JUMPDEST PUSH2 0x2E2 PUSH2 0x14B0 JUMP JUMPDEST PUSH1 0x40 MLOAD PUSH2 0x2EF SWAP2 SWAP1 PUSH2 0x2D96 JUMP JUMPDEST PUSH1 0x40 MLOAD DUP1 SWAP2 SUB SWAP1 RETURN JUMPDEST PUSH2 0x312 PUSH1 0x4 DUP1 CALLDATASIZE SUB DUP2 ADD SWAP1 PUSH2 0x30D SWAP2 SWAP1 PUSH2 0x2DB1 JUMP JUMPDEST PUSH2 0x14D9 JUMP JUMPDEST PUSH1 0x40 MLOAD PUSH2 0x31F SWAP2 SWAP1 PUSH2 0x2AE2 JUMP JUMPDEST PUSH1 0x40 MLOAD DUP1 SWAP2 SUB SWAP1 RETURN JUMPDEST PUSH2 0x342 PUSH1 0x4 DUP1 CALLDATASIZE SUB DUP2 ADD SWAP1 PUSH2 0x33D SWAP2 SWAP1 PUSH2 0x2CE4 JUMP JUMPDEST PUSH2 0x15BB JUMP JUMPDEST PUSH1 0x40 MLOAD PUSH2 0x34F SWAP2 SWAP1 PUSH2 0x2AE2 JUMP JUMPDEST PUSH1 0x40 MLOAD DUP1 SWAP2 SUB SWAP1 RETURN JUMPDEST PUSH2 0x360 PUSH2 0x1604 JUMP JUMPDEST PUSH1 0x40 MLOAD PUSH2 0x36D SWAP2 SWAP1 PUSH2 0x2AE2 JUMP JUMPDEST PUSH1 0x40 MLOAD DUP1 SWAP2 SUB SWAP1 RETURN JUMPDEST PUSH2 0x390 PUSH1 0x4 DUP1 CALLDATASIZE SUB DUP2 ADD SWAP1 PUSH2 0x38B SWAP2 SWAP1 PUSH2 0x2B2E JUMP JUMPDEST PUSH2 0x172A JUMP JUMPDEST PUSH1 0x40 MLOAD PUSH2 0x39D SWAP2 SWAP1 PUSH2 0x2ECF JUMP JUMPDEST PUSH1 0x40 MLOAD DUP1 SWAP2 SUB SWAP1 RETURN JUMPDEST PUSH2 0x3C0 PUSH1 0x4 DUP1 CALLDATASIZE SUB DUP2 ADD SWAP1 PUSH2 0x3BB SWAP2 SWAP1 PUSH2 0x2CE4 JUMP JUMPDEST PUSH2 0x1A06 JUMP JUMPDEST PUSH1 0x40 MLOAD PUSH2 0x3CD SWAP2 SWAP1 PUSH2 0x2FDC JUMP JUMPDEST PUSH1 0x40 MLOAD DUP1 SWAP2 SUB SWAP1 RETURN JUMPDEST PUSH2 0x3DE PUSH2 0x1B5F JUMP JUMPDEST PUSH1 0x40 MLOAD PUSH2 0x3EB SWAP2 SWAP1 PUSH2 0x2AE2 JUMP JUMPDEST PUSH1 0x40 MLOAD DUP1 SWAP2 SUB SWAP1 RETURN JUMPDEST PUSH2 0x40E PUSH1 0x4 DUP1 CALLDATASIZE SUB DUP2 ADD SWAP1 PUSH2 0x409 SWAP2 SWAP1 PUSH2 0x2FF8 JUMP JUMPDEST PUSH2 0x1B69 JUMP JUMPDEST PUSH1 0x40 MLOAD PUSH2 0x41B SWAP2 SWAP1 PUSH2 0x2AE2 JUMP JUMPDEST PUSH1 0x40 MLOAD DUP1 SWAP2 SUB SWAP1 RETURN JUMPDEST PUSH2 0x43E PUSH1 0x4 DUP1 CALLDATASIZE SUB DUP2 ADD SWAP1 PUSH2 0x439 SWAP2 SWAP1 PUSH2 0x2CE4 JUMP JUMPDEST PUSH2 0x1D37 JUMP JUMPDEST STOP JUMPDEST PUSH2 0x45A PUSH1 0x4 DUP1 CALLDATASIZE SUB DUP2 ADD SWAP1 PUSH2 0x455 SWAP2 SWAP1 PUSH2 0x2B2E JUMP JUMPDEST PUSH2 0x1D83 JUMP JUMPDEST STOP JUMPDEST PUSH2 0x476 PUSH1 0x4 DUP1 CALLDATASIZE SUB DUP2 ADD SWAP1 PUSH2 0x471 SWAP2 SWAP1 PUSH2 0x2CE4 JUMP JUMPDEST PUSH2 0x1D95 JUMP JUMPDEST STOP JUMPDEST PUSH2 0x492 PUSH1 0x4 DUP1 CALLDATASIZE SUB DUP2 ADD SWAP1 PUSH2 0x48D SWAP2 SWAP1 PUSH2 0x2CE4 JUMP JUMPDEST PUSH2 0x1E18 JUMP JUMPDEST PUSH1 0x40 MLOAD PUSH2 0x49F SWAP2 SWAP1 PUSH2 0x2AE2 JUMP JUMPDEST PUSH1 0x40 MLOAD DUP1 SWAP2 SUB SWAP1 RETURN JUMPDEST PUSH2 0x4C2 PUSH1 0x4 DUP1 CALLDATASIZE SUB DUP2 ADD SWAP1 PUSH2 0x4BD SWAP2 SWAP1 PUSH2 0x2D47 JUMP JUMPDEST PUSH2 0x1EDD JUMP JUMPDEST PUSH1 0x40 MLOAD PUSH2 0x4CF SWAP2 SWAP1 PUSH2 0x2AE2 JUMP JUMPDEST PUSH1 0x40 MLOAD DUP1 SWAP2 SUB SWAP1 RETURN JUMPDEST PUSH2 0x4F2 PUSH1 0x4 DUP1 CALLDATASIZE SUB DUP2 ADD SWAP1 PUSH2 0x4ED SWAP2 SWAP1 PUSH2 0x2B2E JUMP JUMPDEST PUSH2 0x201D JUMP JUMPDEST STOP JUMPDEST PUSH1 0x0 PUSH1 0x8 PUSH1 0x0 CALLER PUSH20 0xFFFFFFFFFFFFFFFFFFFFFFFFFFFFFFFFFFFFFFFF AND PUSH20 0xFFFFFFFFFFFFFFFFFFFFFFFFFFFFFFFFFFFFFFFF AND DUP2 MSTORE PUSH1 0x20 ADD SWAP1 DUP2 MSTORE PUSH1 0x20 ADD PUSH1 0x0 KECCAK256 SLOAD GT PUSH2 0x576 JUMPI PUSH1 0x40 MLOAD PUSH32 0x8C379A000000000000000000000000000000000000000000000000000000000 DUP2 MSTORE PUSH1 0x4 ADD PUSH2 0x56D SWAP1 PUSH2 0x3095 JUMP JUMPDEST PUSH1 0x40 MLOAD DUP1 SWAP2 SUB SWAP1 REVERT JUMPDEST PUSH2 0x57E PUSH2 0x253E JUMP JUMPDEST JUMP JUMPDEST PUSH1 0x0 DUP1 PUSH1 0x4 SLOAD PUSH1 0x6 SLOAD PUSH2 0x593 SWAP2 SWAP1 PUSH2 0x30E4 JUMP JUMPDEST SWAP1 POP DUP1 SWAP2 POP POP SWAP1 JUMP JUMPDEST PUSH2 0x5A4 PUSH2 0x29A2 JUMP JUMPDEST PUSH2 0x5AC PUSH2 0x29A2 JUMP JUMPDEST PUSH1 0x0 PUSH2 0x5B7 DUP5 PUSH2 0x172A JUMP JUMPDEST SWAP1 POP PUSH1 0x0 DUP2 PUSH1 0x0 PUSH1 0xB DUP2 LT PUSH2 0x5CF JUMPI PUSH2 0x5CE PUSH2 0x3118 JUMP JUMPDEST JUMPDEST PUSH1 0x20 MUL ADD MLOAD PUSH1 0x40 ADD MLOAD SWAP1 POP PUSH1 0x0 JUMPDEST PUSH1 0xA DUP2 LT ISZERO PUSH2 0x77D JUMPI PUSH1 0x0 PUSH1 0x1 DUP3 PUSH2 0x5F5 SWAP2 SWAP1 PUSH2 0x30E4 JUMP JUMPDEST SWAP1 POP DUP1 DUP6 DUP4 PUSH1 0xA DUP2 LT PUSH2 0x60B JUMPI PUSH2 0x60A PUSH2 0x3118 JUMP JUMPDEST JUMPDEST PUSH1 0x20 MUL ADD MLOAD PUSH1 0x0 ADD DUP2 DUP2 MSTORE POP POP DUP4 DUP2 PUSH1 0xB DUP2 LT PUSH2 0x62B JUMPI PUSH2 0x62A PUSH2 0x3118 JUMP JUMPDEST JUMPDEST PUSH1 0x20 MUL ADD MLOAD PUSH1 0x20 ADD MLOAD DUP6 DUP4 PUSH1 0xA DUP2 LT PUSH2 0x647 JUMPI PUSH2 0x646 PUSH2 0x3118 JUMP JUMPDEST JUMPDEST PUSH1 0x20 MUL ADD MLOAD PUSH1 0x20 ADD DUP2 DUP2 MSTORE POP POP DUP4 DUP2 PUSH1 0xB DUP2 LT PUSH2 0x667 JUMPI PUSH2 0x666 PUSH2 0x3118 JUMP JUMPDEST JUMPDEST PUSH1 0x20 MUL ADD MLOAD PUSH1 0x0 ADD MLOAD DUP6 DUP4 PUSH1 0xA DUP2 LT PUSH2 0x683 JUMPI PUSH2 0x682 PUSH2 0x3118 JUMP JUMPDEST JUMPDEST PUSH1 0x20 MUL ADD MLOAD PUSH1 0x40 ADD SWAP1 PUSH20 0xFFFFFFFFFFFFFFFFFFFFFFFFFFFFFFFFFFFFFFFF AND SWAP1 DUP2 PUSH20 0xFFFFFFFFFFFFFFFFFFFFFFFFFFFFFFFFFFFFFFFF AND DUP2 MSTORE POP POP PUSH7 0x2386F26FC10000 PUSH1 0x5 DUP3 PUSH1 0x65 PUSH2 0x6D5 SWAP2 SWAP1 PUSH2 0x3147 JUMP JUMPDEST PUSH2 0x6DF SWAP2 SWAP1 PUSH2 0x32BB JUMP JUMPDEST DUP5 PUSH3 0xF4240 DUP8 DUP6 PUSH1 0xB DUP2 LT PUSH2 0x6F7 JUMPI PUSH2 0x6F6 PUSH2 0x3118 JUMP JUMPDEST JUMPDEST PUSH1 0x20 MUL ADD MLOAD PUSH1 0x40 ADD MLOAD PUSH1 0xC PUSH1 0x0 DUP14 DUP2 MSTORE PUSH1 0x20 ADD SWAP1 DUP2 MSTORE PUSH1 0x20 ADD PUSH1 0x0 KECCAK256 PUSH1 0x1 ADD SLOAD PUSH2 0x721 SWAP2 SWAP1 PUSH2 0x3306 JUMP JUMPDEST PUSH2 0x72B SWAP2 SWAP1 PUSH2 0x3306 JUMP JUMPDEST PUSH2 0x735 SWAP2 SWAP1 PUSH2 0x3377 JUMP JUMPDEST PUSH2 0x73F SWAP2 SWAP1 PUSH2 0x3306 JUMP JUMPDEST PUSH2 0x749 SWAP2 SWAP1 PUSH2 0x3377 JUMP JUMPDEST DUP6 DUP4 PUSH1 0xA DUP2 LT PUSH2 0x75C JUMPI PUSH2 0x75B PUSH2 0x3118 JUMP JUMPDEST JUMPDEST PUSH1 0x20 MUL ADD MLOAD PUSH1 0x60 ADD DUP2 DUP2 MSTORE POP POP POP DUP1 DUP1 PUSH2 0x775 SWAP1 PUSH2 0x33A8 JUMP JUMPDEST SWAP2 POP POP PUSH2 0x5DD JUMP JUMPDEST POP DUP3 SWAP4 POP POP POP POP SWAP2 SWAP1 POP JUMP JUMPDEST DUP1 PUSH1 0x8 PUSH1 0x0 CALLER PUSH20 0xFFFFFFFFFFFFFFFFFFFFFFFFFFFFFFFFFFFFFFFF AND PUSH20 0xFFFFFFFFFFFFFFFFFFFFFFFFFFFFFFFFFFFFFFFF AND DUP2 MSTORE PUSH1 0x20 ADD SWAP1 DUP2 MSTORE PUSH1 0x20 ADD PUSH1 0x0 KECCAK256 SLOAD LT ISZERO PUSH2 0x80B JUMPI PUSH1 0x40 MLOAD PUSH32 0x8C379A000000000000000000000000000000000000000000000000000000000 DUP2 MSTORE PUSH1 0x4 ADD PUSH2 0x802 SWAP1 PUSH2 0x343C JUMP JUMPDEST PUSH1 0x40 MLOAD DUP1 SWAP2 SUB SWAP1 REVERT JUMPDEST PUSH1 0x5 SLOAD PUSH1 0x2 PUSH1 0xB PUSH1 0x0 CALLER PUSH20 0xFFFFFFFFFFFFFFFFFFFFFFFFFFFFFFFFFFFFFFFF AND PUSH20 0xFFFFFFFFFFFFFFFFFFFFFFFFFFFFFFFFFFFFFFFF AND DUP2 MSTORE PUSH1 0x20 ADD SWAP1 DUP2 MSTORE PUSH1 0x20 ADD PUSH1 0x0 KECCAK256 SLOAD PUSH2 0x85A SWAP2 SWAP1 PUSH2 0x30E4 JUMP JUMPDEST GT ISZERO PUSH2 0x89B JUMPI PUSH1 0x40 MLOAD PUSH32 0x8C379A000000000000000000000000000000000000000000000000000000000 DUP2 MSTORE PUSH1 0x4 ADD PUSH2 0x892 SWAP1 PUSH2 0x34CE JUMP JUMPDEST PUSH1 0x40 MLOAD DUP1 SWAP2 SUB SWAP1 REVERT JUMPDEST PUSH1 0x12 PUSH1 0x0 SWAP1 SLOAD SWAP1 PUSH2 0x100 EXP SWAP1 DIV PUSH20 0xFFFFFFFFFFFFFFFFFFFFFFFFFFFFFFFFFFFFFFFF AND PUSH20 0xFFFFFFFFFFFFFFFFFFFFFFFFFFFFFFFFFFFFFFFF AND PUSH4 0x69328DEC PUSH1 0xF PUSH1 0x0 SWAP1 SLOAD SWAP1 PUSH2 0x100 EXP SWAP1 DIV PUSH20 0xFFFFFFFFFFFFFFFFFFFFFFFFFFFFFFFFFFFFFFFF AND DUP4 ADDRESS PUSH1 0x40 MLOAD DUP5 PUSH4 0xFFFFFFFF AND PUSH1 0xE0 SHL DUP2 MSTORE PUSH1 0x4 ADD PUSH2 0x91C SWAP4 SWAP3 SWAP2 SWAP1 PUSH2 0x34EE JUMP JUMPDEST PUSH1 0x0 PUSH1 0x40 MLOAD DUP1 DUP4 SUB DUP2 PUSH1 0x0 DUP8 DUP1 EXTCODESIZE ISZERO DUP1 ISZERO PUSH2 0x936 JUMPI PUSH1 0x0 DUP1 REVERT JUMPDEST POP GAS CALL ISZERO DUP1 ISZERO PUSH2 0x94A JUMPI RETURNDATASIZE PUSH1 0x0 DUP1 RETURNDATACOPY RETURNDATASIZE PUSH1 0x0 REVERT JUMPDEST POP POP POP POP PUSH1 0xF PUSH1 0x0 SWAP1 SLOAD SWAP1 PUSH2 0x100 EXP SWAP1 DIV PUSH20 0xFFFFFFFFFFFFFFFFFFFFFFFFFFFFFFFFFFFFFFFF AND PUSH20 0xFFFFFFFFFFFFFFFFFFFFFFFFFFFFFFFFFFFFFFFF AND PUSH4 0xA9059CBB CALLER DUP4 PUSH1 0x40 MLOAD DUP4 PUSH4 0xFFFFFFFF AND PUSH1 0xE0 SHL DUP2 MSTORE PUSH1 0x4 ADD PUSH2 0x9AB SWAP3 SWAP2 SWAP1 PUSH2 0x3525 JUMP JUMPDEST PUSH1 0x20 PUSH1 0x40 MLOAD DUP1 DUP4 SUB DUP2 PUSH1 0x0 DUP8 GAS CALL ISZERO DUP1 ISZERO PUSH2 0x9CA JUMPI RETURNDATASIZE PUSH1 0x0 DUP1 RETURNDATACOPY RETURNDATASIZE PUSH1 0x0 REVERT JUMPDEST POP POP POP POP PUSH1 0x40 MLOAD RETURNDATASIZE PUSH1 0x1F NOT PUSH1 0x1F DUP3 ADD AND DUP3 ADD DUP1 PUSH1 0x40 MSTORE POP DUP2 ADD SWAP1 PUSH2 0x9EE SWAP2 SWAP1 PUSH2 0x357A JUMP JUMPDEST POP DUP1 PUSH1 0x8 PUSH1 0x0 CALLER PUSH20 0xFFFFFFFFFFFFFFFFFFFFFFFFFFFFFFFFFFFFFFFF AND PUSH20 0xFFFFFFFFFFFFFFFFFFFFFFFFFFFFFFFFFFFFFFFF AND DUP2 MSTORE PUSH1 0x20 ADD SWAP1 DUP2 MSTORE PUSH1 0x20 ADD PUSH1 0x0 KECCAK256 PUSH1 0x0 DUP3 DUP3 SLOAD PUSH2 0xA3E SWAP2 SWAP1 PUSH2 0x3147 JUMP JUMPDEST SWAP3 POP POP DUP2 SWAP1 SSTORE POP DUP1 PUSH1 0xA PUSH1 0x0 DUP3 DUP3 SLOAD PUSH2 0xA57 SWAP2 SWAP1 PUSH2 0x30E4 JUMP JUMPDEST SWAP3 POP POP DUP2 SWAP1 SSTORE POP PUSH1 0x11 PUSH1 0x0 SWAP1 SLOAD SWAP1 PUSH2 0x100 EXP SWAP1 DIV PUSH20 0xFFFFFFFFFFFFFFFFFFFFFFFFFFFFFFFFFFFFFFFF AND PUSH20 0xFFFFFFFFFFFFFFFFFFFFFFFFFFFFFFFFFFFFFFFF AND PUSH4 0x9DC29FAC CALLER DUP4 PUSH1 0x40 MLOAD DUP4 PUSH4 0xFFFFFFFF AND PUSH1 0xE0 SHL DUP2 MSTORE PUSH1 0x4 ADD PUSH2 0xABB SWAP3 SWAP2 SWAP1 PUSH2 0x3525 JUMP JUMPDEST PUSH1 0x0 PUSH1 0x40 MLOAD DUP1 DUP4 SUB DUP2 PUSH1 0x0 DUP8 DUP1 EXTCODESIZE ISZERO DUP1 ISZERO PUSH2 0xAD5 JUMPI PUSH1 0x0 DUP1 REVERT JUMPDEST POP GAS CALL ISZERO DUP1 ISZERO PUSH2 0xAE9 JUMPI RETURNDATASIZE PUSH1 0x0 DUP1 RETURNDATACOPY RETURNDATASIZE PUSH1 0x0 REVERT JUMPDEST POP POP POP POP POP JUMP JUMPDEST PUSH2 0xAF8 PUSH2 0x2700 JUMP JUMPDEST PUSH2 0xB00 PUSH2 0x277E JUMP JUMPDEST JUMP JUMPDEST PUSH1 0x0 PUSH1 0x8 PUSH1 0x0 DUP4 PUSH20 0xFFFFFFFFFFFFFFFFFFFFFFFFFFFFFFFFFFFFFFFF AND PUSH20 0xFFFFFFFFFFFFFFFFFFFFFFFFFFFFFFFFFFFFFFFF AND DUP2 MSTORE PUSH1 0x20 ADD SWAP1 DUP2 MSTORE PUSH1 0x20 ADD PUSH1 0x0 KECCAK256 SLOAD SWAP1 POP SWAP2 SWAP1 POP JUMP JUMPDEST PUSH1 0x7 PUSH1 0x0 SWAP1 SLOAD SWAP1 PUSH2 0x100 EXP SWAP1 DIV PUSH20 0xFFFFFFFFFFFFFFFFFFFFFFFFFFFFFFFFFFFFFFFF AND PUSH20 0xFFFFFFFFFFFFFFFFFFFFFFFFFFFFFFFFFFFFFFFF AND CALLER PUSH20 0xFFFFFFFFFFFFFFFFFFFFFFFFFFFFFFFFFFFFFFFF AND EQ PUSH2 0xBDB JUMPI PUSH1 0x40 MLOAD PUSH32 0x8C379A000000000000000000000000000000000000000000000000000000000 DUP2 MSTORE PUSH1 0x4 ADD PUSH2 0xBD2 SWAP1 PUSH2 0x3619 JUMP JUMPDEST PUSH1 0x40 MLOAD DUP1 SWAP2 SUB SWAP1 REVERT JUMPDEST PUSH1 0x4 SLOAD PUSH1 0x6 SLOAD PUSH2 0xBEB SWAP2 SWAP1 PUSH2 0x30E4 JUMP JUMPDEST TIMESTAMP LT ISZERO PUSH2 0xC2D JUMPI PUSH1 0x40 MLOAD PUSH32 0x8C379A000000000000000000000000000000000000000000000000000000000 DUP2 MSTORE PUSH1 0x4 ADD PUSH2 0xC24 SWAP1 PUSH2 0x3685 JUMP JUMPDEST PUSH1 0x40 MLOAD DUP1 SWAP2 SUB SWAP1 REVERT JUMPDEST TIMESTAMP PUSH1 0x6 DUP2 SWAP1 SSTORE POP PUSH1 0x0 PUSH1 0xC PUSH1 0x0 PUSH1 0x1 PUSH1 0x5 SLOAD PUSH2 0xC49 SWAP2 SWAP1 PUSH2 0x3147 JUMP JUMPDEST DUP2 MSTORE PUSH1 0x20 ADD SWAP1 DUP2 MSTORE PUSH1 0x20 ADD PUSH1 0x0 KECCAK256 PUSH1 0x2 ADD SLOAD PUSH1 0xA SLOAD PUSH1 0x9 SLOAD PUSH1 0xC PUSH1 0x0 PUSH1 0x1 PUSH1 0x5 SLOAD PUSH2 0xC74 SWAP2 SWAP1 PUSH2 0x3147 JUMP JUMPDEST DUP2 MSTORE PUSH1 0x20 ADD SWAP1 DUP2 MSTORE PUSH1 0x20 ADD PUSH1 0x0 KECCAK256 PUSH1 0x0 ADD SLOAD PUSH2 0xC90 SWAP2 SWAP1 PUSH2 0x30E4 JUMP JUMPDEST PUSH2 0xC9A SWAP2 SWAP1 PUSH2 0x3147 JUMP JUMPDEST PUSH2 0xCA4 SWAP2 SWAP1 PUSH2 0x30E4 JUMP JUMPDEST SWAP1 POP PUSH1 0x0 PUSH1 0x10 PUSH1 0x0 SWAP1 SLOAD SWAP1 PUSH2 0x100 EXP SWAP1 DIV PUSH20 0xFFFFFFFFFFFFFFFFFFFFFFFFFFFFFFFFFFFFFFFF AND PUSH20 0xFFFFFFFFFFFFFFFFFFFFFFFFFFFFFFFFFFFFFFFF AND PUSH4 0x70A08231 ADDRESS PUSH1 0x40 MLOAD DUP3 PUSH4 0xFFFFFFFF AND PUSH1 0xE0 SHL DUP2 MSTORE PUSH1 0x4 ADD PUSH2 0xD03 SWAP2 SWAP1 PUSH2 0x2D96 JUMP JUMPDEST PUSH1 0x20 PUSH1 0x40 MLOAD DUP1 DUP4 SUB DUP2 DUP7 GAS STATICCALL ISZERO DUP1 ISZERO PUSH2 0xD20 JUMPI RETURNDATASIZE PUSH1 0x0 DUP1 RETURNDATACOPY RETURNDATASIZE PUSH1 0x0 REVERT JUMPDEST POP POP POP POP PUSH1 0x40 MLOAD RETURNDATASIZE PUSH1 0x1F NOT PUSH1 0x1F DUP3 ADD AND DUP3 ADD DUP1 PUSH1 0x40 MSTORE POP DUP2 ADD SWAP1 PUSH2 0xD44 SWAP2 SWAP1 PUSH2 0x36BA JUMP JUMPDEST SWAP1 POP PUSH1 0x0 DUP3 DUP3 PUSH2 0xD54 SWAP2 SWAP1 PUSH2 0x3147 JUMP JUMPDEST SWAP1 POP PUSH1 0x0 PUSH2 0xD64 PUSH1 0x5 SLOAD DUP4 PUSH2 0x14D9 JUMP JUMPDEST SWAP1 POP DUP4 PUSH1 0xC PUSH1 0x0 PUSH1 0x5 SLOAD DUP2 MSTORE PUSH1 0x20 ADD SWAP1 DUP2 MSTORE PUSH1 0x20 ADD PUSH1 0x0 KECCAK256 PUSH1 0x0 ADD DUP2 SWAP1 SSTORE POP DUP2 PUSH1 0xC PUSH1 0x0 PUSH1 0x5 SLOAD DUP2 MSTORE PUSH1 0x20 ADD SWAP1 DUP2 MSTORE PUSH1 0x20 ADD PUSH1 0x0 KECCAK256 PUSH1 0x1 ADD DUP2 SWAP1 SSTORE POP DUP1 PUSH1 0xC PUSH1 0x0 PUSH1 0x5 SLOAD DUP2 MSTORE PUSH1 0x20 ADD SWAP1 DUP2 MSTORE PUSH1 0x20 ADD PUSH1 0x0 KECCAK256 PUSH1 0x2 ADD DUP2 SWAP1 SSTORE POP DUP1 PUSH1 0xD PUSH1 0x0 PUSH1 0x5 SLOAD DUP2 MSTORE PUSH1 0x20 ADD SWAP1 DUP2 MSTORE PUSH1 0x20 ADD PUSH1 0x0 KECCAK256 DUP2 SWAP1 SSTORE POP PUSH1 0x0 PUSH1 0x9 DUP2 SWAP1 SSTORE POP PUSH1 0x0 PUSH1 0xA DUP2 SWAP1 SSTORE POP PUSH1 0x5 PUSH1 0x0 DUP2 SLOAD DUP1 SWAP3 SWAP2 SWAP1 PUSH2 0xDFA SWAP1 PUSH2 0x33A8 JUMP JUMPDEST SWAP2 SWAP1 POP SSTORE POP POP POP POP POP JUMP JUMPDEST PUSH1 0x0 DUP1 DUP1 PUSH1 0x1 PUSH1 0x5 SLOAD PUSH2 0xE18 SWAP2 SWAP1 PUSH2 0x3147 JUMP JUMPDEST SWAP1 POP JUMPDEST PUSH1 0x0 DUP2 GT ISZERO PUSH2 0xF54 JUMPI PUSH1 0x1 ISZERO ISZERO PUSH1 0x3 PUSH1 0x0 CALLER PUSH20 0xFFFFFFFFFFFFFFFFFFFFFFFFFFFFFFFFFFFFFFFF AND PUSH20 0xFFFFFFFFFFFFFFFFFFFFFFFFFFFFFFFFFFFFFFFF AND DUP2 MSTORE PUSH1 0x20 ADD SWAP1 DUP2 MSTORE PUSH1 0x20 ADD PUSH1 0x0 KECCAK256 PUSH1 0x0 DUP4 DUP2 MSTORE PUSH1 0x20 ADD SWAP1 DUP2 MSTORE PUSH1 0x20 ADD PUSH1 0x0 KECCAK256 PUSH1 0x0 ADD PUSH1 0x2 SWAP1 SLOAD SWAP1 PUSH2 0x100 EXP SWAP1 DIV PUSH1 0xFF AND ISZERO ISZERO SUB ISZERO PUSH2 0xF54 JUMPI PUSH2 0xE9B CALLER DUP3 PUSH2 0x1EDD JUMP JUMPDEST SWAP2 POP DUP2 DUP4 PUSH2 0xEA9 SWAP2 SWAP1 PUSH2 0x30E4 JUMP JUMPDEST SWAP3 POP DUP2 PUSH1 0xD PUSH1 0x0 DUP4 DUP2 MSTORE PUSH1 0x20 ADD SWAP1 DUP2 MSTORE PUSH1 0x20 ADD PUSH1 0x0 KECCAK256 PUSH1 0x0 DUP3 DUP3 SLOAD PUSH2 0xECE SWAP2 SWAP1 PUSH2 0x3147 JUMP JUMPDEST SWAP3 POP POP DUP2 SWAP1 SSTORE POP PUSH1 0x1 PUSH1 0x3 PUSH1 0x0 CALLER PUSH20 0xFFFFFFFFFFFFFFFFFFFFFFFFFFFFFFFFFFFFFFFF AND PUSH20 0xFFFFFFFFFFFFFFFFFFFFFFFFFFFFFFFFFFFFFFFF AND DUP2 MSTORE PUSH1 0x20 ADD SWAP1 DUP2 MSTORE PUSH1 0x20 ADD PUSH1 0x0 KECCAK256 PUSH1 0x0 DUP4 DUP2 MSTORE PUSH1 0x20 ADD SWAP1 DUP2 MSTORE PUSH1 0x20 ADD PUSH1 0x0 KECCAK256 PUSH1 0x0 ADD PUSH1 0x2 PUSH2 0x100 EXP DUP2 SLOAD DUP2 PUSH1 0xFF MUL NOT AND SWAP1 DUP4 ISZERO ISZERO MUL OR SWAP1 SSTORE POP DUP1 DUP1 PUSH2 0xF4C SWAP1 PUSH2 0x36E7 JUMP JUMPDEST SWAP2 POP POP PUSH2 0xE1B JUMP JUMPDEST POP PUSH1 0x0 DUP3 GT ISZERO PUSH2 0x109A JUMPI DUP2 PUSH1 0x8 PUSH1 0x0 CALLER PUSH20 0xFFFFFFFFFFFFFFFFFFFFFFFFFFFFFFFFFFFFFFFF AND PUSH20 0xFFFFFFFFFFFFFFFFFFFFFFFFFFFFFFFFFFFFFFFF AND DUP2 MSTORE PUSH1 0x20 ADD SWAP1 DUP2 MSTORE PUSH1 0x20 ADD PUSH1 0x0 KECCAK256 PUSH1 0x0 DUP3 DUP3 SLOAD PUSH2 0xFAD SWAP2 SWAP1 PUSH2 0x30E4 JUMP JUMPDEST SWAP3 POP POP DUP2 SWAP1 SSTORE POP DUP2 PUSH1 0xE PUSH1 0x0 CALLER PUSH20 0xFFFFFFFFFFFFFFFFFFFFFFFFFFFFFFFFFFFFFFFF AND PUSH20 0xFFFFFFFFFFFFFFFFFFFFFFFFFFFFFFFFFFFFFFFF AND DUP2 MSTORE PUSH1 0x20 ADD SWAP1 DUP2 MSTORE PUSH1 0x20 ADD PUSH1 0x0 KECCAK256 PUSH1 0x0 DUP3 DUP3 SLOAD PUSH2 0x1003 SWAP2 SWAP1 PUSH2 0x30E4 JUMP JUMPDEST SWAP3 POP POP DUP2 SWAP1 SSTORE POP PUSH1 0x11 PUSH1 0x0 SWAP1 SLOAD SWAP1 PUSH2 0x100 EXP SWAP1 DIV PUSH20 0xFFFFFFFFFFFFFFFFFFFFFFFFFFFFFFFFFFFFFFFF AND PUSH20 0xFFFFFFFFFFFFFFFFFFFFFFFFFFFFFFFFFFFFFFFF AND PUSH4 0x40C10F19 CALLER DUP5 PUSH1 0x40 MLOAD DUP4 PUSH4 0xFFFFFFFF AND PUSH1 0xE0 SHL DUP2 MSTORE PUSH1 0x4 ADD PUSH2 0x1067 SWAP3 SWAP2 SWAP1 PUSH2 0x3525 JUMP JUMPDEST PUSH1 0x0 PUSH1 0x40 MLOAD DUP1 DUP4 SUB DUP2 PUSH1 0x0 DUP8 DUP1 EXTCODESIZE ISZERO DUP1 ISZERO PUSH2 0x1081 JUMPI PUSH1 0x0 DUP1 REVERT JUMPDEST POP GAS CALL ISZERO DUP1 ISZERO PUSH2 0x1095 JUMPI RETURNDATASIZE PUSH1 0x0 DUP1 RETURNDATACOPY RETURNDATASIZE PUSH1 0x0 REVERT JUMPDEST POP POP POP POP JUMPDEST POP POP JUMP JUMPDEST PUSH1 0x0 DUP1 PUSH1 0x0 SWAP1 SLOAD SWAP1 PUSH2 0x100 EXP SWAP1 DIV PUSH1 0xFF AND SWAP1 POP SWAP1 JUMP JUMPDEST PUSH1 0x7 PUSH1 0x0 SWAP1 SLOAD SWAP1 PUSH2 0x100 EXP SWAP1 DIV PUSH20 0xFFFFFFFFFFFFFFFFFFFFFFFFFFFFFFFFFFFFFFFF AND PUSH20 0xFFFFFFFFFFFFFFFFFFFFFFFFFFFFFFFFFFFFFFFF AND CALLER PUSH20 0xFFFFFFFFFFFFFFFFFFFFFFFFFFFFFFFFFFFFFFFF AND EQ PUSH2 0x1144 JUMPI PUSH1 0x40 MLOAD PUSH32 0x8C379A000000000000000000000000000000000000000000000000000000000 DUP2 MSTORE PUSH1 0x4 ADD PUSH2 0x113B SWAP1 PUSH2 0x3782 JUMP JUMPDEST PUSH1 0x40 MLOAD DUP1 SWAP2 SUB SWAP1 REVERT JUMPDEST PUSH1 0x1 ISZERO ISZERO PUSH1 0x3 PUSH1 0x0 DUP5 PUSH20 0xFFFFFFFFFFFFFFFFFFFFFFFFFFFFFFFFFFFFFFFF AND PUSH20 0xFFFFFFFFFFFFFFFFFFFFFFFFFFFFFFFFFFFFFFFF AND DUP2 MSTORE PUSH1 0x20 ADD SWAP1 DUP2 MSTORE PUSH1 0x20 ADD PUSH1 0x0 KECCAK256 PUSH1 0x0 PUSH1 0x5 SLOAD DUP2 MSTORE PUSH1 0x20 ADD SWAP1 DUP2 MSTORE PUSH1 0x20 ADD PUSH1 0x0 KECCAK256 PUSH1 0x0 ADD PUSH1 0x0 SWAP1 SLOAD SWAP1 PUSH2 0x100 EXP SWAP1 DIV PUSH1 0xFF AND ISZERO ISZERO EQ PUSH2 0x11ED JUMPI PUSH1 0x40 MLOAD PUSH32 0x8C379A000000000000000000000000000000000000000000000000000000000 DUP2 MSTORE PUSH1 0x4 ADD PUSH2 0x11E4 SWAP1 PUSH2 0x37EE JUMP JUMPDEST PUSH1 0x40 MLOAD DUP1 SWAP2 SUB SWAP1 REVERT JUMPDEST PUSH1 0x0 ISZERO ISZERO PUSH1 0x3 PUSH1 0x0 DUP5 PUSH20 0xFFFFFFFFFFFFFFFFFFFFFFFFFFFFFFFFFFFFFFFF AND PUSH20 0xFFFFFFFFFFFFFFFFFFFFFFFFFFFFFFFFFFFFFFFF AND DUP2 MSTORE PUSH1 0x20 ADD SWAP1 DUP2 MSTORE PUSH1 0x20 ADD PUSH1 0x0 KECCAK256 PUSH1 0x0 PUSH1 0x5 SLOAD DUP2 MSTORE PUSH1 0x20 ADD SWAP1 DUP2 MSTORE PUSH1 0x20 ADD PUSH1 0x0 KECCAK256 PUSH1 0x0 ADD PUSH1 0x1 SWAP1 SLOAD SWAP1 PUSH2 0x100 EXP SWAP1 DIV PUSH1 0xFF AND ISZERO ISZERO EQ PUSH2 0x1296 JUMPI PUSH1 0x40 MLOAD PUSH32 0x8C379A000000000000000000000000000000000000000000000000000000000 DUP2 MSTORE PUSH1 0x4 ADD PUSH2 0x128D SWAP1 PUSH2 0x385A JUMP JUMPDEST PUSH1 0x40 MLOAD DUP1 SWAP2 SUB SWAP1 REVERT JUMPDEST PUSH1 0x1 PUSH1 0x0 PUSH1 0x5 SLOAD DUP2 MSTORE PUSH1 0x20 ADD SWAP1 DUP2 MSTORE PUSH1 0x20 ADD PUSH1 0x0 KECCAK256 PUSH1 0x40 MLOAD DUP1 PUSH1 0x60 ADD PUSH1 0x40 MSTORE DUP1 DUP5 PUSH20 0xFFFFFFFFFFFFFFFFFFFFFFFFFFFFFFFFFFFFFFFF AND DUP2 MSTORE PUSH1 0x20 ADD DUP4 DUP2 MSTORE PUSH1 0x20 ADD PUSH1 0x8 PUSH1 0x0 DUP7 PUSH20 0xFFFFFFFFFFFFFFFFFFFFFFFFFFFFFFFFFFFFFFFF AND PUSH20 0xFFFFFFFFFFFFFFFFFFFFFFFFFFFFFFFFFFFFFFFF AND DUP2 MSTORE PUSH1 0x20 ADD SWAP1 DUP2 MSTORE PUSH1 0x20 ADD PUSH1 0x0 KECCAK256 SLOAD DUP2 MSTORE POP SWAP1 DUP1 PUSH1 0x1 DUP2 SLOAD ADD DUP1 DUP3 SSTORE DUP1 SWAP2 POP POP PUSH1 0x1 SWAP1 SUB SWAP1 PUSH1 0x0 MSTORE PUSH1 0x20 PUSH1 0x0 KECCAK256 SWAP1 PUSH1 0x3 MUL ADD PUSH1 0x0 SWAP1 SWAP2 SWAP1 SWAP2 SWAP1 SWAP2 POP PUSH1 0x0 DUP3 ADD MLOAD DUP2 PUSH1 0x0 ADD PUSH1 0x0 PUSH2 0x100 EXP DUP2 SLOAD DUP2 PUSH20 0xFFFFFFFFFFFFFFFFFFFFFFFFFFFFFFFFFFFFFFFF MUL NOT AND SWAP1 DUP4 PUSH20 0xFFFFFFFFFFFFFFFFFFFFFFFFFFFFFFFFFFFFFFFF AND MUL OR SWAP1 SSTORE POP PUSH1 0x20 DUP3 ADD MLOAD DUP2 PUSH1 0x1 ADD SSTORE PUSH1 0x40 DUP3 ADD MLOAD DUP2 PUSH1 0x2 ADD SSTORE POP POP PUSH1 0x1 PUSH1 0x3 PUSH1 0x0 DUP5 PUSH20 0xFFFFFFFFFFFFFFFFFFFFFFFFFFFFFFFFFFFFFFFF AND PUSH20 0xFFFFFFFFFFFFFFFFFFFFFFFFFFFFFFFFFFFFFFFF AND DUP2 MSTORE PUSH1 0x20 ADD SWAP1 DUP2 MSTORE PUSH1 0x20 ADD PUSH1 0x0 KECCAK256 PUSH1 0x0 PUSH1 0x5 SLOAD DUP2 MSTORE PUSH1 0x20 ADD SWAP1 DUP2 MSTORE PUSH1 0x20 ADD PUSH1 0x0 KECCAK256 PUSH1 0x0 ADD PUSH1 0x1 PUSH2 0x100 EXP DUP2 SLOAD DUP2 PUSH1 0xFF MUL NOT AND SWAP1 DUP4 ISZERO ISZERO MUL OR SWAP1 SSTORE POP PUSH1 0x2 PUSH1 0x0 PUSH1 0x5 SLOAD DUP2 MSTORE PUSH1 0x20 ADD SWAP1 DUP2 MSTORE PUSH1 0x20 ADD PUSH1 0x0 KECCAK256 PUSH1 0x0 DUP2 SLOAD DUP1 SWAP3 SWAP2 SWAP1 PUSH2 0x1435 SWAP1 PUSH2 0x33A8 JUMP JUMPDEST SWAP2 SWAP1 POP SSTORE POP POP POP JUMP JUMPDEST PUSH2 0x1446 PUSH2 0x2700 JUMP JUMPDEST PUSH2 0x1450 PUSH1 0x0 PUSH2 0x27E0 JUMP JUMPDEST JUMP JUMPDEST PUSH2 0x145A PUSH2 0x2700 JUMP JUMPDEST DUP1 PUSH1 0x11 PUSH1 0x0 PUSH2 0x100 EXP DUP2 SLOAD DUP2 PUSH20 0xFFFFFFFFFFFFFFFFFFFFFFFFFFFFFFFFFFFFFFFF MUL NOT AND SWAP1 DUP4 PUSH20 0xFFFFFFFFFFFFFFFFFFFFFFFFFFFFFFFFFFFFFFFF AND MUL OR SWAP1 SSTORE POP POP JUMP JUMPDEST PUSH2 0x14A6 PUSH2 0x2700 JUMP JUMPDEST PUSH2 0x14AE PUSH2 0x28A5 JUMP JUMPDEST JUMP JUMPDEST PUSH1 0x0 DUP1 PUSH1 0x1 SWAP1 SLOAD SWAP1 PUSH2 0x100 EXP SWAP1 DIV PUSH20 0xFFFFFFFFFFFFFFFFFFFFFFFFFFFFFFFFFFFFFFFF AND SWAP1 POP SWAP1 JUMP JUMPDEST PUSH1 0x0 DUP1 PUSH2 0x14E5 DUP5 PUSH2 0x172A JUMP JUMPDEST SWAP1 POP PUSH1 0x0 DUP2 PUSH1 0x0 PUSH1 0xB DUP2 LT PUSH2 0x14FD JUMPI PUSH2 0x14FC PUSH2 0x3118 JUMP JUMPDEST JUMPDEST PUSH1 0x20 MUL ADD MLOAD PUSH1 0x40 ADD MLOAD SWAP1 POP PUSH1 0x0 DUP1 PUSH1 0x1 SWAP1 POP JUMPDEST PUSH1 0xB DUP2 LT ISZERO PUSH2 0x15AE JUMPI PUSH7 0x2386F26FC10000 PUSH1 0x5 DUP3 PUSH1 0x65 PUSH2 0x1530 SWAP2 SWAP1 PUSH2 0x3147 JUMP JUMPDEST PUSH2 0x153A SWAP2 SWAP1 PUSH2 0x32BB JUMP JUMPDEST DUP5 PUSH3 0xF4240 DUP8 DUP6 PUSH1 0xB DUP2 LT PUSH2 0x1552 JUMPI PUSH2 0x1551 PUSH2 0x3118 JUMP JUMPDEST JUMPDEST PUSH1 0x20 MUL ADD MLOAD PUSH1 0x40 ADD MLOAD DUP11 PUSH2 0x1566 SWAP2 SWAP1 PUSH2 0x3306 JUMP JUMPDEST PUSH2 0x1570 SWAP2 SWAP1 PUSH2 0x3306 JUMP JUMPDEST PUSH2 0x157A SWAP2 SWAP1 PUSH2 0x3377 JUMP JUMPDEST PUSH2 0x1584 SWAP2 SWAP1 PUSH2 0x3306 JUMP JUMPDEST PUSH2 0x158E SWAP2 SWAP1 PUSH2 0x3377 JUMP JUMPDEST DUP3 PUSH2 0x1599 SWAP2 SWAP1 PUSH2 0x30E4 JUMP JUMPDEST SWAP2 POP DUP1 DUP1 PUSH2 0x15A6 SWAP1 PUSH2 0x33A8 JUMP JUMPDEST SWAP2 POP POP PUSH2 0x1510 JUMP JUMPDEST POP DUP1 SWAP4 POP POP POP POP SWAP3 SWAP2 POP POP JUMP JUMPDEST PUSH1 0x0 PUSH1 0xE PUSH1 0x0 DUP4 PUSH20 0xFFFFFFFFFFFFFFFFFFFFFFFFFFFFFFFFFFFFFFFF AND PUSH20 0xFFFFFFFFFFFFFFFFFFFFFFFFFFFFFFFFFFFFFFFF AND DUP2 MSTORE PUSH1 0x20 ADD SWAP1 DUP2 MSTORE PUSH1 0x20 ADD PUSH1 0x0 KECCAK256 SLOAD SWAP1 POP SWAP2 SWAP1 POP JUMP JUMPDEST PUSH1 0x0 DUP1 PUSH1 0xC PUSH1 0x0 PUSH1 0x1 PUSH1 0x5 SLOAD PUSH2 0x161A SWAP2 SWAP1 PUSH2 0x3147 JUMP JUMPDEST DUP2 MSTORE PUSH1 0x20 ADD SWAP1 DUP2 MSTORE PUSH1 0x20 ADD PUSH1 0x0 KECCAK256 PUSH1 0x2 ADD SLOAD PUSH1 0xA SLOAD PUSH1 0x9 SLOAD PUSH1 0xC PUSH1 0x0 PUSH1 0x1 PUSH1 0x5 SLOAD PUSH2 0x1645 SWAP2 SWAP1 PUSH2 0x3147 JUMP JUMPDEST DUP2 MSTORE PUSH1 0x20 ADD SWAP1 DUP2 MSTORE PUSH1 0x20 ADD PUSH1 0x0 KECCAK256 PUSH1 0x0 ADD SLOAD PUSH2 0x1661 SWAP2 SWAP1 PUSH2 0x30E4 JUMP JUMPDEST PUSH2 0x166B SWAP2 SWAP1 PUSH2 0x3147 JUMP JUMPDEST PUSH2 0x1675 SWAP2 SWAP1 PUSH2 0x30E4 JUMP JUMPDEST SWAP1 POP PUSH1 0x0 PUSH1 0x10 PUSH1 0x0 SWAP1 SLOAD SWAP1 PUSH2 0x100 EXP SWAP1 DIV PUSH20 0xFFFFFFFFFFFFFFFFFFFFFFFFFFFFFFFFFFFFFFFF AND PUSH20 0xFFFFFFFFFFFFFFFFFFFFFFFFFFFFFFFFFFFFFFFF AND PUSH4 0x70A08231 ADDRESS PUSH1 0x40 MLOAD DUP3 PUSH4 0xFFFFFFFF AND PUSH1 0xE0 SHL DUP2 MSTORE PUSH1 0x4 ADD PUSH2 0x16D4 SWAP2 SWAP1 PUSH2 0x2D96 JUMP JUMPDEST PUSH1 0x20 PUSH1 0x40 MLOAD DUP1 DUP4 SUB DUP2 DUP7 GAS STATICCALL ISZERO DUP1 ISZERO PUSH2 0x16F1 JUMPI RETURNDATASIZE PUSH1 0x0 DUP1 RETURNDATACOPY RETURNDATASIZE PUSH1 0x0 REVERT JUMPDEST POP POP POP POP PUSH1 0x40 MLOAD RETURNDATASIZE PUSH1 0x1F NOT PUSH1 0x1F DUP3 ADD AND DUP3 ADD DUP1 PUSH1 0x40 MSTORE POP DUP2 ADD SWAP1 PUSH2 0x1715 SWAP2 SWAP1 PUSH2 0x36BA JUMP JUMPDEST SWAP1 POP DUP2 DUP2 PUSH2 0x1723 SWAP2 SWAP1 PUSH2 0x3147 JUMP JUMPDEST SWAP3 POP POP POP SWAP1 JUMP JUMPDEST PUSH2 0x1732 PUSH2 0x29D0 JUMP JUMPDEST PUSH1 0x0 DUP1 PUSH1 0x0 SWAP1 POP PUSH2 0x1741 PUSH2 0x29D0 JUMP JUMPDEST PUSH1 0x0 JUMPDEST PUSH1 0x1 PUSH1 0x0 DUP8 DUP2 MSTORE PUSH1 0x20 ADD SWAP1 DUP2 MSTORE PUSH1 0x20 ADD PUSH1 0x0 KECCAK256 DUP1 SLOAD SWAP1 POP DUP2 LT ISZERO PUSH2 0x19D8 JUMPI PUSH1 0x1 PUSH1 0x0 DUP8 DUP2 MSTORE PUSH1 0x20 ADD SWAP1 DUP2 MSTORE PUSH1 0x20 ADD PUSH1 0x0 KECCAK256 DUP2 DUP2 SLOAD DUP2 LT PUSH2 0x1787 JUMPI PUSH2 0x1786 PUSH2 0x3118 JUMP JUMPDEST JUMPDEST SWAP1 PUSH1 0x0 MSTORE PUSH1 0x20 PUSH1 0x0 KECCAK256 SWAP1 PUSH1 0x3 MUL ADD PUSH1 0x1 ADD SLOAD SWAP4 POP PUSH1 0x0 PUSH1 0x1 SWAP1 POP PUSH1 0x0 JUMPDEST PUSH1 0x1 PUSH1 0x0 DUP10 DUP2 MSTORE PUSH1 0x20 ADD SWAP1 DUP2 MSTORE PUSH1 0x20 ADD PUSH1 0x0 KECCAK256 DUP1 SLOAD SWAP1 POP DUP2 LT ISZERO PUSH2 0x1822 JUMPI PUSH1 0x1 PUSH1 0x0 DUP10 DUP2 MSTORE PUSH1 0x20 ADD SWAP1 DUP2 MSTORE PUSH1 0x20 ADD PUSH1 0x0 KECCAK256 DUP2 DUP2 SLOAD DUP2 LT PUSH2 0x17E7 JUMPI PUSH2 0x17E6 PUSH2 0x3118 JUMP JUMPDEST JUMPDEST SWAP1 PUSH1 0x0 MSTORE PUSH1 0x20 PUSH1 0x0 KECCAK256 SWAP1 PUSH1 0x3 MUL ADD PUSH1 0x1 ADD SLOAD DUP7 GT ISZERO PUSH2 0x180F JUMPI DUP2 DUP1 PUSH2 0x180B SWAP1 PUSH2 0x33A8 JUMP JUMPDEST SWAP3 POP POP JUMPDEST DUP1 DUP1 PUSH2 0x181A SWAP1 PUSH2 0x33A8 JUMP JUMPDEST SWAP2 POP POP PUSH2 0x17A4 JUMP JUMPDEST POP PUSH1 0xB DUP2 LT ISZERO PUSH2 0x19C4 JUMPI PUSH1 0x1 PUSH1 0x0 DUP9 DUP2 MSTORE PUSH1 0x20 ADD SWAP1 DUP2 MSTORE PUSH1 0x20 ADD PUSH1 0x0 KECCAK256 DUP3 DUP2 SLOAD DUP2 LT PUSH2 0x1851 JUMPI PUSH2 0x1850 PUSH2 0x3118 JUMP JUMPDEST JUMPDEST SWAP1 PUSH1 0x0 MSTORE PUSH1 0x20 PUSH1 0x0 KECCAK256 SWAP1 PUSH1 0x3 MUL ADD PUSH1 0x2 ADD SLOAD DUP5 PUSH2 0x186E SWAP2 SWAP1 PUSH2 0x30E4 JUMP JUMPDEST SWAP4 POP PUSH1 0x1 PUSH1 0x0 DUP9 DUP2 MSTORE PUSH1 0x20 ADD SWAP1 DUP2 MSTORE PUSH1 0x20 ADD PUSH1 0x0 KECCAK256 DUP3 DUP2 SLOAD DUP2 LT PUSH2 0x1895 JUMPI PUSH2 0x1894 PUSH2 0x3118 JUMP JUMPDEST JUMPDEST SWAP1 PUSH1 0x0 MSTORE PUSH1 0x20 PUSH1 0x0 KECCAK256 SWAP1 PUSH1 0x3 MUL ADD PUSH1 0x0 ADD PUSH1 0x0 SWAP1 SLOAD SWAP1 PUSH2 0x100 EXP SWAP1 DIV PUSH20 0xFFFFFFFFFFFFFFFFFFFFFFFFFFFFFFFFFFFFFFFF AND DUP4 DUP3 PUSH1 0xB DUP2 LT PUSH2 0x18DA JUMPI PUSH2 0x18D9 PUSH2 0x3118 JUMP JUMPDEST JUMPDEST PUSH1 0x20 MUL ADD MLOAD PUSH1 0x0 ADD SWAP1 PUSH20 0xFFFFFFFFFFFFFFFFFFFFFFFFFFFFFFFFFFFFFFFF AND SWAP1 DUP2 PUSH20 0xFFFFFFFFFFFFFFFFFFFFFFFFFFFFFFFFFFFFFFFF AND DUP2 MSTORE POP POP PUSH1 0x1 PUSH1 0x0 DUP9 DUP2 MSTORE PUSH1 0x20 ADD SWAP1 DUP2 MSTORE PUSH1 0x20 ADD PUSH1 0x0 KECCAK256 DUP3 DUP2 SLOAD DUP2 LT PUSH2 0x193A JUMPI PUSH2 0x1939 PUSH2 0x3118 JUMP JUMPDEST JUMPDEST SWAP1 PUSH1 0x0 MSTORE PUSH1 0x20 PUSH1 0x0 KECCAK256 SWAP1 PUSH1 0x3 MUL ADD PUSH1 0x1 ADD SLOAD DUP4 DUP3 PUSH1 0xB DUP2 LT PUSH2 0x195F JUMPI PUSH2 0x195E PUSH2 0x3118 JUMP JUMPDEST JUMPDEST PUSH1 0x20 MUL ADD MLOAD PUSH1 0x20 ADD DUP2 DUP2 MSTORE POP POP PUSH1 0x1 PUSH1 0x0 DUP9 DUP2 MSTORE PUSH1 0x20 ADD SWAP1 DUP2 MSTORE PUSH1 0x20 ADD PUSH1 0x0 KECCAK256 DUP3 DUP2 SLOAD DUP2 LT PUSH2 0x1991 JUMPI PUSH2 0x1990 PUSH2 0x3118 JUMP JUMPDEST JUMPDEST SWAP1 PUSH1 0x0 MSTORE PUSH1 0x20 PUSH1 0x0 KECCAK256 SWAP1 PUSH1 0x3 MUL ADD PUSH1 0x2 ADD SLOAD DUP4 DUP3 PUSH1 0xB DUP2 LT PUSH2 0x19B6 JUMPI PUSH2 0x19B5 PUSH2 0x3118 JUMP JUMPDEST JUMPDEST PUSH1 0x20 MUL ADD MLOAD PUSH1 0x40 ADD DUP2 DUP2 MSTORE POP POP JUMPDEST POP DUP1 DUP1 PUSH2 0x19D0 SWAP1 PUSH2 0x33A8 JUMP JUMPDEST SWAP2 POP POP PUSH2 0x1744 JUMP JUMPDEST POP DUP2 DUP2 PUSH1 0x0 PUSH1 0xB DUP2 LT PUSH2 0x19EE JUMPI PUSH2 0x19ED PUSH2 0x3118 JUMP JUMPDEST JUMPDEST PUSH1 0x20 MUL ADD MLOAD PUSH1 0x40 ADD DUP2 DUP2 MSTORE POP POP DUP1 SWAP4 POP POP POP POP SWAP2 SWAP1 POP JUMP JUMPDEST PUSH2 0x1A0E PUSH2 0x29FE JUMP JUMPDEST PUSH2 0x1A16 PUSH2 0x29FE JUMP JUMPDEST PUSH1 0x0 DUP1 PUSH1 0x0 SWAP1 POP PUSH1 0x0 PUSH1 0x1 PUSH1 0x5 SLOAD PUSH2 0x1A2E SWAP2 SWAP1 PUSH2 0x3147 JUMP JUMPDEST SWAP1 POP PUSH1 0x0 PUSH1 0xA DUP3 LT ISZERO PUSH2 0x1A43 JUMPI DUP2 SWAP4 POP PUSH2 0x1A48 JUMP JUMPDEST PUSH1 0xA SWAP4 POP JUMPDEST PUSH1 0x0 DUP3 SWAP1 POP JUMPDEST DUP5 DUP4 PUSH2 0x1A5A SWAP2 SWAP1 PUSH2 0x3147 JUMP JUMPDEST DUP2 GT ISZERO PUSH2 0x1B51 JUMPI PUSH2 0x1A6B DUP2 DUP10 PUSH2 0x1B69 JUMP JUMPDEST SWAP2 POP PUSH1 0x0 DUP3 GT DUP1 ISZERO PUSH2 0x1A7D JUMPI POP PUSH1 0xB DUP3 LT JUMPDEST ISZERO PUSH2 0x1ADF JUMPI PUSH1 0x40 MLOAD DUP1 PUSH1 0x80 ADD PUSH1 0x40 MSTORE DUP1 DUP3 DUP2 MSTORE PUSH1 0x20 ADD DUP4 DUP2 MSTORE PUSH1 0x20 ADD PUSH1 0x2 PUSH1 0x0 DUP5 DUP2 MSTORE PUSH1 0x20 ADD SWAP1 DUP2 MSTORE PUSH1 0x20 ADD PUSH1 0x0 KECCAK256 SLOAD DUP2 MSTORE PUSH1 0x20 ADD PUSH2 0x1ABC DUP11 DUP5 PUSH2 0x1EDD JUMP JUMPDEST DUP2 MSTORE POP DUP7 DUP6 PUSH1 0xA DUP2 LT PUSH2 0x1AD2 JUMPI PUSH2 0x1AD1 PUSH2 0x3118 JUMP JUMPDEST JUMPDEST PUSH1 0x20 MUL ADD DUP2 SWAP1 MSTORE POP PUSH2 0x1B30 JUMP JUMPDEST PUSH1 0x40 MLOAD DUP1 PUSH1 0x80 ADD PUSH1 0x40 MSTORE DUP1 DUP3 DUP2 MSTORE PUSH1 0x20 ADD DUP4 DUP2 MSTORE PUSH1 0x20 ADD PUSH1 0x2 PUSH1 0x0 DUP5 DUP2 MSTORE PUSH1 0x20 ADD SWAP1 DUP2 MSTORE PUSH1 0x20 ADD PUSH1 0x0 KECCAK256 SLOAD DUP2 MSTORE PUSH1 0x20 ADD PUSH1 0x0 DUP2 MSTORE POP DUP7 DUP6 PUSH1 0xA DUP2 LT PUSH2 0x1B27 JUMPI PUSH2 0x1B26 PUSH2 0x3118 JUMP JUMPDEST JUMPDEST PUSH1 0x20 MUL ADD DUP2 SWAP1 MSTORE POP JUMPDEST DUP4 DUP1 PUSH2 0x1B3B SWAP1 PUSH2 0x33A8 JUMP JUMPDEST SWAP5 POP POP DUP1 DUP1 PUSH2 0x1B49 SWAP1 PUSH2 0x36E7 JUMP JUMPDEST SWAP2 POP POP PUSH2 0x1A4E JUMP JUMPDEST POP DUP5 SWAP6 POP POP POP POP POP POP SWAP2 SWAP1 POP JUMP JUMPDEST PUSH1 0x0 PUSH1 0x5 SLOAD SWAP1 POP SWAP1 JUMP JUMPDEST PUSH1 0x0 DUP1 PUSH1 0x0 DUP1 PUSH1 0x1 SWAP1 POP PUSH1 0x0 JUMPDEST PUSH1 0x1 PUSH1 0x0 DUP9 DUP2 MSTORE PUSH1 0x20 ADD SWAP1 DUP2 MSTORE PUSH1 0x20 ADD PUSH1 0x0 KECCAK256 DUP1 SLOAD SWAP1 POP DUP2 LT ISZERO PUSH2 0x1CA7 JUMPI PUSH1 0x1 PUSH1 0x0 DUP9 DUP2 MSTORE PUSH1 0x20 ADD SWAP1 DUP2 MSTORE PUSH1 0x20 ADD PUSH1 0x0 KECCAK256 DUP2 DUP2 SLOAD DUP2 LT PUSH2 0x1BB9 JUMPI PUSH2 0x1BB8 PUSH2 0x3118 JUMP JUMPDEST JUMPDEST SWAP1 PUSH1 0x0 MSTORE PUSH1 0x20 PUSH1 0x0 KECCAK256 SWAP1 PUSH1 0x3 MUL ADD PUSH1 0x0 ADD PUSH1 0x0 SWAP1 SLOAD SWAP1 PUSH2 0x100 EXP SWAP1 DIV PUSH20 0xFFFFFFFFFFFFFFFFFFFFFFFFFFFFFFFFFFFFFFFF AND PUSH20 0xFFFFFFFFFFFFFFFFFFFFFFFFFFFFFFFFFFFFFFFF AND DUP7 PUSH20 0xFFFFFFFFFFFFFFFFFFFFFFFFFFFFFFFFFFFFFFFF AND SUB PUSH2 0x1C5E JUMPI DUP1 SWAP4 POP PUSH1 0x1 PUSH1 0x0 DUP9 DUP2 MSTORE PUSH1 0x20 ADD SWAP1 DUP2 MSTORE PUSH1 0x20 ADD PUSH1 0x0 KECCAK256 DUP2 DUP2 SLOAD DUP2 LT PUSH2 0x1C45 JUMPI PUSH2 0x1C44 PUSH2 0x3118 JUMP JUMPDEST JUMPDEST SWAP1 PUSH1 0x0 MSTORE PUSH1 0x20 PUSH1 0x0 KECCAK256 SWAP1 PUSH1 0x3 MUL ADD PUSH1 0x1 ADD SLOAD SWAP3 POP PUSH2 0x1CA7 JUMP JUMPDEST PUSH1 0x1 PUSH1 0x0 DUP9 DUP2 MSTORE PUSH1 0x20 ADD SWAP1 DUP2 MSTORE PUSH1 0x20 ADD PUSH1 0x0 KECCAK256 DUP1 SLOAD SWAP1 POP PUSH1 0x1 DUP3 PUSH2 0x1C82 SWAP2 SWAP1 PUSH2 0x30E4 JUMP JUMPDEST SUB PUSH2 0x1C94 JUMPI PUSH1 0x0 SWAP5 POP POP POP POP POP PUSH2 0x1D31 JUMP JUMPDEST DUP1 DUP1 PUSH2 0x1C9F SWAP1 PUSH2 0x33A8 JUMP JUMPDEST SWAP2 POP POP PUSH2 0x1B76 JUMP JUMPDEST POP PUSH1 0x0 JUMPDEST PUSH1 0x1 PUSH1 0x0 DUP9 DUP2 MSTORE PUSH1 0x20 ADD SWAP1 DUP2 MSTORE PUSH1 0x20 ADD PUSH1 0x0 KECCAK256 DUP1 SLOAD SWAP1 POP DUP2 LT ISZERO PUSH2 0x1D29 JUMPI PUSH1 0x1 PUSH1 0x0 DUP9 DUP2 MSTORE PUSH1 0x20 ADD SWAP1 DUP2 MSTORE PUSH1 0x20 ADD PUSH1 0x0 KECCAK256 DUP2 DUP2 SLOAD DUP2 LT PUSH2 0x1CEE JUMPI PUSH2 0x1CED PUSH2 0x3118 JUMP JUMPDEST JUMPDEST SWAP1 PUSH1 0x0 MSTORE PUSH1 0x20 PUSH1 0x0 KECCAK256 SWAP1 PUSH1 0x3 MUL ADD PUSH1 0x1 ADD SLOAD DUP4 GT ISZERO PUSH2 0x1D16 JUMPI DUP2 DUP1 PUSH2 0x1D12 SWAP1 PUSH2 0x33A8 JUMP JUMPDEST SWAP3 POP POP JUMPDEST DUP1 DUP1 PUSH2 0x1D21 SWAP1 PUSH2 0x33A8 JUMP JUMPDEST SWAP2 POP POP PUSH2 0x1CAB JUMP JUMPDEST POP DUP1 SWAP4 POP POP POP POP JUMPDEST SWAP3 SWAP2 POP POP JUMP JUMPDEST PUSH2 0x1D3F PUSH2 0x2700 JUMP JUMPDEST DUP1 PUSH1 0x7 PUSH1 0x0 PUSH2 0x100 EXP DUP2 SLOAD DUP2 PUSH20 0xFFFFFFFFFFFFFFFFFFFFFFFFFFFFFFFFFFFFFFFF MUL NOT AND SWAP1 DUP4 PUSH20 0xFFFFFFFFFFFFFFFFFFFFFFFFFFFFFFFFFFFFFFFF AND MUL OR SWAP1 SSTORE POP POP JUMP JUMPDEST PUSH2 0x1D8B PUSH2 0x2700 JUMP JUMPDEST DUP1 PUSH1 0x4 DUP2 SWAP1 SSTORE POP POP JUMP JUMPDEST PUSH2 0x1D9D PUSH2 0x2700 JUMP JUMPDEST PUSH1 0x0 PUSH20 0xFFFFFFFFFFFFFFFFFFFFFFFFFFFFFFFFFFFFFFFF AND DUP2 PUSH20 0xFFFFFFFFFFFFFFFFFFFFFFFFFFFFFFFFFFFFFFFF AND SUB PUSH2 0x1E0C JUMPI PUSH1 0x40 MLOAD PUSH32 0x8C379A000000000000000000000000000000000000000000000000000000000 DUP2 MSTORE PUSH1 0x4 ADD PUSH2 0x1E03 SWAP1 PUSH2 0x38EC JUMP JUMPDEST PUSH1 0x40 MLOAD DUP1 SWAP2 SUB SWAP1 REVERT JUMPDEST PUSH2 0x1E15 DUP2 PUSH2 0x27E0 JUMP JUMPDEST POP JUMP JUMPDEST PUSH1 0x0 DUP1 PUSH1 0x0 SWAP1 POP PUSH1 0x0 PUSH1 0x1 PUSH1 0x5 SLOAD PUSH2 0x1E30 SWAP2 SWAP1 PUSH2 0x3147 JUMP JUMPDEST SWAP1 POP JUMPDEST PUSH1 0x0 DUP2 GT ISZERO PUSH2 0x1ED3 JUMPI PUSH1 0x1 ISZERO ISZERO PUSH1 0x3 PUSH1 0x0 DUP7 PUSH20 0xFFFFFFFFFFFFFFFFFFFFFFFFFFFFFFFFFFFFFFFF AND PUSH20 0xFFFFFFFFFFFFFFFFFFFFFFFFFFFFFFFFFFFFFFFF AND DUP2 MSTORE PUSH1 0x20 ADD SWAP1 DUP2 MSTORE PUSH1 0x20 ADD PUSH1 0x0 KECCAK256 PUSH1 0x0 DUP4 DUP2 MSTORE PUSH1 0x20 ADD SWAP1 DUP2 MSTORE PUSH1 0x20 ADD PUSH1 0x0 KECCAK256 PUSH1 0x0 ADD PUSH1 0x2 SWAP1 SLOAD SWAP1 PUSH2 0x100 EXP SWAP1 DIV PUSH1 0xFF AND ISZERO ISZERO SUB ISZERO PUSH2 0x1ED3 JUMPI PUSH2 0x1EB3 DUP5 DUP3 PUSH2 0x1EDD JUMP JUMPDEST DUP3 PUSH2 0x1EBE SWAP2 SWAP1 PUSH2 0x30E4 JUMP JUMPDEST SWAP2 POP DUP1 DUP1 PUSH2 0x1ECB SWAP1 PUSH2 0x36E7 JUMP JUMPDEST SWAP2 POP POP PUSH2 0x1E33 JUMP JUMPDEST POP DUP1 SWAP2 POP POP SWAP2 SWAP1 POP JUMP JUMPDEST PUSH1 0x0 DUP1 PUSH2 0x1EE9 DUP4 PUSH2 0x172A JUMP JUMPDEST SWAP1 POP PUSH1 0x0 DUP2 PUSH1 0x0 PUSH1 0xB DUP2 LT PUSH2 0x1F01 JUMPI PUSH2 0x1F00 PUSH2 0x3118 JUMP JUMPDEST JUMPDEST PUSH1 0x20 MUL ADD MLOAD PUSH1 0x40 ADD MLOAD SWAP1 POP PUSH1 0x0 DUP1 PUSH1 0x1 SWAP1 POP JUMPDEST PUSH1 0xB DUP2 LT ISZERO PUSH2 0x2010 JUMPI DUP4 DUP2 PUSH1 0xB DUP2 LT PUSH2 0x1F30 JUMPI PUSH2 0x1F2F PUSH2 0x3118 JUMP JUMPDEST JUMPDEST PUSH1 0x20 MUL ADD MLOAD PUSH1 0x0 ADD MLOAD PUSH20 0xFFFFFFFFFFFFFFFFFFFFFFFFFFFFFFFFFFFFFFFF AND DUP8 PUSH20 0xFFFFFFFFFFFFFFFFFFFFFFFFFFFFFFFFFFFFFFFF AND SUB PUSH2 0x1FFD JUMPI PUSH7 0x2386F26FC10000 PUSH1 0x5 DUP3 PUSH1 0x65 PUSH2 0x1F82 SWAP2 SWAP1 PUSH2 0x3147 JUMP JUMPDEST PUSH2 0x1F8C SWAP2 SWAP1 PUSH2 0x32BB JUMP JUMPDEST DUP5 PUSH3 0xF4240 DUP8 DUP6 PUSH1 0xB DUP2 LT PUSH2 0x1FA4 JUMPI PUSH2 0x1FA3 PUSH2 0x3118 JUMP JUMPDEST JUMPDEST PUSH1 0x20 MUL ADD MLOAD PUSH1 0x40 ADD MLOAD PUSH1 0xC PUSH1 0x0 DUP13 DUP2 MSTORE PUSH1 0x20 ADD SWAP1 DUP2 MSTORE PUSH1 0x20 ADD PUSH1 0x0 KECCAK256 PUSH1 0x1 ADD SLOAD PUSH2 0x1FCE SWAP2 SWAP1 PUSH2 0x3306 JUMP JUMPDEST PUSH2 0x1FD8 SWAP2 SWAP1 PUSH2 0x3306 JUMP JUMPDEST PUSH2 0x1FE2 SWAP2 SWAP1 PUSH2 0x3377 JUMP JUMPDEST PUSH2 0x1FEC SWAP2 SWAP1 PUSH2 0x3306 JUMP JUMPDEST PUSH2 0x1FF6 SWAP2 SWAP1 PUSH2 0x3377 JUMP JUMPDEST SWAP2 POP PUSH2 0x2010 JUMP JUMPDEST DUP1 DUP1 PUSH2 0x2008 SWAP1 PUSH2 0x33A8 JUMP JUMPDEST SWAP2 POP POP PUSH2 0x1F14 JUMP JUMPDEST POP DUP1 SWAP4 POP POP POP POP SWAP3 SWAP2 POP POP JUMP JUMPDEST PUSH1 0xF PUSH1 0x0 SWAP1 SLOAD SWAP1 PUSH2 0x100 EXP SWAP1 DIV PUSH20 0xFFFFFFFFFFFFFFFFFFFFFFFFFFFFFFFFFFFFFFFF AND PUSH20 0xFFFFFFFFFFFFFFFFFFFFFFFFFFFFFFFFFFFFFFFF AND PUSH4 0x70A08231 CALLER PUSH1 0x40 MLOAD DUP3 PUSH4 0xFFFFFFFF AND PUSH1 0xE0 SHL DUP2 MSTORE PUSH1 0x4 ADD PUSH2 0x2078 SWAP2 SWAP1 PUSH2 0x2D96 JUMP JUMPDEST PUSH1 0x20 PUSH1 0x40 MLOAD DUP1 DUP4 SUB DUP2 DUP7 GAS STATICCALL ISZERO DUP1 ISZERO PUSH2 0x2095 JUMPI RETURNDATASIZE PUSH1 0x0 DUP1 RETURNDATACOPY RETURNDATASIZE PUSH1 0x0 REVERT JUMPDEST POP POP POP POP PUSH1 0x40 MLOAD RETURNDATASIZE PUSH1 0x1F NOT PUSH1 0x1F DUP3 ADD AND DUP3 ADD DUP1 PUSH1 0x40 MSTORE POP DUP2 ADD SWAP1 PUSH2 0x20B9 SWAP2 SWAP1 PUSH2 0x36BA JUMP JUMPDEST DUP2 GT ISZERO PUSH2 0x20FB JUMPI PUSH1 0x40 MLOAD PUSH32 0x8C379A000000000000000000000000000000000000000000000000000000000 DUP2 MSTORE PUSH1 0x4 ADD PUSH2 0x20F2 SWAP1 PUSH2 0x3958 JUMP JUMPDEST PUSH1 0x40 MLOAD DUP1 SWAP2 SUB SWAP1 REVERT JUMPDEST PUSH1 0xF PUSH1 0x0 SWAP1 SLOAD SWAP1 PUSH2 0x100 EXP SWAP1 DIV PUSH20 0xFFFFFFFFFFFFFFFFFFFFFFFFFFFFFFFFFFFFFFFF AND PUSH20 0xFFFFFFFFFFFFFFFFFFFFFFFFFFFFFFFFFFFFFFFF AND PUSH4 0xDD62ED3E CALLER ADDRESS PUSH1 0x40 MLOAD DUP4 PUSH4 0xFFFFFFFF AND PUSH1 0xE0 SHL DUP2 MSTORE PUSH1 0x4 ADD PUSH2 0x2158 SWAP3 SWAP2 SWAP1 PUSH2 0x3978 JUMP JUMPDEST PUSH1 0x20 PUSH1 0x40 MLOAD DUP1 DUP4 SUB DUP2 DUP7 GAS STATICCALL ISZERO DUP1 ISZERO PUSH2 0x2175 JUMPI RETURNDATASIZE PUSH1 0x0 DUP1 RETURNDATACOPY RETURNDATASIZE PUSH1 0x0 REVERT JUMPDEST POP POP POP POP PUSH1 0x40 MLOAD RETURNDATASIZE PUSH1 0x1F NOT PUSH1 0x1F DUP3 ADD AND DUP3 ADD DUP1 PUSH1 0x40 MSTORE POP DUP2 ADD SWAP1 PUSH2 0x2199 SWAP2 SWAP1 PUSH2 0x36BA JUMP JUMPDEST DUP2 GT ISZERO PUSH2 0x21DB JUMPI PUSH1 0x40 MLOAD PUSH32 0x8C379A000000000000000000000000000000000000000000000000000000000 DUP2 MSTORE PUSH1 0x4 ADD PUSH2 0x21D2 SWAP1 PUSH2 0x39ED JUMP JUMPDEST PUSH1 0x40 MLOAD DUP1 SWAP2 SUB SWAP1 REVERT JUMPDEST PUSH1 0xF PUSH1 0x0 SWAP1 SLOAD SWAP1 PUSH2 0x100 EXP SWAP1 DIV PUSH20 0xFFFFFFFFFFFFFFFFFFFFFFFFFFFFFFFFFFFFFFFF AND PUSH20 0xFFFFFFFFFFFFFFFFFFFFFFFFFFFFFFFFFFFFFFFF AND PUSH4 0x23B872DD CALLER ADDRESS DUP5 PUSH1 0x40 MLOAD DUP5 PUSH4 0xFFFFFFFF AND PUSH1 0xE0 SHL DUP2 MSTORE PUSH1 0x4 ADD PUSH2 0x223A SWAP4 SWAP3 SWAP2 SWAP1 PUSH2 0x3A0D JUMP JUMPDEST PUSH1 0x20 PUSH1 0x40 MLOAD DUP1 DUP4 SUB DUP2 PUSH1 0x0 DUP8 GAS CALL ISZERO DUP1 ISZERO PUSH2 0x2259 JUMPI RETURNDATASIZE PUSH1 0x0 DUP1 RETURNDATACOPY RETURNDATASIZE PUSH1 0x0 REVERT JUMPDEST POP POP POP POP PUSH1 0x40 MLOAD RETURNDATASIZE PUSH1 0x1F NOT PUSH1 0x1F DUP3 ADD AND DUP3 ADD DUP1 PUSH1 0x40 MSTORE POP DUP2 ADD SWAP1 PUSH2 0x227D SWAP2 SWAP1 PUSH2 0x357A JUMP JUMPDEST POP PUSH1 0xF PUSH1 0x0 SWAP1 SLOAD SWAP1 PUSH2 0x100 EXP SWAP1 DIV PUSH20 0xFFFFFFFFFFFFFFFFFFFFFFFFFFFFFFFFFFFFFFFF AND PUSH20 0xFFFFFFFFFFFFFFFFFFFFFFFFFFFFFFFFFFFFFFFF AND PUSH4 0x95EA7B3 PUSH1 0x12 PUSH1 0x0 SWAP1 SLOAD SWAP1 PUSH2 0x100 EXP SWAP1 DIV PUSH20 0xFFFFFFFFFFFFFFFFFFFFFFFFFFFFFFFFFFFFFFFF AND DUP4 PUSH1 0x40 MLOAD DUP4 PUSH4 0xFFFFFFFF AND PUSH1 0xE0 SHL DUP2 MSTORE PUSH1 0x4 ADD PUSH2 0x22FD SWAP3 SWAP2 SWAP1 PUSH2 0x3525 JUMP JUMPDEST PUSH1 0x20 PUSH1 0x40 MLOAD DUP1 DUP4 SUB DUP2 PUSH1 0x0 DUP8 GAS CALL ISZERO DUP1 ISZERO PUSH2 0x231C JUMPI RETURNDATASIZE PUSH1 0x0 DUP1 RETURNDATACOPY RETURNDATASIZE PUSH1 0x0 REVERT JUMPDEST POP POP POP POP PUSH1 0x40 MLOAD RETURNDATASIZE PUSH1 0x1F NOT PUSH1 0x1F DUP3 ADD AND DUP3 ADD DUP1 PUSH1 0x40 MSTORE POP DUP2 ADD SWAP1 PUSH2 0x2340 SWAP2 SWAP1 PUSH2 0x357A JUMP JUMPDEST POP PUSH1 0x12 PUSH1 0x0 SWAP1 SLOAD SWAP1 PUSH2 0x100 EXP SWAP1 DIV PUSH20 0xFFFFFFFFFFFFFFFFFFFFFFFFFFFFFFFFFFFFFFFF AND PUSH20 0xFFFFFFFFFFFFFFFFFFFFFFFFFFFFFFFFFFFFFFFF AND PUSH4 0x617BA037 PUSH1 0xF PUSH1 0x0 SWAP1 SLOAD SWAP1 PUSH2 0x100 EXP SWAP1 DIV PUSH20 0xFFFFFFFFFFFFFFFFFFFFFFFFFFFFFFFFFFFFFFFF AND DUP4 ADDRESS PUSH1 0x0 PUSH1 0x40 MLOAD DUP6 PUSH4 0xFFFFFFFF AND PUSH1 0xE0 SHL DUP2 MSTORE PUSH1 0x4 ADD PUSH2 0x23C5 SWAP5 SWAP4 SWAP3 SWAP2 SWAP1 PUSH2 0x3A97 JUMP JUMPDEST PUSH1 0x0 PUSH1 0x40 MLOAD DUP1 DUP4 SUB DUP2 PUSH1 0x0 DUP8 DUP1 EXTCODESIZE ISZERO DUP1 ISZERO PUSH2 0x23DF JUMPI PUSH1 0x0 DUP1 REVERT JUMPDEST POP GAS CALL ISZERO DUP1 ISZERO PUSH2 0x23F3 JUMPI RETURNDATASIZE PUSH1 0x0 DUP1 RETURNDATACOPY RETURNDATASIZE PUSH1 0x0 REVERT JUMPDEST POP POP POP POP DUP1 PUSH1 0x8 PUSH1 0x0 CALLER PUSH20 0xFFFFFFFFFFFFFFFFFFFFFFFFFFFFFFFFFFFFFFFF AND PUSH20 0xFFFFFFFFFFFFFFFFFFFFFFFFFFFFFFFFFFFFFFFF AND DUP2 MSTORE PUSH1 0x20 ADD SWAP1 DUP2 MSTORE PUSH1 0x20 ADD PUSH1 0x0 KECCAK256 PUSH1 0x0 DUP3 DUP3 SLOAD PUSH2 0x2446 SWAP2 SWAP1 PUSH2 0x30E4 JUMP JUMPDEST SWAP3 POP POP DUP2 SWAP1 SSTORE POP DUP1 PUSH1 0x9 PUSH1 0x0 DUP3 DUP3 SLOAD PUSH2 0x245F SWAP2 SWAP1 PUSH2 0x30E4 JUMP JUMPDEST SWAP3 POP POP DUP2 SWAP1 SSTORE POP PUSH1 0x11 PUSH1 0x0 SWAP1 SLOAD SWAP1 PUSH2 0x100 EXP SWAP1 DIV PUSH20 0xFFFFFFFFFFFFFFFFFFFFFFFFFFFFFFFFFFFFFFFF AND PUSH20 0xFFFFFFFFFFFFFFFFFFFFFFFFFFFFFFFFFFFFFFFF AND PUSH4 0x40C10F19 CALLER DUP4 PUSH1 0x40 MLOAD DUP4 PUSH4 0xFFFFFFFF AND PUSH1 0xE0 SHL DUP2 MSTORE PUSH1 0x4 ADD PUSH2 0x24C3 SWAP3 SWAP2 SWAP1 PUSH2 0x3525 JUMP JUMPDEST PUSH1 0x0 PUSH1 0x40 MLOAD DUP1 DUP4 SUB DUP2 PUSH1 0x0 DUP8 DUP1 EXTCODESIZE ISZERO DUP1 ISZERO PUSH2 0x24DD JUMPI PUSH1 0x0 DUP1 REVERT JUMPDEST POP GAS CALL ISZERO DUP1 ISZERO PUSH2 0x24F1 JUMPI RETURNDATASIZE PUSH1 0x0 DUP1 RETURNDATACOPY RETURNDATASIZE PUSH1 0x0 REVERT JUMPDEST POP POP POP POP PUSH1 0x5 SLOAD PUSH1 0xB PUSH1 0x0 CALLER PUSH20 0xFFFFFFFFFFFFFFFFFFFFFFFFFFFFFFFFFFFFFFFF AND PUSH20 0xFFFFFFFFFFFFFFFFFFFFFFFFFFFFFFFFFFFFFFFF AND DUP2 MSTORE PUSH1 0x20 ADD SWAP1 DUP2 MSTORE PUSH1 0x20 ADD PUSH1 0x0 KECCAK256 DUP2 SWAP1 SSTORE POP POP JUMP JUMPDEST PUSH1 0x0 ISZERO ISZERO PUSH1 0x3 PUSH1 0x0 CALLER PUSH20 0xFFFFFFFFFFFFFFFFFFFFFFFFFFFFFFFFFFFFFFFF AND PUSH20 0xFFFFFFFFFFFFFFFFFFFFFFFFFFFFFFFFFFFFFFFF AND DUP2 MSTORE PUSH1 0x20 ADD SWAP1 DUP2 MSTORE PUSH1 0x20 ADD PUSH1 0x0 KECCAK256 PUSH1 0x0 PUSH1 0x5 SLOAD DUP2 MSTORE PUSH1 0x20 ADD SWAP1 DUP2 MSTORE PUSH1 0x20 ADD PUSH1 0x0 KECCAK256 PUSH1 0x0 ADD PUSH1 0x0 SWAP1 SLOAD SWAP1 PUSH2 0x100 EXP SWAP1 DIV PUSH1 0xFF AND ISZERO ISZERO EQ PUSH2 0x25E7 JUMPI PUSH1 0x40 MLOAD PUSH32 0x8C379A000000000000000000000000000000000000000000000000000000000 DUP2 MSTORE PUSH1 0x4 ADD PUSH2 0x25DE SWAP1 PUSH2 0x3B28 JUMP JUMPDEST PUSH1 0x40 MLOAD DUP1 SWAP2 SUB SWAP1 REVERT JUMPDEST PUSH1 0x0 ISZERO ISZERO PUSH1 0x3 PUSH1 0x0 CALLER PUSH20 0xFFFFFFFFFFFFFFFFFFFFFFFFFFFFFFFFFFFFFFFF AND PUSH20 0xFFFFFFFFFFFFFFFFFFFFFFFFFFFFFFFFFFFFFFFF AND DUP2 MSTORE PUSH1 0x20 ADD SWAP1 DUP2 MSTORE PUSH1 0x20 ADD PUSH1 0x0 KECCAK256 PUSH1 0x0 PUSH1 0x5 SLOAD DUP2 MSTORE PUSH1 0x20 ADD SWAP1 DUP2 MSTORE PUSH1 0x20 ADD PUSH1 0x0 KECCAK256 PUSH1 0x0 ADD PUSH1 0x1 SWAP1 SLOAD SWAP1 PUSH2 0x100 EXP SWAP1 DIV PUSH1 0xFF AND ISZERO ISZERO EQ PUSH2 0x2690 JUMPI PUSH1 0x40 MLOAD PUSH32 0x8C379A000000000000000000000000000000000000000000000000000000000 DUP2 MSTORE PUSH1 0x4 ADD PUSH2 0x2687 SWAP1 PUSH2 0x385A JUMP JUMPDEST PUSH1 0x40 MLOAD DUP1 SWAP2 SUB SWAP1 REVERT JUMPDEST PUSH1 0x1 PUSH1 0x3 PUSH1 0x0 CALLER PUSH20 0xFFFFFFFFFFFFFFFFFFFFFFFFFFFFFFFFFFFFFFFF AND PUSH20 0xFFFFFFFFFFFFFFFFFFFFFFFFFFFFFFFFFFFFFFFF AND DUP2 MSTORE PUSH1 0x20 ADD SWAP1 DUP2 MSTORE PUSH1 0x20 ADD PUSH1 0x0 KECCAK256 PUSH1 0x0 PUSH1 0x5 SLOAD DUP2 MSTORE PUSH1 0x20 ADD SWAP1 DUP2 MSTORE PUSH1 0x20 ADD PUSH1 0x0 KECCAK256 PUSH1 0x0 ADD PUSH1 0x0 PUSH2 0x100 EXP DUP2 SLOAD DUP2 PUSH1 0xFF MUL NOT AND SWAP1 DUP4 ISZERO ISZERO MUL OR SWAP1 SSTORE POP JUMP JUMPDEST PUSH2 0x2708 PUSH2 0x2907 JUMP JUMPDEST PUSH20 0xFFFFFFFFFFFFFFFFFFFFFFFFFFFFFFFFFFFFFFFF AND PUSH2 0x2726 PUSH2 0x14B0 JUMP JUMPDEST PUSH20 0xFFFFFFFFFFFFFFFFFFFFFFFFFFFFFFFFFFFFFFFF AND EQ PUSH2 0x277C JUMPI PUSH1 0x40 MLOAD PUSH32 0x8C379A000000000000000000000000000000000000000000000000000000000 DUP2 MSTORE PUSH1 0x4 ADD PUSH2 0x2773 SWAP1 PUSH2 0x3B94 JUMP JUMPDEST PUSH1 0x40 MLOAD DUP1 SWAP2 SUB SWAP1 REVERT JUMPDEST JUMP JUMPDEST PUSH2 0x2786 PUSH2 0x290F JUMP JUMPDEST PUSH1 0x0 DUP1 PUSH1 0x0 PUSH2 0x100 EXP DUP2 SLOAD DUP2 PUSH1 0xFF MUL NOT AND SWAP1 DUP4 ISZERO ISZERO MUL OR SWAP1 SSTORE POP PUSH32 0x5DB9EE0A495BF2E6FF9C91A7834C1BA4FDD244A5E8AA4E537BD38AEAE4B073AA PUSH2 0x27C9 PUSH2 0x2907 JUMP JUMPDEST PUSH1 0x40 MLOAD PUSH2 0x27D6 SWAP2 SWAP1 PUSH2 0x2D96 JUMP JUMPDEST PUSH1 0x40 MLOAD DUP1 SWAP2 SUB SWAP1 LOG1 JUMP JUMPDEST PUSH1 0x0 DUP1 PUSH1 0x1 SWAP1 SLOAD SWAP1 PUSH2 0x100 EXP SWAP1 DIV PUSH20 0xFFFFFFFFFFFFFFFFFFFFFFFFFFFFFFFFFFFFFFFF AND SWAP1 POP DUP2 PUSH1 0x0 PUSH1 0x1 PUSH2 0x100 EXP DUP2 SLOAD DUP2 PUSH20 0xFFFFFFFFFFFFFFFFFFFFFFFFFFFFFFFFFFFFFFFF MUL NOT AND SWAP1 DUP4 PUSH20 0xFFFFFFFFFFFFFFFFFFFFFFFFFFFFFFFFFFFFFFFF AND MUL OR SWAP1 SSTORE POP DUP2 PUSH20 0xFFFFFFFFFFFFFFFFFFFFFFFFFFFFFFFFFFFFFFFF AND DUP2 PUSH20 0xFFFFFFFFFFFFFFFFFFFFFFFFFFFFFFFFFFFFFFFF AND PUSH32 0x8BE0079C531659141344CD1FD0A4F28419497F9722A3DAAFE3B4186F6B6457E0 PUSH1 0x40 MLOAD PUSH1 0x40 MLOAD DUP1 SWAP2 SUB SWAP1 LOG3 POP POP JUMP JUMPDEST PUSH2 0x28AD PUSH2 0x2958 JUMP JUMPDEST PUSH1 0x1 PUSH1 0x0 DUP1 PUSH2 0x100 EXP DUP2 SLOAD DUP2 PUSH1 0xFF MUL NOT AND SWAP1 DUP4 ISZERO ISZERO MUL OR SWAP1 SSTORE POP PUSH32 0x62E78CEA01BEE320CD4E420270B5EA74000D11B0C9F74754EBDBFC544B05A258 PUSH2 0x28F0 PUSH2 0x2907 JUMP JUMPDEST PUSH1 0x40 MLOAD PUSH2 0x28FD SWAP2 SWAP1 PUSH2 0x2D96 JUMP JUMPDEST PUSH1 0x40 MLOAD DUP1 SWAP2 SUB SWAP1 LOG1 JUMP JUMPDEST PUSH1 0x0 CALLER SWAP1 POP SWAP1 JUMP JUMPDEST PUSH2 0x2917 PUSH2 0x109E JUMP JUMPDEST PUSH2 0x2956 JUMPI PUSH1 0x40 MLOAD PUSH32 0x8C379A000000000000000000000000000000000000000000000000000000000 DUP2 MSTORE PUSH1 0x4 ADD PUSH2 0x294D SWAP1 PUSH2 0x3C00 JUMP JUMPDEST PUSH1 0x40 MLOAD DUP1 SWAP2 SUB SWAP1 REVERT JUMPDEST JUMP JUMPDEST PUSH2 0x2960 PUSH2 0x109E JUMP JUMPDEST ISZERO PUSH2 0x29A0 JUMPI PUSH1 0x40 MLOAD PUSH32 0x8C379A000000000000000000000000000000000000000000000000000000000 DUP2 MSTORE PUSH1 0x4 ADD PUSH2 0x2997 SWAP1 PUSH2 0x3C6C JUMP JUMPDEST PUSH1 0x40 MLOAD DUP1 SWAP2 SUB SWAP1 REVERT JUMPDEST JUMP JUMPDEST PUSH1 0x40 MLOAD DUP1 PUSH2 0x140 ADD PUSH1 0x40 MSTORE DUP1 PUSH1 0xA SWAP1 JUMPDEST PUSH2 0x29BA PUSH2 0x2A2C JUMP JUMPDEST DUP2 MSTORE PUSH1 0x20 ADD SWAP1 PUSH1 0x1 SWAP1 SUB SWAP1 DUP2 PUSH2 0x29B2 JUMPI SWAP1 POP POP SWAP1 JUMP JUMPDEST PUSH1 0x40 MLOAD DUP1 PUSH2 0x160 ADD PUSH1 0x40 MSTORE DUP1 PUSH1 0xB SWAP1 JUMPDEST PUSH2 0x29E8 PUSH2 0x2A6A JUMP JUMPDEST DUP2 MSTORE PUSH1 0x20 ADD SWAP1 PUSH1 0x1 SWAP1 SUB SWAP1 DUP2 PUSH2 0x29E0 JUMPI SWAP1 POP POP SWAP1 JUMP JUMPDEST PUSH1 0x40 MLOAD DUP1 PUSH2 0x140 ADD PUSH1 0x40 MSTORE DUP1 PUSH1 0xA SWAP1 JUMPDEST PUSH2 0x2A16 PUSH2 0x2AA1 JUMP JUMPDEST DUP2 MSTORE PUSH1 0x20 ADD SWAP1 PUSH1 0x1 SWAP1 SUB SWAP1 DUP2 PUSH2 0x2A0E JUMPI SWAP1 POP POP SWAP1 JUMP JUMPDEST PUSH1 0x40 MLOAD DUP1 PUSH1 0x80 ADD PUSH1 0x40 MSTORE DUP1 PUSH1 0x0 DUP2 MSTORE PUSH1 0x20 ADD PUSH1 0x0 DUP2 MSTORE PUSH1 0x20 ADD PUSH1 0x0 PUSH20 0xFFFFFFFFFFFFFFFFFFFFFFFFFFFFFFFFFFFFFFFF AND DUP2 MSTORE PUSH1 0x20 ADD PUSH1 0x0 DUP2 MSTORE POP SWAP1 JUMP JUMPDEST PUSH1 0x40 MLOAD DUP1 PUSH1 0x60 ADD PUSH1 0x40 MSTORE DUP1 PUSH1 0x0 PUSH20 0xFFFFFFFFFFFFFFFFFFFFFFFFFFFFFFFFFFFFFFFF AND DUP2 MSTORE PUSH1 0x20 ADD PUSH1 0x0 DUP2 MSTORE PUSH1 0x20 ADD PUSH1 0x0 DUP2 MSTORE POP SWAP1 JUMP JUMPDEST PUSH1 0x40 MLOAD DUP1 PUSH1 0x80 ADD PUSH1 0x40 MSTORE DUP1 PUSH1 0x0 DUP2 MSTORE PUSH1 0x20 ADD PUSH1 0x0 DUP2 MSTORE PUSH1 0x20 ADD PUSH1 0x0 DUP2 MSTORE PUSH1 0x20 ADD PUSH1 0x0 DUP2 MSTORE POP SWAP1 JUMP JUMPDEST PUSH1 0x0 DUP2 SWAP1 POP SWAP2 SWAP1 POP JUMP JUMPDEST PUSH2 0x2ADC DUP2 PUSH2 0x2AC9 JUMP JUMPDEST DUP3 MSTORE POP POP JUMP JUMPDEST PUSH1 0x0 PUSH1 0x20 DUP3 ADD SWAP1 POP PUSH2 0x2AF7 PUSH1 0x0 DUP4 ADD DUP5 PUSH2 0x2AD3 JUMP JUMPDEST SWAP3 SWAP2 POP POP JUMP JUMPDEST PUSH1 0x0 DUP1 REVERT JUMPDEST PUSH2 0x2B0B DUP2 PUSH2 0x2AC9 JUMP JUMPDEST DUP2 EQ PUSH2 0x2B16 JUMPI PUSH1 0x0 DUP1 REVERT JUMPDEST POP JUMP JUMPDEST PUSH1 0x0 DUP2 CALLDATALOAD SWAP1 POP PUSH2 0x2B28 DUP2 PUSH2 0x2B02 JUMP JUMPDEST SWAP3 SWAP2 POP POP JUMP JUMPDEST PUSH1 0x0 PUSH1 0x20 DUP3 DUP5 SUB SLT ISZERO PUSH2 0x2B44 JUMPI PUSH2 0x2B43 PUSH2 0x2AFD JUMP JUMPDEST JUMPDEST PUSH1 0x0 PUSH2 0x2B52 DUP5 DUP3 DUP6 ADD PUSH2 0x2B19 JUMP JUMPDEST SWAP2 POP POP SWAP3 SWAP2 POP POP JUMP JUMPDEST PUSH1 0x0 PUSH1 0xA SWAP1 POP SWAP2 SWAP1 POP JUMP JUMPDEST PUSH1 0x0 DUP2 SWAP1 POP SWAP3 SWAP2 POP POP JUMP JUMPDEST PUSH1 0x0 DUP2 SWAP1 POP SWAP2 SWAP1 POP JUMP JUMPDEST PUSH2 0x2B84 DUP2 PUSH2 0x2AC9 JUMP JUMPDEST DUP3 MSTORE POP POP JUMP JUMPDEST PUSH1 0x0 PUSH20 0xFFFFFFFFFFFFFFFFFFFFFFFFFFFFFFFFFFFFFFFF DUP3 AND SWAP1 POP SWAP2 SWAP1 POP JUMP JUMPDEST PUSH1 0x0 PUSH2 0x2BB5 DUP3 PUSH2 0x2B8A JUMP JUMPDEST SWAP1 POP SWAP2 SWAP1 POP JUMP JUMPDEST PUSH2 0x2BC5 DUP2 PUSH2 0x2BAA JUMP JUMPDEST DUP3 MSTORE POP POP JUMP JUMPDEST PUSH1 0x80 DUP3 ADD PUSH1 0x0 DUP3 ADD MLOAD PUSH2 0x2BE1 PUSH1 0x0 DUP6 ADD DUP3 PUSH2 0x2B7B JUMP JUMPDEST POP PUSH1 0x20 DUP3 ADD MLOAD PUSH2 0x2BF4 PUSH1 0x20 DUP6 ADD DUP3 PUSH2 0x2B7B JUMP JUMPDEST POP PUSH1 0x40 DUP3 ADD MLOAD PUSH2 0x2C07 PUSH1 0x40 DUP6 ADD DUP3 PUSH2 0x2BBC JUMP JUMPDEST POP PUSH1 0x60 DUP3 ADD MLOAD PUSH2 0x2C1A PUSH1 0x60 DUP6 ADD DUP3 PUSH2 0x2B7B JUMP JUMPDEST POP POP POP POP JUMP JUMPDEST PUSH1 0x0 PUSH2 0x2C2C DUP4 DUP4 PUSH2 0x2BCB JUMP JUMPDEST PUSH1 0x80 DUP4 ADD SWAP1 POP SWAP3 SWAP2 POP POP JUMP JUMPDEST PUSH1 0x0 PUSH1 0x20 DUP3 ADD SWAP1 POP SWAP2 SWAP1 POP JUMP JUMPDEST PUSH2 0x2C4E DUP2 PUSH2 0x2B5B JUMP JUMPDEST PUSH2 0x2C58 DUP2 DUP5 PUSH2 0x2B66 JUMP JUMPDEST SWAP3 POP PUSH2 0x2C63 DUP3 PUSH2 0x2B71 JUMP JUMPDEST DUP1 PUSH1 0x0 JUMPDEST DUP4 DUP2 LT ISZERO PUSH2 0x2C94 JUMPI DUP2 MLOAD PUSH2 0x2C7B DUP8 DUP3 PUSH2 0x2C20 JUMP JUMPDEST SWAP7 POP PUSH2 0x2C86 DUP4 PUSH2 0x2C38 JUMP JUMPDEST SWAP3 POP POP PUSH1 0x1 DUP2 ADD SWAP1 POP PUSH2 0x2C67 JUMP JUMPDEST POP POP POP POP POP POP JUMP JUMPDEST PUSH1 0x0 PUSH2 0x500 DUP3 ADD SWAP1 POP PUSH2 0x2CB2 PUSH1 0x0 DUP4 ADD DUP5 PUSH2 0x2C45 JUMP JUMPDEST SWAP3 SWAP2 POP POP JUMP JUMPDEST PUSH2 0x2CC1 DUP2 PUSH2 0x2BAA JUMP JUMPDEST DUP2 EQ PUSH2 0x2CCC JUMPI PUSH1 0x0 DUP1 REVERT JUMPDEST POP JUMP JUMPDEST PUSH1 0x0 DUP2 CALLDATALOAD SWAP1 POP PUSH2 0x2CDE DUP2 PUSH2 0x2CB8 JUMP JUMPDEST SWAP3 SWAP2 POP POP JUMP JUMPDEST PUSH1 0x0 PUSH1 0x20 DUP3 DUP5 SUB SLT ISZERO PUSH2 0x2CFA JUMPI PUSH2 0x2CF9 PUSH2 0x2AFD JUMP JUMPDEST JUMPDEST PUSH1 0x0 PUSH2 0x2D08 DUP5 DUP3 DUP6 ADD PUSH2 0x2CCF JUMP JUMPDEST SWAP2 POP POP SWAP3 SWAP2 POP POP JUMP JUMPDEST PUSH1 0x0 DUP2 ISZERO ISZERO SWAP1 POP SWAP2 SWAP1 POP JUMP JUMPDEST PUSH2 0x2D26 DUP2 PUSH2 0x2D11 JUMP JUMPDEST DUP3 MSTORE POP POP JUMP JUMPDEST PUSH1 0x0 PUSH1 0x20 DUP3 ADD SWAP1 POP PUSH2 0x2D41 PUSH1 0x0 DUP4 ADD DUP5 PUSH2 0x2D1D JUMP JUMPDEST SWAP3 SWAP2 POP POP JUMP JUMPDEST PUSH1 0x0 DUP1 PUSH1 0x40 DUP4 DUP6 SUB SLT ISZERO PUSH2 0x2D5E JUMPI PUSH2 0x2D5D PUSH2 0x2AFD JUMP JUMPDEST JUMPDEST PUSH1 0x0 PUSH2 0x2D6C DUP6 DUP3 DUP7 ADD PUSH2 0x2CCF JUMP JUMPDEST SWAP3 POP POP PUSH1 0x20 PUSH2 0x2D7D DUP6 DUP3 DUP7 ADD PUSH2 0x2B19 JUMP JUMPDEST SWAP2 POP POP SWAP3 POP SWAP3 SWAP1 POP JUMP JUMPDEST PUSH2 0x2D90 DUP2 PUSH2 0x2BAA JUMP JUMPDEST DUP3 MSTORE POP POP JUMP JUMPDEST PUSH1 0x0 PUSH1 0x20 DUP3 ADD SWAP1 POP PUSH2 0x2DAB PUSH1 0x0 DUP4 ADD DUP5 PUSH2 0x2D87 JUMP JUMPDEST SWAP3 SWAP2 POP POP JUMP JUMPDEST PUSH1 0x0 DUP1 PUSH1 0x40 DUP4 DUP6 SUB SLT ISZERO PUSH2 0x2DC8 JUMPI PUSH2 0x2DC7 PUSH2 0x2AFD JUMP JUMPDEST JUMPDEST PUSH1 0x0 PUSH2 0x2DD6 DUP6 DUP3 DUP7 ADD PUSH2 0x2B19 JUMP JUMPDEST SWAP3 POP POP PUSH1 0x20 PUSH2 0x2DE7 DUP6 DUP3 DUP7 ADD PUSH2 0x2B19 JUMP JUMPDEST SWAP2 POP POP SWAP3 POP SWAP3 SWAP1 POP JUMP JUMPDEST PUSH1 0x0 PUSH1 0xB SWAP1 POP SWAP2 SWAP1 POP JUMP JUMPDEST PUSH1 0x0 DUP2 SWAP1 POP SWAP3 SWAP2 POP POP JUMP JUMPDEST PUSH1 0x0 DUP2 SWAP1 POP SWAP2 SWAP1 POP JUMP JUMPDEST PUSH1 0x60 DUP3 ADD PUSH1 0x0 DUP3 ADD MLOAD PUSH2 0x2E27 PUSH1 0x0 DUP6 ADD DUP3 PUSH2 0x2BBC JUMP JUMPDEST POP PUSH1 0x20 DUP3 ADD MLOAD PUSH2 0x2E3A PUSH1 0x20 DUP6 ADD DUP3 PUSH2 0x2B7B JUMP JUMPDEST POP PUSH1 0x40 DUP3 ADD MLOAD PUSH2 0x2E4D PUSH1 0x40 DUP6 ADD DUP3 PUSH2 0x2B7B JUMP JUMPDEST POP POP POP POP JUMP JUMPDEST PUSH1 0x0 PUSH2 0x2E5F DUP4 DUP4 PUSH2 0x2E11 JUMP JUMPDEST PUSH1 0x60 DUP4 ADD SWAP1 POP SWAP3 SWAP2 POP POP JUMP JUMPDEST PUSH1 0x0 PUSH1 0x20 DUP3 ADD SWAP1 POP SWAP2 SWAP1 POP JUMP JUMPDEST PUSH2 0x2E81 DUP2 PUSH2 0x2DF1 JUMP JUMPDEST PUSH2 0x2E8B DUP2 DUP5 PUSH2 0x2DFC JUMP JUMPDEST SWAP3 POP PUSH2 0x2E96 DUP3 PUSH2 0x2E07 JUMP JUMPDEST DUP1 PUSH1 0x0 JUMPDEST DUP4 DUP2 LT ISZERO PUSH2 0x2EC7 JUMPI DUP2 MLOAD PUSH2 0x2EAE DUP8 DUP3 PUSH2 0x2E53 JUMP JUMPDEST SWAP7 POP PUSH2 0x2EB9 DUP4 PUSH2 0x2E6B JUMP JUMPDEST SWAP3 POP POP PUSH1 0x1 DUP2 ADD SWAP1 POP PUSH2 0x2E9A JUMP JUMPDEST POP POP POP POP POP POP JUMP JUMPDEST PUSH1 0x0 PUSH2 0x420 DUP3 ADD SWAP1 POP PUSH2 0x2EE5 PUSH1 0x0 DUP4 ADD DUP5 PUSH2 0x2E78 JUMP JUMPDEST SWAP3 SWAP2 POP POP JUMP JUMPDEST PUSH1 0x0 PUSH1 0xA SWAP1 POP SWAP2 SWAP1 POP JUMP JUMPDEST PUSH1 0x0 DUP2 SWAP1 POP SWAP3 SWAP2 POP POP JUMP JUMPDEST PUSH1 0x0 DUP2 SWAP1 POP SWAP2 SWAP1 POP JUMP JUMPDEST PUSH1 0x80 DUP3 ADD PUSH1 0x0 DUP3 ADD MLOAD PUSH2 0x2F21 PUSH1 0x0 DUP6 ADD DUP3 PUSH2 0x2B7B JUMP JUMPDEST POP PUSH1 0x20 DUP3 ADD MLOAD PUSH2 0x2F34 PUSH1 0x20 DUP6 ADD DUP3 PUSH2 0x2B7B JUMP JUMPDEST POP PUSH1 0x40 DUP3 ADD MLOAD PUSH2 0x2F47 PUSH1 0x40 DUP6 ADD DUP3 PUSH2 0x2B7B JUMP JUMPDEST POP PUSH1 0x60 DUP3 ADD MLOAD PUSH2 0x2F5A PUSH1 0x60 DUP6 ADD DUP3 PUSH2 0x2B7B JUMP JUMPDEST POP POP POP POP JUMP JUMPDEST PUSH1 0x0 PUSH2 0x2F6C DUP4 DUP4 PUSH2 0x2F0B JUMP JUMPDEST PUSH1 0x80 DUP4 ADD SWAP1 POP SWAP3 SWAP2 POP POP JUMP JUMPDEST PUSH1 0x0 PUSH1 0x20 DUP3 ADD SWAP1 POP SWAP2 SWAP1 POP JUMP JUMPDEST PUSH2 0x2F8E DUP2 PUSH2 0x2EEB JUMP JUMPDEST PUSH2 0x2F98 DUP2 DUP5 PUSH2 0x2EF6 JUMP JUMPDEST SWAP3 POP PUSH2 0x2FA3 DUP3 PUSH2 0x2F01 JUMP JUMPDEST DUP1 PUSH1 0x0 JUMPDEST DUP4 DUP2 LT ISZERO PUSH2 0x2FD4 JUMPI DUP2 MLOAD PUSH2 0x2FBB DUP8 DUP3 PUSH2 0x2F60 JUMP JUMPDEST SWAP7 POP PUSH2 0x2FC6 DUP4 PUSH2 0x2F78 JUMP JUMPDEST SWAP3 POP POP PUSH1 0x1 DUP2 ADD SWAP1 POP PUSH2 0x2FA7 JUMP JUMPDEST POP POP POP POP POP POP JUMP JUMPDEST PUSH1 0x0 PUSH2 0x500 DUP3 ADD SWAP1 POP PUSH2 0x2FF2 PUSH1 0x0 DUP4 ADD DUP5 PUSH2 0x2F85 JUMP JUMPDEST SWAP3 SWAP2 POP POP JUMP JUMPDEST PUSH1 0x0 DUP1 PUSH1 0x40 DUP4 DUP6 SUB SLT ISZERO PUSH2 0x300F JUMPI PUSH2 0x300E PUSH2 0x2AFD JUMP JUMPDEST JUMPDEST PUSH1 0x0 PUSH2 0x301D DUP6 DUP3 DUP7 ADD PUSH2 0x2B19 JUMP JUMPDEST SWAP3 POP POP PUSH1 0x20 PUSH2 0x302E DUP6 DUP3 DUP7 ADD PUSH2 0x2CCF JUMP JUMPDEST SWAP2 POP POP SWAP3 POP SWAP3 SWAP1 POP JUMP JUMPDEST PUSH1 0x0 DUP3 DUP3 MSTORE PUSH1 0x20 DUP3 ADD SWAP1 POP SWAP3 SWAP2 POP POP JUMP JUMPDEST PUSH32 0x4E6F206465706F7369742C204E6F2047616D6521000000000000000000000000 PUSH1 0x0 DUP3 ADD MSTORE POP JUMP JUMPDEST PUSH1 0x0 PUSH2 0x307F PUSH1 0x14 DUP4 PUSH2 0x3038 JUMP JUMPDEST SWAP2 POP PUSH2 0x308A DUP3 PUSH2 0x3049 JUMP JUMPDEST PUSH1 0x20 DUP3 ADD SWAP1 POP SWAP2 SWAP1 POP JUMP JUMPDEST PUSH1 0x0 PUSH1 0x20 DUP3 ADD SWAP1 POP DUP2 DUP2 SUB PUSH1 0x0 DUP4 ADD MSTORE PUSH2 0x30AE DUP2 PUSH2 0x3072 JUMP JUMPDEST SWAP1 POP SWAP2 SWAP1 POP JUMP JUMPDEST PUSH32 0x4E487B7100000000000000000000000000000000000000000000000000000000 PUSH1 0x0 MSTORE PUSH1 0x11 PUSH1 0x4 MSTORE PUSH1 0x24 PUSH1 0x0 REVERT JUMPDEST PUSH1 0x0 PUSH2 0x30EF DUP3 PUSH2 0x2AC9 JUMP JUMPDEST SWAP2 POP PUSH2 0x30FA DUP4 PUSH2 0x2AC9 JUMP JUMPDEST SWAP3 POP DUP3 DUP3 ADD SWAP1 POP DUP1 DUP3 GT ISZERO PUSH2 0x3112 JUMPI PUSH2 0x3111 PUSH2 0x30B5 JUMP JUMPDEST JUMPDEST SWAP3 SWAP2 POP POP JUMP JUMPDEST PUSH32 0x4E487B7100000000000000000000000000000000000000000000000000000000 PUSH1 0x0 MSTORE PUSH1 0x32 PUSH1 0x4 MSTORE PUSH1 0x24 PUSH1 0x0 REVERT JUMPDEST PUSH1 0x0 PUSH2 0x3152 DUP3 PUSH2 0x2AC9 JUMP JUMPDEST SWAP2 POP PUSH2 0x315D DUP4 PUSH2 0x2AC9 JUMP JUMPDEST SWAP3 POP DUP3 DUP3 SUB SWAP1 POP DUP2 DUP2 GT ISZERO PUSH2 0x3175 JUMPI PUSH2 0x3174 PUSH2 0x30B5 JUMP JUMPDEST JUMPDEST SWAP3 SWAP2 POP POP JUMP JUMPDEST PUSH1 0x0 DUP2 PUSH1 0x1 SHR SWAP1 POP SWAP2 SWAP1 POP JUMP JUMPDEST PUSH1 0x0 DUP1 DUP3 SWAP2 POP DUP4 SWAP1 POP JUMPDEST PUSH1 0x1 DUP6 GT ISZERO PUSH2 0x31D2 JUMPI DUP1 DUP7 DIV DUP2 GT ISZERO PUSH2 0x31AE JUMPI PUSH2 0x31AD PUSH2 0x30B5 JUMP JUMPDEST JUMPDEST PUSH1 0x1 DUP6 AND ISZERO PUSH2 0x31BD JUMPI DUP1 DUP3 MUL SWAP2 POP JUMPDEST DUP1 DUP2 MUL SWAP1 POP PUSH2 0x31CB DUP6 PUSH2 0x317B JUMP JUMPDEST SWAP5 POP PUSH2 0x3192 JUMP JUMPDEST SWAP5 POP SWAP5 SWAP3 POP POP POP JUMP JUMPDEST PUSH1 0x0 DUP3 PUSH2 0x31EB JUMPI PUSH1 0x1 SWAP1 POP PUSH2 0x32A7 JUMP JUMPDEST DUP2 PUSH2 0x31F9 JUMPI PUSH1 0x0 SWAP1 POP PUSH2 0x32A7 JUMP JUMPDEST DUP2 PUSH1 0x1 DUP2 EQ PUSH2 0x320F JUMPI PUSH1 0x2 DUP2 EQ PUSH2 0x3219 JUMPI PUSH2 0x3248 JUMP JUMPDEST PUSH1 0x1 SWAP2 POP POP PUSH2 0x32A7 JUMP JUMPDEST PUSH1 0xFF DUP5 GT ISZERO PUSH2 0x322B JUMPI PUSH2 0x322A PUSH2 0x30B5 JUMP JUMPDEST JUMPDEST DUP4 PUSH1 0x2 EXP SWAP2 POP DUP5 DUP3 GT ISZERO PUSH2 0x3242 JUMPI PUSH2 0x3241 PUSH2 0x30B5 JUMP JUMPDEST JUMPDEST POP PUSH2 0x32A7 JUMP JUMPDEST POP PUSH1 0x20 DUP4 LT PUSH2 0x133 DUP4 LT AND PUSH1 0x4E DUP5 LT PUSH1 0xB DUP5 LT AND OR ISZERO PUSH2 0x327D JUMPI DUP3 DUP3 EXP SWAP1 POP DUP4 DUP2 GT ISZERO PUSH2 0x3278 JUMPI PUSH2 0x3277 PUSH2 0x30B5 JUMP JUMPDEST JUMPDEST PUSH2 0x32A7 JUMP JUMPDEST PUSH2 0x328A DUP5 DUP5 DUP5 PUSH1 0x1 PUSH2 0x3188 JUMP JUMPDEST SWAP3 POP SWAP1 POP DUP2 DUP5 DIV DUP2 GT ISZERO PUSH2 0x32A1 JUMPI PUSH2 0x32A0 PUSH2 0x30B5 JUMP JUMPDEST JUMPDEST DUP2 DUP2 MUL SWAP1 POP JUMPDEST SWAP4 SWAP3 POP POP POP JUMP JUMPDEST PUSH1 0x0 PUSH1 0xFF DUP3 AND SWAP1 POP SWAP2 SWAP1 POP JUMP JUMPDEST PUSH1 0x0 PUSH2 0x32C6 DUP3 PUSH2 0x2AC9 JUMP JUMPDEST SWAP2 POP PUSH2 0x32D1 DUP4 PUSH2 0x32AE JUMP JUMPDEST SWAP3 POP PUSH2 0x32FE PUSH32 0xFFFFFFFFFFFFFFFFFFFFFFFFFFFFFFFFFFFFFFFFFFFFFFFFFFFFFFFFFFFFFFFF DUP5 DUP5 PUSH2 0x31DB JUMP JUMPDEST SWAP1 POP SWAP3 SWAP2 POP POP JUMP JUMPDEST PUSH1 0x0 PUSH2 0x3311 DUP3 PUSH2 0x2AC9 JUMP JUMPDEST SWAP2 POP PUSH2 0x331C DUP4 PUSH2 0x2AC9 JUMP JUMPDEST SWAP3 POP DUP3 DUP3 MUL PUSH2 0x332A DUP2 PUSH2 0x2AC9 JUMP JUMPDEST SWAP2 POP DUP3 DUP3 DIV DUP5 EQ DUP4 ISZERO OR PUSH2 0x3341 JUMPI PUSH2 0x3340 PUSH2 0x30B5 JUMP JUMPDEST JUMPDEST POP SWAP3 SWAP2 POP POP JUMP JUMPDEST PUSH32 0x4E487B7100000000000000000000000000000000000000000000000000000000 PUSH1 0x0 MSTORE PUSH1 0x12 PUSH1 0x4 MSTORE PUSH1 0x24 PUSH1 0x0 REVERT JUMPDEST PUSH1 0x0 PUSH2 0x3382 DUP3 PUSH2 0x2AC9 JUMP JUMPDEST SWAP2 POP PUSH2 0x338D DUP4 PUSH2 0x2AC9 JUMP JUMPDEST SWAP3 POP DUP3 PUSH2 0x339D JUMPI PUSH2 0x339C PUSH2 0x3348 JUMP JUMPDEST JUMPDEST DUP3 DUP3 DIV SWAP1 POP SWAP3 SWAP2 POP POP JUMP JUMPDEST PUSH1 0x0 PUSH2 0x33B3 DUP3 PUSH2 0x2AC9 JUMP JUMPDEST SWAP2 POP PUSH32 0xFFFFFFFFFFFFFFFFFFFFFFFFFFFFFFFFFFFFFFFFFFFFFFFFFFFFFFFFFFFFFFFF DUP3 SUB PUSH2 0x33E5 JUMPI PUSH2 0x33E4 PUSH2 0x30B5 JUMP JUMPDEST JUMPDEST PUSH1 0x1 DUP3 ADD SWAP1 POP SWAP2 SWAP1 POP JUMP JUMPDEST PUSH32 0x496E73756666696369656E742062616C616E6365000000000000000000000000 PUSH1 0x0 DUP3 ADD MSTORE POP JUMP JUMPDEST PUSH1 0x0 PUSH2 0x3426 PUSH1 0x14 DUP4 PUSH2 0x3038 JUMP JUMPDEST SWAP2 POP PUSH2 0x3431 DUP3 PUSH2 0x33F0 JUMP JUMPDEST PUSH1 0x20 DUP3 ADD SWAP1 POP SWAP2 SWAP1 POP JUMP JUMPDEST PUSH1 0x0 PUSH1 0x20 DUP3 ADD SWAP1 POP DUP2 DUP2 SUB PUSH1 0x0 DUP4 ADD MSTORE PUSH2 0x3455 DUP2 PUSH2 0x3419 JUMP JUMPDEST SWAP1 POP SWAP2 SWAP1 POP JUMP JUMPDEST PUSH32 0x506C656173652077616974203220636F6E746573747320616674657220796F75 PUSH1 0x0 DUP3 ADD MSTORE PUSH32 0x72206465706F73697420746F2077697464726177000000000000000000000000 PUSH1 0x20 DUP3 ADD MSTORE POP JUMP JUMPDEST PUSH1 0x0 PUSH2 0x34B8 PUSH1 0x34 DUP4 PUSH2 0x3038 JUMP JUMPDEST SWAP2 POP PUSH2 0x34C3 DUP3 PUSH2 0x345C JUMP JUMPDEST PUSH1 0x40 DUP3 ADD SWAP1 POP SWAP2 SWAP1 POP JUMP JUMPDEST PUSH1 0x0 PUSH1 0x20 DUP3 ADD SWAP1 POP DUP2 DUP2 SUB PUSH1 0x0 DUP4 ADD MSTORE PUSH2 0x34E7 DUP2 PUSH2 0x34AB JUMP JUMPDEST SWAP1 POP SWAP2 SWAP1 POP JUMP JUMPDEST PUSH1 0x0 PUSH1 0x60 DUP3 ADD SWAP1 POP PUSH2 0x3503 PUSH1 0x0 DUP4 ADD DUP7 PUSH2 0x2D87 JUMP JUMPDEST PUSH2 0x3510 PUSH1 0x20 DUP4 ADD DUP6 PUSH2 0x2AD3 JUMP JUMPDEST PUSH2 0x351D PUSH1 0x40 DUP4 ADD DUP5 PUSH2 0x2D87 JUMP JUMPDEST SWAP5 SWAP4 POP POP POP POP JUMP JUMPDEST PUSH1 0x0 PUSH1 0x40 DUP3 ADD SWAP1 POP PUSH2 0x353A PUSH1 0x0 DUP4 ADD DUP6 PUSH2 0x2D87 JUMP JUMPDEST PUSH2 0x3547 PUSH1 0x20 DUP4 ADD DUP5 PUSH2 0x2AD3 JUMP JUMPDEST SWAP4 SWAP3 POP POP POP JUMP JUMPDEST PUSH2 0x3557 DUP2 PUSH2 0x2D11 JUMP JUMPDEST DUP2 EQ PUSH2 0x3562 JUMPI PUSH1 0x0 DUP1 REVERT JUMPDEST POP JUMP JUMPDEST PUSH1 0x0 DUP2 MLOAD SWAP1 POP PUSH2 0x3574 DUP2 PUSH2 0x354E JUMP JUMPDEST SWAP3 SWAP2 POP POP JUMP JUMPDEST PUSH1 0x0 PUSH1 0x20 DUP3 DUP5 SUB SLT ISZERO PUSH2 0x3590 JUMPI PUSH2 0x358F PUSH2 0x2AFD JUMP JUMPDEST JUMPDEST PUSH1 0x0 PUSH2 0x359E DUP5 DUP3 DUP6 ADD PUSH2 0x3565 JUMP JUMPDEST SWAP2 POP POP SWAP3 SWAP2 POP POP JUMP JUMPDEST PUSH32 0x596F7520617265206E6F7420616C6C6F77656420746F2075706461746520636F PUSH1 0x0 DUP3 ADD MSTORE PUSH32 0x6E74657374210000000000000000000000000000000000000000000000000000 PUSH1 0x20 DUP3 ADD MSTORE POP JUMP JUMPDEST PUSH1 0x0 PUSH2 0x3603 PUSH1 0x26 DUP4 PUSH2 0x3038 JUMP JUMPDEST SWAP2 POP PUSH2 0x360E DUP3 PUSH2 0x35A7 JUMP JUMPDEST PUSH1 0x40 DUP3 ADD SWAP1 POP SWAP2 SWAP1 POP JUMP JUMPDEST PUSH1 0x0 PUSH1 0x20 DUP3 ADD SWAP1 POP DUP2 DUP2 SUB PUSH1 0x0 DUP4 ADD MSTORE PUSH2 0x3632 DUP2 PUSH2 0x35F6 JUMP JUMPDEST SWAP1 POP SWAP2 SWAP1 POP JUMP JUMPDEST PUSH32 0x4E6F20636F6E7465737420757064617465210000000000000000000000000000 PUSH1 0x0 DUP3 ADD MSTORE POP JUMP JUMPDEST PUSH1 0x0 PUSH2 0x366F PUSH1 0x12 DUP4 PUSH2 0x3038 JUMP JUMPDEST SWAP2 POP PUSH2 0x367A DUP3 PUSH2 0x3639 JUMP JUMPDEST PUSH1 0x20 DUP3 ADD SWAP1 POP SWAP2 SWAP1 POP JUMP JUMPDEST PUSH1 0x0 PUSH1 0x20 DUP3 ADD SWAP1 POP DUP2 DUP2 SUB PUSH1 0x0 DUP4 ADD MSTORE PUSH2 0x369E DUP2 PUSH2 0x3662 JUMP JUMPDEST SWAP1 POP SWAP2 SWAP1 POP JUMP JUMPDEST PUSH1 0x0 DUP2 MLOAD SWAP1 POP PUSH2 0x36B4 DUP2 PUSH2 0x2B02 JUMP JUMPDEST SWAP3 SWAP2 POP POP JUMP JUMPDEST PUSH1 0x0 PUSH1 0x20 DUP3 DUP5 SUB SLT ISZERO PUSH2 0x36D0 JUMPI PUSH2 0x36CF PUSH2 0x2AFD JUMP JUMPDEST JUMPDEST PUSH1 0x0 PUSH2 0x36DE DUP5 DUP3 DUP6 ADD PUSH2 0x36A5 JUMP JUMPDEST SWAP2 POP POP SWAP3 SWAP2 POP POP JUMP JUMPDEST PUSH1 0x0 PUSH2 0x36F2 DUP3 PUSH2 0x2AC9 JUMP JUMPDEST SWAP2 POP PUSH1 0x0 DUP3 SUB PUSH2 0x3705 JUMPI PUSH2 0x3704 PUSH2 0x30B5 JUMP JUMPDEST JUMPDEST PUSH1 0x1 DUP3 SUB SWAP1 POP SWAP2 SWAP1 POP JUMP JUMPDEST PUSH32 0x596F7520617265206E6F7420616C6C6F77656420746F20736176652061207363 PUSH1 0x0 DUP3 ADD MSTORE PUSH32 0x6F72652100000000000000000000000000000000000000000000000000000000 PUSH1 0x20 DUP3 ADD MSTORE POP JUMP JUMPDEST PUSH1 0x0 PUSH2 0x376C PUSH1 0x24 DUP4 PUSH2 0x3038 JUMP JUMPDEST SWAP2 POP PUSH2 0x3777 DUP3 PUSH2 0x3710 JUMP JUMPDEST PUSH1 0x40 DUP3 ADD SWAP1 POP SWAP2 SWAP1 POP JUMP JUMPDEST PUSH1 0x0 PUSH1 0x20 DUP3 ADD SWAP1 POP DUP2 DUP2 SUB PUSH1 0x0 DUP4 ADD MSTORE PUSH2 0x379B DUP2 PUSH2 0x375F JUMP JUMPDEST SWAP1 POP SWAP2 SWAP1 POP JUMP JUMPDEST PUSH32 0x4E6F20726571756573742066726F6D20706C6179657200000000000000000000 PUSH1 0x0 DUP3 ADD MSTORE POP JUMP JUMPDEST PUSH1 0x0 PUSH2 0x37D8 PUSH1 0x16 DUP4 PUSH2 0x3038 JUMP JUMPDEST SWAP2 POP PUSH2 0x37E3 DUP3 PUSH2 0x37A2 JUMP JUMPDEST PUSH1 0x20 DUP3 ADD SWAP1 POP SWAP2 SWAP1 POP JUMP JUMPDEST PUSH1 0x0 PUSH1 0x20 DUP3 ADD SWAP1 POP DUP2 DUP2 SUB PUSH1 0x0 DUP4 ADD MSTORE PUSH2 0x3807 DUP2 PUSH2 0x37CB JUMP JUMPDEST SWAP1 POP SWAP2 SWAP1 POP JUMP JUMPDEST PUSH32 0x506C6179657220616C726561647920706C617965640000000000000000000000 PUSH1 0x0 DUP3 ADD MSTORE POP JUMP JUMPDEST PUSH1 0x0 PUSH2 0x3844 PUSH1 0x15 DUP4 PUSH2 0x3038 JUMP JUMPDEST SWAP2 POP PUSH2 0x384F DUP3 PUSH2 0x380E JUMP JUMPDEST PUSH1 0x20 DUP3 ADD SWAP1 POP SWAP2 SWAP1 POP JUMP JUMPDEST PUSH1 0x0 PUSH1 0x20 DUP3 ADD SWAP1 POP DUP2 DUP2 SUB PUSH1 0x0 DUP4 ADD MSTORE PUSH2 0x3873 DUP2 PUSH2 0x3837 JUMP JUMPDEST SWAP1 POP SWAP2 SWAP1 POP JUMP JUMPDEST PUSH32 0x4F776E61626C653A206E6577206F776E657220697320746865207A65726F2061 PUSH1 0x0 DUP3 ADD MSTORE PUSH32 0x6464726573730000000000000000000000000000000000000000000000000000 PUSH1 0x20 DUP3 ADD MSTORE POP JUMP JUMPDEST PUSH1 0x0 PUSH2 0x38D6 PUSH1 0x26 DUP4 PUSH2 0x3038 JUMP JUMPDEST SWAP2 POP PUSH2 0x38E1 DUP3 PUSH2 0x387A JUMP JUMPDEST PUSH1 0x40 DUP3 ADD SWAP1 POP SWAP2 SWAP1 POP JUMP JUMPDEST PUSH1 0x0 PUSH1 0x20 DUP3 ADD SWAP1 POP DUP2 DUP2 SUB PUSH1 0x0 DUP4 ADD MSTORE PUSH2 0x3905 DUP2 PUSH2 0x38C9 JUMP JUMPDEST SWAP1 POP SWAP2 SWAP1 POP JUMP JUMPDEST PUSH32 0x496E737566666963656E7420616D6F756E74206F662055534443000000000000 PUSH1 0x0 DUP3 ADD MSTORE POP JUMP JUMPDEST PUSH1 0x0 PUSH2 0x3942 PUSH1 0x1A DUP4 PUSH2 0x3038 JUMP JUMPDEST SWAP2 POP PUSH2 0x394D DUP3 PUSH2 0x390C JUMP JUMPDEST PUSH1 0x20 DUP3 ADD SWAP1 POP SWAP2 SWAP1 POP JUMP JUMPDEST PUSH1 0x0 PUSH1 0x20 DUP3 ADD SWAP1 POP DUP2 DUP2 SUB PUSH1 0x0 DUP4 ADD MSTORE PUSH2 0x3971 DUP2 PUSH2 0x3935 JUMP JUMPDEST SWAP1 POP SWAP2 SWAP1 POP JUMP JUMPDEST PUSH1 0x0 PUSH1 0x40 DUP3 ADD SWAP1 POP PUSH2 0x398D PUSH1 0x0 DUP4 ADD DUP6 PUSH2 0x2D87 JUMP JUMPDEST PUSH2 0x399A PUSH1 0x20 DUP4 ADD DUP5 PUSH2 0x2D87 JUMP JUMPDEST SWAP4 SWAP3 POP POP POP JUMP JUMPDEST PUSH32 0x496E73756666696369656E7420616C6C6F776564205553444300000000000000 PUSH1 0x0 DUP3 ADD MSTORE POP JUMP JUMPDEST PUSH1 0x0 PUSH2 0x39D7 PUSH1 0x19 DUP4 PUSH2 0x3038 JUMP JUMPDEST SWAP2 POP PUSH2 0x39E2 DUP3 PUSH2 0x39A1 JUMP JUMPDEST PUSH1 0x20 DUP3 ADD SWAP1 POP SWAP2 SWAP1 POP JUMP JUMPDEST PUSH1 0x0 PUSH1 0x20 DUP3 ADD SWAP1 POP DUP2 DUP2 SUB PUSH1 0x0 DUP4 ADD MSTORE PUSH2 0x3A06 DUP2 PUSH2 0x39CA JUMP JUMPDEST SWAP1 POP SWAP2 SWAP1 POP JUMP JUMPDEST PUSH1 0x0 PUSH1 0x60 DUP3 ADD SWAP1 POP PUSH2 0x3A22 PUSH1 0x0 DUP4 ADD DUP7 PUSH2 0x2D87 JUMP JUMPDEST PUSH2 0x3A2F PUSH1 0x20 DUP4 ADD DUP6 PUSH2 0x2D87 JUMP JUMPDEST PUSH2 0x3A3C PUSH1 0x40 DUP4 ADD DUP5 PUSH2 0x2AD3 JUMP JUMPDEST SWAP5 SWAP4 POP POP POP POP JUMP JUMPDEST PUSH1 0x0 DUP2 SWAP1 POP SWAP2 SWAP1 POP JUMP JUMPDEST PUSH1 0x0 PUSH2 0xFFFF DUP3 AND SWAP1 POP SWAP2 SWAP1 POP JUMP JUMPDEST PUSH1 0x0 DUP2 SWAP1 POP SWAP2 SWAP1 POP JUMP JUMPDEST PUSH1 0x0 PUSH2 0x3A81 PUSH2 0x3A7C PUSH2 0x3A77 DUP5 PUSH2 0x3A44 JUMP JUMPDEST PUSH2 0x3A5C JUMP JUMPDEST PUSH2 0x3A4E JUMP JUMPDEST SWAP1 POP SWAP2 SWAP1 POP JUMP JUMPDEST PUSH2 0x3A91 DUP2 PUSH2 0x3A66 JUMP JUMPDEST DUP3 MSTORE POP POP JUMP JUMPDEST PUSH1 0x0 PUSH1 0x80 DUP3 ADD SWAP1 POP PUSH2 0x3AAC PUSH1 0x0 DUP4 ADD DUP8 PUSH2 0x2D87 JUMP JUMPDEST PUSH2 0x3AB9 PUSH1 0x20 DUP4 ADD DUP7 PUSH2 0x2AD3 JUMP JUMPDEST PUSH2 0x3AC6 PUSH1 0x40 DUP4 ADD DUP6 PUSH2 0x2D87 JUMP JUMPDEST PUSH2 0x3AD3 PUSH1 0x60 DUP4 ADD DUP5 PUSH2 0x3A88 JUMP JUMPDEST SWAP6 SWAP5 POP POP POP POP POP JUMP JUMPDEST PUSH32 0x596F7520616C7265616479207265717565737465640000000000000000000000 PUSH1 0x0 DUP3 ADD MSTORE POP JUMP JUMPDEST PUSH1 0x0 PUSH2 0x3B12 PUSH1 0x15 DUP4 PUSH2 0x3038 JUMP JUMPDEST SWAP2 POP PUSH2 0x3B1D DUP3 PUSH2 0x3ADC JUMP JUMPDEST PUSH1 0x20 DUP3 ADD SWAP1 POP SWAP2 SWAP1 POP JUMP JUMPDEST PUSH1 0x0 PUSH1 0x20 DUP3 ADD SWAP1 POP DUP2 DUP2 SUB PUSH1 0x0 DUP4 ADD MSTORE PUSH2 0x3B41 DUP2 PUSH2 0x3B05 JUMP JUMPDEST SWAP1 POP SWAP2 SWAP1 POP JUMP JUMPDEST PUSH32 0x4F776E61626C653A2063616C6C6572206973206E6F7420746865206F776E6572 PUSH1 0x0 DUP3 ADD MSTORE POP JUMP JUMPDEST PUSH1 0x0 PUSH2 0x3B7E PUSH1 0x20 DUP4 PUSH2 0x3038 JUMP JUMPDEST SWAP2 POP PUSH2 0x3B89 DUP3 PUSH2 0x3B48 JUMP JUMPDEST PUSH1 0x20 DUP3 ADD SWAP1 POP SWAP2 SWAP1 POP JUMP JUMPDEST PUSH1 0x0 PUSH1 0x20 DUP3 ADD SWAP1 POP DUP2 DUP2 SUB PUSH1 0x0 DUP4 ADD MSTORE PUSH2 0x3BAD DUP2 PUSH2 0x3B71 JUMP JUMPDEST SWAP1 POP SWAP2 SWAP1 POP JUMP JUMPDEST PUSH32 0x5061757361626C653A206E6F7420706175736564000000000000000000000000 PUSH1 0x0 DUP3 ADD MSTORE POP JUMP JUMPDEST PUSH1 0x0 PUSH2 0x3BEA PUSH1 0x14 DUP4 PUSH2 0x3038 JUMP JUMPDEST SWAP2 POP PUSH2 0x3BF5 DUP3 PUSH2 0x3BB4 JUMP JUMPDEST PUSH1 0x20 DUP3 ADD SWAP1 POP SWAP2 SWAP1 POP JUMP JUMPDEST PUSH1 0x0 PUSH1 0x20 DUP3 ADD SWAP1 POP DUP2 DUP2 SUB PUSH1 0x0 DUP4 ADD MSTORE PUSH2 0x3C19 DUP2 PUSH2 0x3BDD JUMP JUMPDEST SWAP1 POP SWAP2 SWAP1 POP JUMP JUMPDEST PUSH32 0x5061757361626C653A2070617573656400000000000000000000000000000000 PUSH1 0x0 DUP3 ADD MSTORE POP JUMP JUMPDEST PUSH1 0x0 PUSH2 0x3C56 PUSH1 0x10 DUP4 PUSH2 0x3038 JUMP JUMPDEST SWAP2 POP PUSH2 0x3C61 DUP3 PUSH2 0x3C20 JUMP JUMPDEST PUSH1 0x20 DUP3 ADD SWAP1 POP SWAP2 SWAP1 POP JUMP JUMPDEST PUSH1 0x0 PUSH1 0x20 DUP3 ADD SWAP1 POP DUP2 DUP2 SUB PUSH1 0x0 DUP4 ADD MSTORE PUSH2 0x3C85 DUP2 PUSH2 0x3C49 JUMP JUMPDEST SWAP1 POP SWAP2 SWAP1 POP JUMP INVALID LOG2 PUSH5 0x6970667358 0x22 SLT KECCAK256 0x24 EXP MUL SDIV 0xE9 PUSH13 0x6D9588BDE299E5F21D7DDCBC77 0xE4 MLOAD 0xC7 PUSH1 0x55 0xE0 0x4D 0xCF MSTORE8 0x1F 0x5C CALL SAR PUSH5 0x736F6C6343 STOP ADDMOD GT STOP CALLER "},"methodIdentifiers":{"changeGameFrequence(uint256)":"f2fbee3f","changeNpngTokenAddress(address)":"8347f536","changeRecorder(address)":"e064613e","claim()":"4e71d92d","depositOnAave(uint256)":"fd8d1909","getAccountTable(address)":"bb2922e6","getContestRank(uint256,address)":"cad7ebce","getContestTable(uint256)":"2452a7e3","getEndOfContest()":"12b946bc","getGlobalPrizePool()":"b4ace158","getIdContest()":"c85785d6","getPendingRewards(address)":"f6ed2017","getPlay()":"0bd5d284","getRewardPerPlayerPerContest(address,uint256)":"fd1df603","getRewardsPerContest(uint256,uint256)":"95d7573c","getTotalClaimedRewards(address)":"9cfc8b8c","getUserBalance(address)":"47734892","getWinnersInfo(uint256)":"b56bae11","owner()":"8da5cb5b","pause()":"8456cb59","paused()":"5c975abb","renounceOwnership()":"715018a6","saveScore(address,uint256)":"695a6517","transferOwnership(address)":"f2fde38b","unpause()":"3f4ba83a","updateContest()":"4e499acd","withdraw(uint256)":"2e1a7d4d"}}}}}