{
  "_format": "hh-sol-artifact-1",
  "contractName": "NpngToken",
  "sourceName": "contracts/NpngToken.sol",
  "abi": [
    {
      "inputs": [],
      "stateMutability": "nonpayable",
      "type": "constructor"
    },
    {
      "anonymous": false,
      "inputs": [
        {
          "indexed": true,
          "internalType": "address",
          "name": "owner",
          "type": "address"
        },
        {
          "indexed": true,
          "internalType": "address",
          "name": "spender",
          "type": "address"
        },
        {
          "indexed": false,
          "internalType": "uint256",
          "name": "value",
          "type": "uint256"
        }
      ],
      "name": "Approval",
      "type": "event"
    },
    {
      "anonymous": false,
      "inputs": [
        {
          "indexed": true,
          "internalType": "bytes32",
          "name": "role",
          "type": "bytes32"
        },
        {
          "indexed": true,
          "internalType": "bytes32",
          "name": "previousAdminRole",
          "type": "bytes32"
        },
        {
          "indexed": true,
          "internalType": "bytes32",
          "name": "newAdminRole",
          "type": "bytes32"
        }
      ],
      "name": "RoleAdminChanged",
      "type": "event"
    },
    {
      "anonymous": false,
      "inputs": [
        {
          "indexed": true,
          "internalType": "bytes32",
          "name": "role",
          "type": "bytes32"
        },
        {
          "indexed": true,
          "internalType": "address",
          "name": "account",
          "type": "address"
        },
        {
          "indexed": true,
          "internalType": "address",
          "name": "sender",
          "type": "address"
        }
      ],
      "name": "RoleGranted",
      "type": "event"
    },
    {
      "anonymous": false,
      "inputs": [
        {
          "indexed": true,
          "internalType": "bytes32",
          "name": "role",
          "type": "bytes32"
        },
        {
          "indexed": true,
          "internalType": "address",
          "name": "account",
          "type": "address"
        },
        {
          "indexed": true,
          "internalType": "address",
          "name": "sender",
          "type": "address"
        }
      ],
      "name": "RoleRevoked",
      "type": "event"
    },
    {
      "anonymous": false,
      "inputs": [
        {
          "indexed": true,
          "internalType": "address",
          "name": "from",
          "type": "address"
        },
        {
          "indexed": true,
          "internalType": "address",
          "name": "to",
          "type": "address"
        },
        {
          "indexed": false,
          "internalType": "uint256",
          "name": "value",
          "type": "uint256"
        }
      ],
      "name": "Transfer",
      "type": "event"
    },
    {
      "inputs": [],
      "name": "DEFAULT_ADMIN_ROLE",
      "outputs": [
        {
          "internalType": "bytes32",
          "name": "",
          "type": "bytes32"
        }
      ],
      "stateMutability": "view",
      "type": "function"
    },
    {
      "inputs": [],
      "name": "MINTER_ROLE",
      "outputs": [
        {
          "internalType": "bytes32",
          "name": "",
          "type": "bytes32"
        }
      ],
      "stateMutability": "view",
      "type": "function"
    },
    {
      "inputs": [
        {
          "internalType": "address",
          "name": "owner",
          "type": "address"
        },
        {
          "internalType": "address",
          "name": "spender",
          "type": "address"
        }
      ],
      "name": "allowance",
      "outputs": [
        {
          "internalType": "uint256",
          "name": "",
          "type": "uint256"
        }
      ],
      "stateMutability": "view",
      "type": "function"
    },
    {
      "inputs": [
        {
          "internalType": "address",
          "name": "spender",
          "type": "address"
        },
        {
          "internalType": "uint256",
          "name": "amount",
          "type": "uint256"
        }
      ],
      "name": "approve",
      "outputs": [
        {
          "internalType": "bool",
          "name": "",
          "type": "bool"
        }
      ],
      "stateMutability": "nonpayable",
      "type": "function"
    },
    {
      "inputs": [
        {
          "internalType": "address",
          "name": "account",
          "type": "address"
        }
      ],
      "name": "balanceOf",
      "outputs": [
        {
          "internalType": "uint256",
          "name": "",
          "type": "uint256"
        }
      ],
      "stateMutability": "view",
      "type": "function"
    },
    {
      "inputs": [
        {
          "internalType": "uint256",
          "name": "amount",
          "type": "uint256"
        }
      ],
      "name": "burn",
      "outputs": [],
      "stateMutability": "nonpayable",
      "type": "function"
    },
    {
      "inputs": [
        {
          "internalType": "address",
          "name": "account",
          "type": "address"
        },
        {
          "internalType": "uint256",
          "name": "amount",
          "type": "uint256"
        }
      ],
      "name": "burn",
      "outputs": [],
      "stateMutability": "nonpayable",
      "type": "function"
    },
    {
      "inputs": [
        {
          "internalType": "address",
          "name": "account",
          "type": "address"
        },
        {
          "internalType": "uint256",
          "name": "amount",
          "type": "uint256"
        }
      ],
      "name": "burnFrom",
      "outputs": [],
      "stateMutability": "nonpayable",
      "type": "function"
    },
    {
      "inputs": [],
      "name": "decimals",
      "outputs": [
        {
          "internalType": "uint8",
          "name": "",
          "type": "uint8"
        }
      ],
      "stateMutability": "view",
      "type": "function"
    },
    {
      "inputs": [
        {
          "internalType": "address",
          "name": "spender",
          "type": "address"
        },
        {
          "internalType": "uint256",
          "name": "subtractedValue",
          "type": "uint256"
        }
      ],
      "name": "decreaseAllowance",
      "outputs": [
        {
          "internalType": "bool",
          "name": "",
          "type": "bool"
        }
      ],
      "stateMutability": "nonpayable",
      "type": "function"
    },
    {
      "inputs": [
        {
          "internalType": "bytes32",
          "name": "role",
          "type": "bytes32"
        }
      ],
      "name": "getRoleAdmin",
      "outputs": [
        {
          "internalType": "bytes32",
          "name": "",
          "type": "bytes32"
        }
      ],
      "stateMutability": "view",
      "type": "function"
    },
    {
      "inputs": [
        {
          "internalType": "bytes32",
          "name": "role",
          "type": "bytes32"
        },
        {
          "internalType": "address",
          "name": "account",
          "type": "address"
        }
      ],
      "name": "grantRole",
      "outputs": [],
      "stateMutability": "nonpayable",
      "type": "function"
    },
    {
      "inputs": [
        {
          "internalType": "bytes32",
          "name": "role",
          "type": "bytes32"
        },
        {
          "internalType": "address",
          "name": "account",
          "type": "address"
        }
      ],
      "name": "hasRole",
      "outputs": [
        {
          "internalType": "bool",
          "name": "",
          "type": "bool"
        }
      ],
      "stateMutability": "view",
      "type": "function"
    },
    {
      "inputs": [
        {
          "internalType": "address",
          "name": "spender",
          "type": "address"
        },
        {
          "internalType": "uint256",
          "name": "addedValue",
          "type": "uint256"
        }
      ],
      "name": "increaseAllowance",
      "outputs": [
        {
          "internalType": "bool",
          "name": "",
          "type": "bool"
        }
      ],
      "stateMutability": "nonpayable",
      "type": "function"
    },
    {
      "inputs": [
        {
          "internalType": "address",
          "name": "to",
          "type": "address"
        },
        {
          "internalType": "uint256",
          "name": "amount",
          "type": "uint256"
        }
      ],
      "name": "mint",
      "outputs": [],
      "stateMutability": "nonpayable",
      "type": "function"
    },
    {
      "inputs": [],
      "name": "name",
      "outputs": [
        {
          "internalType": "string",
          "name": "",
          "type": "string"
        }
      ],
      "stateMutability": "view",
      "type": "function"
    },
    {
      "inputs": [
        {
          "internalType": "bytes32",
          "name": "role",
          "type": "bytes32"
        },
        {
          "internalType": "address",
          "name": "account",
          "type": "address"
        }
      ],
      "name": "renounceRole",
      "outputs": [],
      "stateMutability": "nonpayable",
      "type": "function"
    },
    {
      "inputs": [
        {
          "internalType": "bytes32",
          "name": "role",
          "type": "bytes32"
        },
        {
          "internalType": "address",
          "name": "account",
          "type": "address"
        }
      ],
      "name": "revokeRole",
      "outputs": [],
      "stateMutability": "nonpayable",
      "type": "function"
    },
    {
      "inputs": [
        {
          "internalType": "bytes4",
          "name": "interfaceId",
          "type": "bytes4"
        }
      ],
      "name": "supportsInterface",
      "outputs": [
        {
          "internalType": "bool",
          "name": "",
          "type": "bool"
        }
      ],
      "stateMutability": "view",
      "type": "function"
    },
    {
      "inputs": [],
      "name": "symbol",
      "outputs": [
        {
          "internalType": "string",
          "name": "",
          "type": "string"
        }
      ],
      "stateMutability": "view",
      "type": "function"
    },
    {
      "inputs": [],
      "name": "totalSupply",
      "outputs": [
        {
          "internalType": "uint256",
          "name": "",
          "type": "uint256"
        }
      ],
      "stateMutability": "view",
      "type": "function"
    },
    {
      "inputs": [
        {
          "internalType": "address",
          "name": "to",
          "type": "address"
        },
        {
          "internalType": "uint256",
          "name": "amount",
          "type": "uint256"
        }
      ],
      "name": "transfer",
      "outputs": [
        {
          "internalType": "bool",
          "name": "",
          "type": "bool"
        }
      ],
      "stateMutability": "nonpayable",
      "type": "function"
    },
    {
      "inputs": [
        {
          "internalType": "address",
          "name": "from",
          "type": "address"
        },
        {
          "internalType": "address",
          "name": "to",
          "type": "address"
        },
        {
          "internalType": "uint256",
          "name": "amount",
          "type": "uint256"
        }
      ],
      "name": "transferFrom",
      "outputs": [
        {
          "internalType": "bool",
          "name": "",
          "type": "bool"
        }
      ],
      "stateMutability": "nonpayable",
      "type": "function"
    }
  ],
  "bytecode": "0x60806040523480156200001157600080fd5b506040518060400160405280600981526020017f4e504e47615553444300000000000000000000000000000000000000000000008152506040518060400160405280600781526020017f4e5061555344430000000000000000000000000000000000000000000000000081525081600390816200008f9190620004d0565b508060049081620000a19190620004d0565b505050620000b96000801b33620000f160201b60201c565b620000eb7f9f2df0fed2c77648de5860a4cc508cd0818c85b8b8a1ab4ceeef8d981c8956a633620000f160201b60201c565b620005b7565b620001038282620001e360201b60201c565b620001df5760016005600084815260200190815260200160002060000160008373ffffffffffffffffffffffffffffffffffffffff1673ffffffffffffffffffffffffffffffffffffffff16815260200190815260200160002060006101000a81548160ff021916908315150217905550620001846200024e60201b60201c565b73ffffffffffffffffffffffffffffffffffffffff168173ffffffffffffffffffffffffffffffffffffffff16837f2f8788117e7eff1d82e926ec794901d17c78024a50270940304540a733656f0d60405160405180910390a45b5050565b60006005600084815260200190815260200160002060000160008373ffffffffffffffffffffffffffffffffffffffff1673ffffffffffffffffffffffffffffffffffffffff16815260200190815260200160002060009054906101000a900460ff16905092915050565b600033905090565b600081519050919050565b7f4e487b7100000000000000000000000000000000000000000000000000000000600052604160045260246000fd5b7f4e487b7100000000000000000000000000000000000000000000000000000000600052602260045260246000fd5b60006002820490506001821680620002d857607f821691505b602082108103620002ee57620002ed62000290565b5b50919050565b60008190508160005260206000209050919050565b60006020601f8301049050919050565b600082821b905092915050565b600060088302620003587fffffffffffffffffffffffffffffffffffffffffffffffffffffffffffffffff8262000319565b62000364868362000319565b95508019841693508086168417925050509392505050565b6000819050919050565b6000819050919050565b6000620003b1620003ab620003a5846200037c565b62000386565b6200037c565b9050919050565b6000819050919050565b620003cd8362000390565b620003e5620003dc82620003b8565b84845462000326565b825550505050565b600090565b620003fc620003ed565b62000409818484620003c2565b505050565b5b81811015620004315762000425600082620003f2565b6001810190506200040f565b5050565b601f82111562000480576200044a81620002f4565b620004558462000309565b8101602085101562000465578190505b6200047d620004748562000309565b8301826200040e565b50505b505050565b600082821c905092915050565b6000620004a56000198460080262000485565b1980831691505092915050565b6000620004c0838362000492565b9150826002028217905092915050565b620004db8262000256565b67ffffffffffffffff811115620004f757620004f662000261565b5b620005038254620002bf565b6200051082828562000435565b600060209050601f83116001811462000548576000841562000533578287015190505b6200053f8582620004b2565b865550620005af565b601f1984166200055886620002f4565b60005b8281101562000582578489015182556001820191506020850194506020810190506200055b565b86831015620005a257848901516200059e601f89168262000492565b8355505b6001600288020188555050505b505050505050565b61254380620005c76000396000f3fe608060405234801561001057600080fd5b506004361061014d5760003560e01c806342966c68116100c3578063a217fddf1161007c578063a217fddf146103c2578063a457c2d7146103e0578063a9059cbb14610410578063d539139314610440578063d547741f1461045e578063dd62ed3e1461047a5761014d565b806342966c68146102f057806370a082311461030c57806379cc67901461033c57806391d148541461035857806395d89b41146103885780639dc29fac146103a65761014d565b8063248a9ca311610115578063248a9ca31461021e5780632f2ff15d1461024e578063313ce5671461026a57806336568abe1461028857806339509351146102a457806340c10f19146102d45761014d565b806301ffc9a71461015257806306fdde0314610182578063095ea7b3146101a057806318160ddd146101d057806323b872dd146101ee575b600080fd5b61016c600480360381019061016791906117d5565b6104aa565b604051610179919061181d565b60405180910390f35b61018a610524565b60405161019791906118c8565b60405180910390f35b6101ba60048036038101906101b5919061197e565b6105b6565b6040516101c7919061181d565b60405180910390f35b6101d86105d9565b6040516101e591906119cd565b60405180910390f35b610208600480360381019061020391906119e8565b6105e3565b604051610215919061181d565b60405180910390f35b61023860048036038101906102339190611a71565b610612565b6040516102459190611aad565b60405180910390f35b61026860048036038101906102639190611ac8565b610632565b005b610272610653565b60405161027f9190611b24565b60405180910390f35b6102a2600480360381019061029d9190611ac8565b61065c565b005b6102be60048036038101906102b9919061197e565b6106df565b6040516102cb919061181d565b60405180910390f35b6102ee60048036038101906102e9919061197e565b610716565b005b61030a60048036038101906103059190611b3f565b61074f565b005b61032660048036038101906103219190611b6c565b610763565b60405161033391906119cd565b60405180910390f35b6103566004803603810190610351919061197e565b6107ab565b005b610372600480360381019061036d9190611ac8565b6107cb565b60405161037f919061181d565b60405180910390f35b610390610836565b60405161039d91906118c8565b60405180910390f35b6103c060048036038101906103bb919061197e565b6108c8565b005b6103ca6108d6565b6040516103d79190611aad565b60405180910390f35b6103fa60048036038101906103f5919061197e565b6108dd565b604051610407919061181d565b60405180910390f35b61042a6004803603810190610425919061197e565b610954565b604051610437919061181d565b60405180910390f35b610448610977565b6040516104559190611aad565b60405180910390f35b61047860048036038101906104739190611ac8565b61099b565b005b610494600480360381019061048f9190611b99565b6109bc565b6040516104a191906119cd565b60405180910390f35b60007f7965db0b000000000000000000000000000000000000000000000000000000007bffffffffffffffffffffffffffffffffffffffffffffffffffffffff1916827bffffffffffffffffffffffffffffffffffffffffffffffffffffffff1916148061051d575061051c82610a43565b5b9050919050565b60606003805461053390611c08565b80601f016020809104026020016040519081016040528092919081815260200182805461055f90611c08565b80156105ac5780601f10610581576101008083540402835291602001916105ac565b820191906000526020600020905b81548152906001019060200180831161058f57829003601f168201915b5050505050905090565b6000806105c1610aad565b90506105ce818585610ab5565b600191505092915050565b6000600254905090565b6000806105ee610aad565b90506105fb858285610c7e565b610606858585610d0a565b60019150509392505050565b600060056000838152602001908152602001600020600101549050919050565b61063b82610612565b61064481610f89565b61064e8383610f9d565b505050565b60006006905090565b610664610aad565b73ffffffffffffffffffffffffffffffffffffffff168173ffffffffffffffffffffffffffffffffffffffff16146106d1576040517f08c379a00000000000000000000000000000000000000000000000000000000081526004016106c890611cab565b60405180910390fd5b6106db828261107e565b5050565b6000806106ea610aad565b905061070b8185856106fc85896109bc565b6107069190611cfa565b610ab5565b600191505092915050565b7f9f2df0fed2c77648de5860a4cc508cd0818c85b8b8a1ab4ceeef8d981c8956a661074081610f89565b61074a8383611160565b505050565b61076061075a610aad565b826112bf565b50565b60008060008373ffffffffffffffffffffffffffffffffffffffff1673ffffffffffffffffffffffffffffffffffffffff168152602001908152602001600020549050919050565b6107bd826107b7610aad565b83610c7e565b6107c782826112bf565b5050565b60006005600084815260200190815260200160002060000160008373ffffffffffffffffffffffffffffffffffffffff1673ffffffffffffffffffffffffffffffffffffffff16815260200190815260200160002060009054906101000a900460ff16905092915050565b60606004805461084590611c08565b80601f016020809104026020016040519081016040528092919081815260200182805461087190611c08565b80156108be5780601f10610893576101008083540402835291602001916108be565b820191906000526020600020905b8154815290600101906020018083116108a157829003601f168201915b5050505050905090565b6108d282826112bf565b5050565b6000801b81565b6000806108e8610aad565b905060006108f682866109bc565b90508381101561093b576040517f08c379a000000000000000000000000000000000000000000000000000000000815260040161093290611da0565b60405180910390fd5b6109488286868403610ab5565b60019250505092915050565b60008061095f610aad565b905061096c818585610d0a565b600191505092915050565b7f9f2df0fed2c77648de5860a4cc508cd0818c85b8b8a1ab4ceeef8d981c8956a681565b6109a482610612565b6109ad81610f89565b6109b7838361107e565b505050565b6000600160008473ffffffffffffffffffffffffffffffffffffffff1673ffffffffffffffffffffffffffffffffffffffff16815260200190815260200160002060008373ffffffffffffffffffffffffffffffffffffffff1673ffffffffffffffffffffffffffffffffffffffff16815260200190815260200160002054905092915050565b60007f01ffc9a7000000000000000000000000000000000000000000000000000000007bffffffffffffffffffffffffffffffffffffffffffffffffffffffff1916827bffffffffffffffffffffffffffffffffffffffffffffffffffffffff1916149050919050565b600033905090565b600073ffffffffffffffffffffffffffffffffffffffff168373ffffffffffffffffffffffffffffffffffffffff1603610b24576040517f08c379a0000000000000000000000000000000000000000000000000000000008152600401610b1b90611e32565b60405180910390fd5b600073ffffffffffffffffffffffffffffffffffffffff168273ffffffffffffffffffffffffffffffffffffffff1603610b93576040517f08c379a0000000000000000000000000000000000000000000000000000000008152600401610b8a90611ec4565b60405180910390fd5b80600160008573ffffffffffffffffffffffffffffffffffffffff1673ffffffffffffffffffffffffffffffffffffffff16815260200190815260200160002060008473ffffffffffffffffffffffffffffffffffffffff1673ffffffffffffffffffffffffffffffffffffffff168152602001908152602001600020819055508173ffffffffffffffffffffffffffffffffffffffff168373ffffffffffffffffffffffffffffffffffffffff167f8c5be1e5ebec7d5bd14f71427d1e84f3dd0314c0f7b2291e5b200ac8c7c3b92583604051610c7191906119cd565b60405180910390a3505050565b6000610c8a84846109bc565b90507fffffffffffffffffffffffffffffffffffffffffffffffffffffffffffffffff8114610d045781811015610cf6576040517f08c379a0000000000000000000000000000000000000000000000000000000008152600401610ced90611f30565b60405180910390fd5b610d038484848403610ab5565b5b50505050565b600073ffffffffffffffffffffffffffffffffffffffff168373ffffffffffffffffffffffffffffffffffffffff1603610d79576040517f08c379a0000000000000000000000000000000000000000000000000000000008152600401610d7090611fc2565b60405180910390fd5b600073ffffffffffffffffffffffffffffffffffffffff168273ffffffffffffffffffffffffffffffffffffffff1603610de8576040517f08c379a0000000000000000000000000000000000000000000000000000000008152600401610ddf90612054565b60405180910390fd5b610df3838383611495565b60008060008573ffffffffffffffffffffffffffffffffffffffff1673ffffffffffffffffffffffffffffffffffffffff16815260200190815260200160002054905081811015610e79576040517f08c379a0000000000000000000000000000000000000000000000000000000008152600401610e70906120e6565b60405180910390fd5b8181036000808673ffffffffffffffffffffffffffffffffffffffff1673ffffffffffffffffffffffffffffffffffffffff16815260200190815260200160002081905550816000808573ffffffffffffffffffffffffffffffffffffffff1673ffffffffffffffffffffffffffffffffffffffff1681526020019081526020016000206000828254610f0c9190611cfa565b925050819055508273ffffffffffffffffffffffffffffffffffffffff168473ffffffffffffffffffffffffffffffffffffffff167fddf252ad1be2c89b69c2b068fc378daa952ba7f163c4a11628f55a4df523b3ef84604051610f7091906119cd565b60405180910390a3610f8384848461149a565b50505050565b610f9a81610f95610aad565b61149f565b50565b610fa782826107cb565b61107a5760016005600084815260200190815260200160002060000160008373ffffffffffffffffffffffffffffffffffffffff1673ffffffffffffffffffffffffffffffffffffffff16815260200190815260200160002060006101000a81548160ff02191690831515021790555061101f610aad565b73ffffffffffffffffffffffffffffffffffffffff168173ffffffffffffffffffffffffffffffffffffffff16837f2f8788117e7eff1d82e926ec794901d17c78024a50270940304540a733656f0d60405160405180910390a45b5050565b61108882826107cb565b1561115c5760006005600084815260200190815260200160002060000160008373ffffffffffffffffffffffffffffffffffffffff1673ffffffffffffffffffffffffffffffffffffffff16815260200190815260200160002060006101000a81548160ff021916908315150217905550611101610aad565b73ffffffffffffffffffffffffffffffffffffffff168173ffffffffffffffffffffffffffffffffffffffff16837ff6391f5c32d9c69d2a47ea670b442974b53935d1edc7fd64eb21e047a839171b60405160405180910390a45b5050565b600073ffffffffffffffffffffffffffffffffffffffff168273ffffffffffffffffffffffffffffffffffffffff16036111cf576040517f08c379a00000000000000000000000000000000000000000000000000000000081526004016111c690612152565b60405180910390fd5b6111db60008383611495565b80600260008282546111ed9190611cfa565b92505081905550806000808473ffffffffffffffffffffffffffffffffffffffff1673ffffffffffffffffffffffffffffffffffffffff16815260200190815260200160002060008282546112429190611cfa565b925050819055508173ffffffffffffffffffffffffffffffffffffffff16600073ffffffffffffffffffffffffffffffffffffffff167fddf252ad1be2c89b69c2b068fc378daa952ba7f163c4a11628f55a4df523b3ef836040516112a791906119cd565b60405180910390a36112bb6000838361149a565b5050565b600073ffffffffffffffffffffffffffffffffffffffff168273ffffffffffffffffffffffffffffffffffffffff160361132e576040517f08c379a0000000000000000000000000000000000000000000000000000000008152600401611325906121e4565b60405180910390fd5b61133a82600083611495565b60008060008473ffffffffffffffffffffffffffffffffffffffff1673ffffffffffffffffffffffffffffffffffffffff168152602001908152602001600020549050818110156113c0576040517f08c379a00000000000000000000000000000000000000000000000000000000081526004016113b790612276565b60405180910390fd5b8181036000808573ffffffffffffffffffffffffffffffffffffffff1673ffffffffffffffffffffffffffffffffffffffff1681526020019081526020016000208190555081600260008282546114179190612296565b92505081905550600073ffffffffffffffffffffffffffffffffffffffff168373ffffffffffffffffffffffffffffffffffffffff167fddf252ad1be2c89b69c2b068fc378daa952ba7f163c4a11628f55a4df523b3ef8460405161147c91906119cd565b60405180910390a36114908360008461149a565b505050565b505050565b505050565b6114a982826107cb565b611538576114ce8173ffffffffffffffffffffffffffffffffffffffff16601461153c565b6114dc8360001c602061153c565b6040516020016114ed92919061239e565b6040516020818303038152906040526040517f08c379a000000000000000000000000000000000000000000000000000000000815260040161152f91906118c8565b60405180910390fd5b5050565b60606000600283600261154f91906123d8565b6115599190611cfa565b67ffffffffffffffff8111156115725761157161241a565b5b6040519080825280601f01601f1916602001820160405280156115a45781602001600182028036833780820191505090505b5090507f3000000000000000000000000000000000000000000000000000000000000000816000815181106115dc576115db612449565b5b60200101907effffffffffffffffffffffffffffffffffffffffffffffffffffffffffffff1916908160001a9053507f7800000000000000000000000000000000000000000000000000000000000000816001815181106116405761163f612449565b5b60200101907effffffffffffffffffffffffffffffffffffffffffffffffffffffffffffff1916908160001a9053506000600184600261168091906123d8565b61168a9190611cfa565b90505b600181111561172a577f3031323334353637383961626364656600000000000000000000000000000000600f8616601081106116cc576116cb612449565b5b1a60f81b8282815181106116e3576116e2612449565b5b60200101907effffffffffffffffffffffffffffffffffffffffffffffffffffffffffffff1916908160001a905350600485901c94508061172390612478565b905061168d565b506000841461176e576040517f08c379a0000000000000000000000000000000000000000000000000000000008152600401611765906124ed565b60405180910390fd5b8091505092915050565b600080fd5b60007fffffffff0000000000000000000000000000000000000000000000000000000082169050919050565b6117b28161177d565b81146117bd57600080fd5b50565b6000813590506117cf816117a9565b92915050565b6000602082840312156117eb576117ea611778565b5b60006117f9848285016117c0565b91505092915050565b60008115159050919050565b61181781611802565b82525050565b6000602082019050611832600083018461180e565b92915050565b600081519050919050565b600082825260208201905092915050565b60005b83811015611872578082015181840152602081019050611857565b60008484015250505050565b6000601f19601f8301169050919050565b600061189a82611838565b6118a48185611843565b93506118b4818560208601611854565b6118bd8161187e565b840191505092915050565b600060208201905081810360008301526118e2818461188f565b905092915050565b600073ffffffffffffffffffffffffffffffffffffffff82169050919050565b6000611915826118ea565b9050919050565b6119258161190a565b811461193057600080fd5b50565b6000813590506119428161191c565b92915050565b6000819050919050565b61195b81611948565b811461196657600080fd5b50565b60008135905061197881611952565b92915050565b6000806040838503121561199557611994611778565b5b60006119a385828601611933565b92505060206119b485828601611969565b9150509250929050565b6119c781611948565b82525050565b60006020820190506119e260008301846119be565b92915050565b600080600060608486031215611a0157611a00611778565b5b6000611a0f86828701611933565b9350506020611a2086828701611933565b9250506040611a3186828701611969565b9150509250925092565b6000819050919050565b611a4e81611a3b565b8114611a5957600080fd5b50565b600081359050611a6b81611a45565b92915050565b600060208284031215611a8757611a86611778565b5b6000611a9584828501611a5c565b91505092915050565b611aa781611a3b565b82525050565b6000602082019050611ac26000830184611a9e565b92915050565b60008060408385031215611adf57611ade611778565b5b6000611aed85828601611a5c565b9250506020611afe85828601611933565b9150509250929050565b600060ff82169050919050565b611b1e81611b08565b82525050565b6000602082019050611b396000830184611b15565b92915050565b600060208284031215611b5557611b54611778565b5b6000611b6384828501611969565b91505092915050565b600060208284031215611b8257611b81611778565b5b6000611b9084828501611933565b91505092915050565b60008060408385031215611bb057611baf611778565b5b6000611bbe85828601611933565b9250506020611bcf85828601611933565b9150509250929050565b7f4e487b7100000000000000000000000000000000000000000000000000000000600052602260045260246000fd5b60006002820490506001821680611c2057607f821691505b602082108103611c3357611c32611bd9565b5b50919050565b7f416363657373436f6e74726f6c3a2063616e206f6e6c792072656e6f756e636560008201527f20726f6c657320666f722073656c660000000000000000000000000000000000602082015250565b6000611c95602f83611843565b9150611ca082611c39565b604082019050919050565b60006020820190508181036000830152611cc481611c88565b9050919050565b7f4e487b7100000000000000000000000000000000000000000000000000000000600052601160045260246000fd5b6000611d0582611948565b9150611d1083611948565b9250828201905080821115611d2857611d27611ccb565b5b92915050565b7f45524332303a2064656372656173656420616c6c6f77616e63652062656c6f7760008201527f207a65726f000000000000000000000000000000000000000000000000000000602082015250565b6000611d8a602583611843565b9150611d9582611d2e565b604082019050919050565b60006020820190508181036000830152611db981611d7d565b9050919050565b7f45524332303a20617070726f76652066726f6d20746865207a65726f2061646460008201527f7265737300000000000000000000000000000000000000000000000000000000602082015250565b6000611e1c602483611843565b9150611e2782611dc0565b604082019050919050565b60006020820190508181036000830152611e4b81611e0f565b9050919050565b7f45524332303a20617070726f766520746f20746865207a65726f20616464726560008201527f7373000000000000000000000000000000000000000000000000000000000000602082015250565b6000611eae602283611843565b9150611eb982611e52565b604082019050919050565b60006020820190508181036000830152611edd81611ea1565b9050919050565b7f45524332303a20696e73756666696369656e7420616c6c6f77616e6365000000600082015250565b6000611f1a601d83611843565b9150611f2582611ee4565b602082019050919050565b60006020820190508181036000830152611f4981611f0d565b9050919050565b7f45524332303a207472616e736665722066726f6d20746865207a65726f20616460008201527f6472657373000000000000000000000000000000000000000000000000000000602082015250565b6000611fac602583611843565b9150611fb782611f50565b604082019050919050565b60006020820190508181036000830152611fdb81611f9f565b9050919050565b7f45524332303a207472616e7366657220746f20746865207a65726f206164647260008201527f6573730000000000000000000000000000000000000000000000000000000000602082015250565b600061203e602383611843565b915061204982611fe2565b604082019050919050565b6000602082019050818103600083015261206d81612031565b9050919050565b7f45524332303a207472616e7366657220616d6f756e742065786365656473206260008201527f616c616e63650000000000000000000000000000000000000000000000000000602082015250565b60006120d0602683611843565b91506120db82612074565b604082019050919050565b600060208201905081810360008301526120ff816120c3565b9050919050565b7f45524332303a206d696e7420746f20746865207a65726f206164647265737300600082015250565b600061213c601f83611843565b915061214782612106565b602082019050919050565b6000602082019050818103600083015261216b8161212f565b9050919050565b7f45524332303a206275726e2066726f6d20746865207a65726f2061646472657360008201527f7300000000000000000000000000000000000000000000000000000000000000602082015250565b60006121ce602183611843565b91506121d982612172565b604082019050919050565b600060208201905081810360008301526121fd816121c1565b9050919050565b7f45524332303a206275726e20616d6f756e7420657863656564732062616c616e60008201527f6365000000000000000000000000000000000000000000000000000000000000602082015250565b6000612260602283611843565b915061226b82612204565b604082019050919050565b6000602082019050818103600083015261228f81612253565b9050919050565b60006122a182611948565b91506122ac83611948565b92508282039050818111156122c4576122c3611ccb565b5b92915050565b600081905092915050565b7f416363657373436f6e74726f6c3a206163636f756e7420000000000000000000600082015250565b600061230b6017836122ca565b9150612316826122d5565b601782019050919050565b600061232c82611838565b61233681856122ca565b9350612346818560208601611854565b80840191505092915050565b7f206973206d697373696e6720726f6c6520000000000000000000000000000000600082015250565b60006123886011836122ca565b915061239382612352565b601182019050919050565b60006123a9826122fe565b91506123b58285612321565b91506123c08261237b565b91506123cc8284612321565b91508190509392505050565b60006123e382611948565b91506123ee83611948565b92508282026123fc81611948565b9150828204841483151761241357612412611ccb565b5b5092915050565b7f4e487b7100000000000000000000000000000000000000000000000000000000600052604160045260246000fd5b7f4e487b7100000000000000000000000000000000000000000000000000000000600052603260045260246000fd5b600061248382611948565b91506000820361249657612495611ccb565b5b600182039050919050565b7f537472696e67733a20686578206c656e67746820696e73756666696369656e74600082015250565b60006124d7602083611843565b91506124e2826124a1565b602082019050919050565b60006020820190508181036000830152612506816124ca565b905091905056fea26469706673582212206fe9e86ef59123902e66a4973e40f11c39ebddd1fa3095bef5f8f811850b463b64736f6c63430008110033",
  "linkReferences": {},
  "deployedLinkReferences": {}
}